:100000000C9463000C94F50F0C9422100C948B004C
:100010000C948B000C948B000C948B000C948B0034
:100020000C948B000C948B000C948B000C948B0024
:100030000C948B000C948B000C948B000C948B0014
:100040000C944F100C948B000C9491050C94D405D7
:100050000C948B000C948B000C948B000C948B00F4
:100060000C948B000C948B00000000070002010030
:100070000003040600000000000000000102040864
:100080001020408001020408102001020408102002
:10009000040404040404040402020202020203032E
:1000A00003030303000000002300260029000000D2
:1000B0000000250028002B0000000000240027007D
:1000C0002A00B603900611241FBECFEFD4E0DEBF96
:1000D000CDBF11E0A0E0B1E0ECE1FDE202C005908F
:1000E0000D92A43FB107D9F717E0A4EFB1E001C02A
:1000F0001D92A331B107E1F710E0C6ECD0E004C0D7
:100100002297FE010E948816C23CD107C9F70E94BF
:10011000E6060C94A2130C9400006FE071E080E1FD
:1001200093E00C9431070E946F0A65E271E080E170
:1001300093E00C943107DC01ED91FC910190F0818A
:10014000E02D0994CF93DF9367E371E080E193E0C2
:100150000E94310783E092E00E944509EC0100977C
:1001600059F060E270E080E193E00E949B00BE01E4
:1001700080E193E00E94310764E371E080E193E065
:10018000DF91CF910C943107CF92DF92EF92FF92E3
:100190000F931F93CF93DF93CDB7DEB764970FB65E
:1001A000F894DEBF0FBECDBF80910202882371F1AB
:1001B0000E94CE0A882309F48DC00E94C70A8C01D0
:1001C0000E941F0A809FB001819F700D909F700D4B
:1001D00011244AE050E080E193E00E94F2076CE3D2
:1001E00071E080E193E00E9431078091F4018F5F1C
:1001F0008093F401803108F46DC01092F4016AE03C
:1002000070E080E193E00E949B0064C00E94820A3B
:10021000882309F45FC07E0181E1E80EF11CB7017B
:10022000CE0143960E948B0A0E941F0A6C014989E5
:100230005A896B897C89CE0101960E94E80C6FE394
:1002400071E080E193E00E9431078E010F5F1F4F44
:10025000F801819191918F018C9DA0018D9D500D90
:100260009C9D500D112460E070E02AE030E080E1B8
:1002700093E00E94E50760E270E080E193E00E9475
:100280009B000E151F0521F700E010E089899A896F
:1002900008171907B8F4A0911003B0911103C80111
:1002A000880F991FEB89FC89E80FF91F6081718124
:1002B000605D7F4FED91FC9180E193E009950F5FC8
:1002C0001F4FE4CF64E371E080E193E00E943107C7
:1002D0000E94BC0A64960FB6F894DEBF0FBECDBF75
:1002E000DF91CF911F910F91FF90EF90DF90CF9012
:1002F000089540E052EC61E070E080E193E00E94FC
:100300000F064AE053E06BE471E083E092E00E9464
:10031000130946E553E06EE471E083E092E00E9449
:10032000130940E353E061E571E083E092E00E944D
:10033000130946E753E064E571E083E092E00E9430
:10034000130946E953E067E571E083E092E00E941B
:1003500013094BE752E06AE571E083E092E00E9406
:10036000130942EA50E067E371E083E092E00E9403
:10037000130948EA52E06DE571E083E092E00E94E3
:10038000130943E950E061E671E083E092E00E94E6
:1003900013096DE870E083E092E00E94410965E294
:1003A00071E080E193E00C94310783E092E00E94D9
:1003B0004F090C94C40067E671E080E193E00C946F
:1003C000310783E092E00E944509009711F40C94F4
:1003D000DB010E9484130E94220A81E080930202C2
:1003E0006CE771E080E193E00C94310783E092E0E8
:1003F0000E944509009711F40C94DB010E948413BC
:1004000090930501809304010E94220A1092020237
:100410006CE771E080E193E00C9431078F929F923A
:10042000AF92BF92CF92DF92EF92FF920F931F9302
:10043000CF93DF93CDB7DEB7A0970FB6F894DEBFAA
:100440000FBECDBF83E092E00E944509009719F4EA
:100450000E94DB013DC00E9484137C0183E092E096
:100460000E9445090097A1F30E9484136C018E013C
:100470000F5F1F4F5E0181E2A80EB11C480183E0AF
:1004800092E00E944509009719F34AE050E060E0CD
:1004900070E00E947012F8016193719381939193BF
:1004A0008F01EA15FB0559F783E092E00E944509A8
:1004B000009771F29601AC01B401C7010E94290EA8
:1004C000109202026CE771E080E193E00E94310734
:1004D000A0960FB6F894DEBF0FBECDBFDF91CF91CF
:1004E0001F910F91FF90EF90DF90CF90BF90AF9052
:1004F0009F908F900895CF93DF9383E092E00E94C6
:100500004509EC01009721F4DF91CF910C94DB01B8
:1005100062E871E00E94BC13892B21F4DF91CF9136
:100520000C940E0267E871E0CE010E94BC13892B87
:1005300021F4DF91CF910C94F6016FE871E0CE01C8
:100540000E94BC13892B01F7DF91CF910C94E1013C
:10055000CF93DF9383E092E00E944509009721F456
:10056000DF91CF910C94DB010E948413EC0183E0B6
:1005700092E00E944509009799F30E948413682F26
:1005800085EF91E02B9719F40E942F0F02C00E9473
:100590006C0F8F3F2FEF920791F1009729F0029691
:1005A00089F56DEA71E030C063E971E080E193E0C4
:1005B0000E9431074091F9015091FA016091FB01CD
:1005C0007091FC0121E030E080E193E00E94E308BB
:1005D00060E270E080E193E00E949B004091F501B1
:1005E0005091F6016091F7017091F80121E030E03F
:1005F00080E193E00E94E30864E371E005C068E9EC
:1006000071E002C061EC71E080E193E0DF91CF9195
:100610000C943107CF93DF9383E092E00E94450969
:10062000009721F4DF91CF910C94DB010E94841399
:100630000E94D004EC0163E971E080E193E00E9444
:100640003107BE01605D7F4F80E193E00E949B0017
:1006500064E371E080E193E0DF91CF910C94310786
:10066000CF93DF9383E092E00E944509009721F445
:10067000DF91CF910C94DB010E9484130E94BC0394
:10068000EC0163E971E080E193E00E9431074AE008
:1006900050E0BE0180E193E00E94DD0764E371E079
:1006A00080E193E0DF91CF910C943107CF9383E009
:1006B00092E00E944509009719F4CF910C94DB0158
:1006C0000E948413C82F83E092E00E94450900979E
:1006D000A1F30E948413682F8C2F0E949A046CE768
:1006E00071E080E193E0CF910C943107CF9383E0E8
:1006F00092E00E944509009719F4CF910C94DB0118
:100700000E948413C82F83E092E00E94450900975D
:10071000A1F30E948413BC018C2F0E94D9036CE7C3
:1007200071E080E193E0CF910C943107CF9383E0A7
:1007300092E00E944509009719F4CF910C94DB01D7
:100740000E948413C82F83E092E00E94450900971D
:10075000A1F30E948413682F8C2F0E9461046CE720
:1007600071E080E193E0CF910C94310760E170E09B
:1007700083E092E00C94E5088E3008F08E5087708C
:100780002091060190E4299F90011124822B8093EF
:100790007C0080917A00806480937A0080917A0056
:1007A00086FDFCCF809178002091790090E0922B1B
:1007B00008951F93CF93DF93182FEB0161E00E9400
:1007C0006104209711F460E004C0CF3FD10539F4F3
:1007D00061E0812FDF91CF911F910C949A04E12F5A
:1007E000F0E0E859FF4FE491E330F9F048F4E130EC
:1007F000B9F0E230A1F584B5806284BDC8BD34C0D3
:10080000E630E9F0E73019F1E43049F580918000F5
:10081000806280938000D0938B00C0938A0024C0B4
:1008200084B5806884BDC7BD1FC08091800080688A
:1008300080938000D0938900C093880015C0809178
:10084000B00080688093B000C093B3000DC0809169
:10085000B00080628093B000C093B40005C0C0387F
:10086000D1050CF0B5CFAFCFDF91CF911F91089597
:10087000833081F028F4813099F08230A1F008951E
:100880008630A9F08730B9F08430D1F480918000AF
:100890008F7D03C0809180008F77809380000895C2
:1008A00084B58F7702C084B58F7D84BD0895809113
:1008B000B0008F7703C08091B0008F7D8093B0002F
:1008C0000895CF93DF9390E0FC01E458FF4F24910B
:1008D000FC01E057FF4F8491882349F190E0880F95
:1008E000991FFC01E854FF4FA591B49182559F4F89
:1008F000FC01C591D4919FB7611108C0F8948C9107
:10090000209582238C93888182230AC0623051F41F
:10091000F8948C91322F309583238C938881822B8D
:10092000888304C0F8948C91822B8C939FBFDF91B5
:10093000CF9108950F931F93CF93DF931F92CDB75D
:10094000DEB7282F30E0F901E859FF4F8491F90113
:10095000E458FF4F1491F901E057FF4F0491002331
:10096000C9F0882321F069830E9438046981E02F4F
:10097000F0E0EE0FFF1FE255FF4FA591B4919FB736
:10098000F8948C91611103C01095812301C0812BD3
:100990008C939FBF0F90DF91CF911F910F9108957E
:1009A000CF93DF93282F30E0F901E859FF4F84916E
:1009B000F901E458FF4FD491F901E057FF4FC4917A
:1009C000CC2391F081110E943804EC2FF0E0EE0F5F
:1009D000FF1FEC55FF4FA591B4912C912D2381E081
:1009E00090E021F480E002C080E090E0DF91CF91C0
:1009F0000895FC0124853585F901E05CFF4F808175
:100A00009181F901EE5BFF4F20813181821B930BB5
:100A10008F7399270895FC0184859585FC01E05C1E
:100A2000FF4F40815181FC01EE5BFF4F20813181FE
:100A30004217530741F00190F081E02DE80FF91FB4
:100A4000808190E008958FEF9FEF0895FC018485E9
:100A50009585FC01E05CFF4F40815181FC01EE5B1C
:100A6000FF4F208131814217530779F0A081B18176
:100A7000A80FB91F8C91208131812F5F3F4F2F73B9
:100A800033273183208390E008958FEF9FEF0895FF
:100A9000FC0181A1882329F0A489B5898C9186FF66
:100AA000FBCF11A20895CF93DF93FC0126853785F4
:100AB000D901A05CBF4F8D919C91119701968F73C6
:100AC0009927E901CE5BDF4F48815981841795074B
:100AD000D9F30D90BC91A02DA20FB31F6C93A685E6
:100AE000B785A05CBF4F11969C938E93A689B7895A
:100AF0002C9181E090E0078C02C0880F991F0A9426
:100B0000E2F7282B2C9381E081A30488F589E02D5E
:100B100080818064808381E090E0DF91CF910895AF
:100B200008951F920F920FB60F9211242F933F93A7
:100B30004F938F939F93EF93FF938091C00082FD1B
:100B40001CC04091C6008091B6039091B7030196F6
:100B50008F7399272091B8033091B90382179307B7
:100B600071F0E091B603F091B703EA58FC4F40836F
:100B70009093B7038093B60302C08091C600FF91A3
:100B8000EF919F918F914F913F912F910F900FBEB9
:100B90000F901F90189580E193E00E94F904892B33
:100BA00011F00C94900508951F920F920FB60F92BA
:100BB00011242F933F938F939F93EF93FF93209153
:100BC0007203309173038091740390917503281719
:100BD000390731F48091C1008F7D8093C10014C02A
:100BE000E0917403F0917503EE5CFC4F20818091DD
:100BF00074039091750301968F73992790937503F1
:100C0000809374032093C600FF91EF919F918F9181
:100C10003F912F910F900FBE0F901F901895CF927C
:100C2000DF92EF92FF92CF93DF93EC016A017B0199
:100C3000411581EE580761057105F9F0EC89FD89D0
:100C400081E090E008A002C0880F991F0A94E2F7A3
:100C5000808360E079E08DE390E0A70196010E9437
:100C60005516215031094109510956954795379537
:100C70002795211580E1380798F0EC89FD891082CD
:100C800060E874E88EE190E0A70196010E94551695
:100C900021503109410951095695479537952795B6
:100CA000E889F9893083EA89FB89208319A2EE89D2
:100CB000FF89408181E090E09C010C8C02C0220FF2
:100CC000331F0A94E2F7422B4083EE89FF8940816B
:100CD0009C010D8C02C0220F331F0A94E2F7422BB5
:100CE0004083EE89FF8940819C010E8C02C0220F57
:100CF000331F0A94E2F7422B4083EE89FF8920815B
:100D00000F8C02C0880F991F0A94E2F78095822306
:100D10008083DF91CF91FF90EF90DF90CF90089587
:100D2000109213031092120388EE93E0A0E0B0E05B
:100D30008093140390931503A0931603B0931703A5
:100D400089ED91E0909311038093100386E793E07F
:100D500090931D0380931C0382E393E090931F0301
:100D600080931E0385EC90E09093210380932003F1
:100D700084EC90E0909323038093220380EC90E036
:100D8000909325038093240381EC90E090932703B4
:100D90008093260382EC90E09093290380932803AC
:100DA00086EC90E090932B0380932A0384E0809359
:100DB0002C0383E080932D0387E080932E0385E04E
:100DC00080932F0381E08093300308950E94ED10FB
:100DD0000E947901CBECD5E00E94D5012097E1F388
:100DE0000E94CB05F9CFCF92DF92EF92FF920F9343
:100DF0001F93CF93DF936C017A01EB01E60EF71E90
:100E000000E010E0CE15DF0561F06991D601ED91AB
:100E1000FC910190F081E02DC6010995080F191F82
:100E2000F1CFC801DF91CF911F910F91FF90EF900B
:100E3000DF90CF9008956115710581F0DB010D9071
:100E40000020E9F7AD0141505109461B570BDC0169
:100E5000ED91FC910280F381E02D099480E090E017
:100E600008950C941B07DC01ED91FC910190F08139
:100E7000E02D09948F929F92AF92BF92CF92DF9212
:100E8000EF92FF920F931F93CF93DF93CDB7DEB70F
:100E9000A1970FB6F894DEBF0FBECDBF7C01C42E64
:100EA000E52FCB01D22E19A221E02D1510F02AE05A
:100EB000D22E8E010F5D1F4F8D2C912CA12CB12CA9
:100EC0006C2D7E2FA50194010E9455168C2DD29E6B
:100ED00080191124015011098A3014F4805D01C079
:100EE000895CF8018083211531054105510521F008
:100EF000C22EE32FCA01E4CFB801C7010E941B072D
:100F0000A1960FB6F894DEBF0FBECDBFDF91CF9193
:100F10001F910F91FF90EF90DF90CF90BF90AF9017
:100F20009F908F900895CF92DF92EF92FF920F9350
:100F30001F93CF93DF93EC016A017B0121153105EB
:100F400079F4E881F9810190F081E02D642FDF913F
:100F5000CF911F910F91FF90EF90DF90CF90099468
:100F60002A303105E9F477FF1AC06DE20E94330799
:100F70008C0144275527BA014C195D096E097F0978
:100F80002AE0CE010E943A07800F911FDF91CF9196
:100F90001F910F91FF90EF90DF90CF9008952AE07E
:100FA000B701A601CE01DF91CF911F910F91FF9064
:100FB000EF90DF90CF900C943A079A01AB0166272F
:100FC00057FD6095762F0C9493072115310541F458
:100FD000DC01ED91FC910190F081E02D642F0994EA
:100FE0000C943A079A01AB0160E070E00C94E507BD
:100FF0004F925F926F927F928F929F92AF92BF9229
:10100000CF92DF92EF92FF920F931F93CF93DF93D4
:10101000EC016A017B01B22E9A01AB01C701B60156
:101020000E943316882319F065EE71E027C026016F
:101030003701E89477F82FEF3FEF4FE75FE7C30101
:10104000B2010E94331681110DC02FEF3FEF4FE721
:101050005FE7C301B2010E947D1418161CF469EE0B
:1010600071E00CC02FEF3FEF4FE75FE4C701B6011F
:101070000E94CC151816ACF46DEE71E0CE01DF9134
:10108000CF911F910F91FF90EF90DF90CF90BF9085
:10109000AF909F908F907F906F905F904F900C9447
:1010A0001B072FEF3FEF4FE75FECC701B6010E9430
:1010B0007D1487FDE1CF20E030E0A901C701B60132
:1010C0000E947D1487FF0AC06DE2CE010E943307A3
:1010D0008C01F7FAF094F7F8F09402C000E010E009
:1010E000A12C60E070E080E09FE3AB1441F020E0D1
:1010F00030E040E251E40E948114A394F6CF9B01BA
:10110000AC01C701B6010E9419146B017C010E9459
:10111000EE142B013C010E941A159B01AC01C70182
:10112000B6010E9418146B017C012AE0B301A201F0
:10113000CE010E943A07080F191FBB2039F061EF5A
:1011400071E0CE010E941B07080F191F7B2C77202E
:1011500041F120E030E040E251E4C701B6010E94D5
:10116000D0156B017C010E94E9144B01AA2497FC65
:10117000A094BA2C2AE030E0B501A401CE010E946F
:101180009307080F191FC501B4010E941C159B018C
:10119000AC01C701B6010E9418146B017C017A945E
:1011A000D6CFC801DF91CF911F910F91FF90EF90A3
:1011B000DF90CF90BF90AF909F908F907F906F9077
:1011C0005F904F9008950C94F8070F931F93CF935F
:1011D000DF93EC018B01198218821A821C821B8218
:1011E0008AE08F83FE01E75FFE4F11821082FE01CD
:1011F000E55FFE4F718360836DE371E0CE0105967C
:101200000E94C5131886FE01E85FFE4F10826BE056
:1012100070E0C8010E94541299838883DF91CF91B6
:101220001F910F9108950F931F93CF93DF93EC01BC
:101230008A01AA812A2F30E0FC01E55FFE4F808100
:10124000918128173907C4F48881998148E050E0DA
:101250002BE0A29F800D911D11240E94DA138A8138
:10126000E881F9819BE0899FE00DF11D112412872F
:1012700001878A818F5F8A83DF91CF911F910F91C0
:101280000895FC01748363830895AC01475F5E4F4A
:10129000BC016B5F7F4F80E090E00C94E9132F92CC
:1012A0003F924F925F926F927F928F929F92AF92F6
:1012B000BF92CF92DF92EF92FF920F931F93CF9343
:1012C000DF9300D000D0CDB7DEB79C838B837C0149
:1012D00028EFE21A2EEFF20A875F9E4F9A838983E6
:1012E0002B803C8085E0280E311C4B805C8098E090
:1012F000490E511C80E193E00E94F904181619066A
:101300000CF067C080E193E00E942605182FAB81A6
:10131000BC8117968C91181340C049815A81B10144
:10132000C2010E94E9136C01009789F1EB81FC81F5
:101330008280912C612C712CA12CB12CA814B904A1
:10134000E4F4AB81BC810D911C91060D171D48E0A2
:1013500050E0B801C6010E94CC13BBE06B0E711CBB
:10136000892B39F4D8011996ED91FC911A970995BA
:101370000EC0BFEFAB1ABB0AE1CFAB81BC811396A5
:10138000ED91FC911497309711F0C6010995EB810E
:10139000FC811086D7011C92ADCF812F992787FD44
:1013A00090950E94A713892B09F4A4CFF70180819F
:1013B0008F3F09F49FCF91E0980F9083EB81FC81E0
:1013C000E80FF11D1087EB81FC81E90FF11D1086FC
:1013D00091CF0F900F900F900F90DF91CF911F91B1
:1013E0000F91FF90EF90DF90CF90BF90AF909F90C4
:1013F0008F907F906F905F904F903F902F900895C7
:10140000CF92DF92EF92FF926B017C0181E8C816C8
:101410008EE3D806E104F10458F080E89EE30E94D0
:10142000E21080E8C81A8EE3D80AE108F108EECF8E
:10143000C601FF90EF90DF90CF900C94E21084E013
:1014400090E008951F93CF93DF931F92CDB7DEB73F
:10145000182F1092FF061092FE061092D9031092D8
:10146000C4031092C3031092C6031092C5031092D6
:10147000C8031092C7031092CA031092C9031092B6
:10148000CE031092CD031092D0031092CF0310928E
:10149000D2031092D1031092D4031092D30310926E
:1014A000BD031092BC0320910701309108012F3F2A
:1014B0008FEF380729F0822F99830E94E50F9981D9
:1014C000109307019093080141E050E069E77CE048
:1014D000812F0F90DF91CF911F910C94C50F8091B8
:1014E0000701909108018F3F2FEF920711F00E94A2
:1014F000E50F8FEF9FEF9093080180930701109203
:10150000D90308958091BD03811103C08091BC036C
:10151000089581E008952091BD03222381F02EEDEE
:1015200033E0FC01318320838091C3039091C40395
:101530000196FB01918380831092BD030895209151
:10154000BC032223C1F04091CF035091D0039A01F4
:10155000220F331F22523C4FFC01318320838091A4
:10156000C5039091C603841B950B0196FB019183E3
:1015700080831092BC0308958091D903853031F4A3
:101580001092D9031092BD031092BC0308951092DB
:10159000BA038091D7039091D80308958091BA033C
:1015A00008952091FE063091FF06A90156954795B2
:1015B00056954795B901641B750B6817790748F470
:1015C000240F351F41E08217930708F040E0842F75
:1015D000089580E008959093FF068093FE06109290
:1015E000C4031092C3031092C6031092C503109255
:1015F000C8031092C7031092CA031092C903109235
:10160000CE031092CD031092D0031092CF0310920C
:10161000D2031092D1031092D4031092D30381E02D
:101620008093C0038093BE038093C1038093BF0364
:101630008093C2031092BD031092BC038093D90320
:1016400008950F931F93CF93DF938C01EB010E94BA
:10165000D10A882309F454C09E01220F331FF901D7
:10166000ED53FC4F40815181DA01AA0FBB1FA252FA
:10167000BC4F0D931C93CE0101964F5F5F4F880FB7
:10168000991FDC01A353BC4F4D935C93DC01AD5318
:10169000BC4F4D935C93D901A353BC4F2D913C910A
:1016A00080819181821B930B809764F08091D90394
:1016B000843021F485E08093D90347C0CE5FC09386
:1016C000D90343C031832083C130D10579F01CF4A4
:1016D000CD2BE9F03AC0C230D10561F02397A9F5CE
:1016E00081E08093C0038093BE032FC081E080938C
:1016F000C2032BC081E08093C1038093BF0325C048
:101700008091FE069091FF068017910738F4C8017A
:10171000DF91CF911F910F910C94EB0ACC0FDD1F3D
:10172000CD53DC4F888199818F3821E092075CF49A
:10173000FC01EE0FFF1FE252FC4F11830083019664
:101740009983888302C01092D903DF91CF911F91B2
:101750000F910895EF92FF920F931F93FC018081E8
:101760008823F9F017FD1DC0D801AA0FBB1FA25294
:10177000BC4F8D919C918217930718F04817590719
:1017800008F410828091D90390E022E0E20EF11C6F
:101790008E159F0531F48081882319F081E0FB01CB
:1017A00080831F910F91FF90EF900895AF92BF92A9
:1017B000CF92DF92EF92FF920F931F93CF93DF931D
:1017C0009C01220F331FF901ED53FC4FA080B18023
:1017D00041E0A41AB108F501EE0FFF1FE252FC4FE1
:1017E00040815181BA0157FF02C0695F7F4FF3E02A
:1017F00075956795FA95E1F7EA0157FD2396D5951A
:10180000C795D595C795C60FD71F6A01CC1ADD0AB3
:10181000C40FD51FF901E353FC4F20813181A21A77
:10182000B30A8230910599F08330910549F101970F
:1018300009F054C0EE24E394F12C85019601AE0129
:101840006DEB73E082EC93E00E94AA0B47C092E03C
:10185000E92EF12C85019601AE016DEB73E081EC70
:1018600093E00E94AA0B9601AE016CEB73E08FEB44
:1018700093E00E94AA0B8091D903843079F524C0AB
:101880008091C10381110CC083E0E82EF12C850109
:101890009601AE016DEB73E080EC93E00E94AA0B21
:1018A0008091BF0381110CC003E0E02EF12C850173
:1018B0009601AE016CEB73E08EEB93E00E94AA0BF5
:1018C0008091D903853051F48091BD03811106C008
:1018D0008091BC03811102C01092D903DF91CF9196
:1018E0001F910F91FF90EF90DF90CF90BF90AF903E
:1018F00008950F931F930E949910AB01BC01809132
:10190000DA039091DB03A091DC03B091DD038A013F
:101910009B01081B190B2A0B3B0BD901C80112E0D4
:10192000B695A795979587951A95D1F79093D80373
:101930008093D703E091BB03EE2319F01092BB0311
:1019400044C089319105F0F1E1E0E093BA0340939E
:10195000DA035093DB036093DC037093DD03409163
:10196000D9034230F1F050F4442399F0413069F545
:1019700060E070E01F910F910C94210B4330C1F097
:10198000443019F563E070E00E94210B83E090E0A1
:1019900015C08B3613E09107C0F01F910F910C9486
:1019A000EB0A61E070E00E94210B81E090E006C04C
:1019B00062E070E00E94210B82E090E01F910F91A5
:1019C0000C94D60B81E08093BB031F910F91089577
:1019D0002F923F924F925F926F927F928F929F923F
:1019E000AF92BF92CF92DF92EF92FF920F931F932D
:1019F000CF93DF93CDB7DEB7E0970FB6F894DEBF95
:101A00000FBECDBF4C012A01FC0188E090E011928D
:101A1000119201970097D9F7FE01319680E2DF011C
:101A20001D928A95E9F73E01B1E26B0E711C80E1CF
:101A3000D3011D928A95E9F71B01E12CF12CE414E6
:101A4000F50409F45FC05101D1014D915D911D0173
:101A5000940180E090E08901D9016D917D919D0113
:101A60006115710521F4D8014D935C9318C08B0169
:101A7000A3E016950795AA95E1F76B01D694C79454
:101A8000D694C7940C0D1D1D6B01C01AD10AC41643
:101A9000D50688F5600F711F4617570760F5D50109
:101AA0008D939C939C01220F331F220F331F2E0F07
:101AB0003F1FD901AD90BD90CD90DC901397A40E3F
:101AC000B51EC11CD11CAD92BD92CD92DC92139774
:101AD000880F991F8E0F9F1FDC0190962D913C91CE
:101AE00091972F5F3F4F91963C932E9390978FEF56
:101AF000E81AF80AA4CF01968830910509F0ABCF17
:101B000080E022C07F016E01B1E3CB0ED11C8401C5
:101B1000F301219131913F012115310561F040E040
:101B200050E0D7016D917D918D919C910E94551649
:101B3000F80131832083F4E0EF0EF11C0E5F1F4F9C
:101B40006C147D0429F781E0E0960FB6F894DEBFAF
:101B50000FBECDBFDF91CF911F910F91FF90EF90FE
:101B6000DF90CF90BF90AF909F908F907F906F90BD
:101B70005F904F903F902F9008958F929F92AF92D9
:101B8000BF92CF92DF92EF92FF92809107019091E6
:101B900008010196D9F1812C912C54018091D9032F
:101BA000823028F4809107010E94E50F2FC0853014
:101BB000C9F37501640185E0C80ED11CE11CF11C5C
:101BC00063E070E080E090E00E94000A21E4C21629
:101BD0002BE4D2062CE4E206F10420F78091D9032D
:101BE000823010F0853079F47501640185E4C80E07
:101BF00082E4D81E8FE0E81EF11C60E472E48FE0FE
:101C000090E00E94000A46015701C8CF8091BD03B1
:101C1000811104C08091BC03882319F085E0809372
:101C2000D903FF90EF90DF90CF90BF90AF909F903F
:101C30008F90089580910701909108018F3F2FEFB9
:101C4000920731F041E050E069E77CE00C94C50F69
:101C500008955F926F927F928F929F92AF92BF9200
:101C6000CF92DF92EF92FF920F931F93CF93DF9368
:101C7000582E4B018A0159010E94BD0DE8010990BF
:101C80000020E9F72197C01BD10B61E0852D0E9450
:101C90006104C12CD12CC00FD11F60E0852DCA1466
:101CA000DB0421F10E949A047801612C712CEC165E
:101CB000FD06C1F081E06826662D852D0E949A04FC
:101CC000F70181917F01F40194E08902E00DF11D9B
:101CD0001124E05CF10960817181828193810E940D
:101CE000000AE5CFEFEFCE1ADE0AD7CF0E949A04A2
:101CF000DF91CF911F910F91FF90EF90DF90CF90E8
:101D0000BF90AF909F908F907F906F905F900C945A
:101D10001A0E6F927F928F929F92AF92BF92CF9244
:101D2000DF92EF92FF920F931F93CF93DF931F9257
:101D3000CDB7DEB73C01B62EFC01108611861286A7
:101D40001386148661E08B2D49830E94610460E054
:101D50008B2D0E949A044981642F70E080E090E00E
:101D60000E94BC1061E08B2D0E949A0488E290E0F2
:101D70000E94E21060E08B2D0E94610400E911E0F6
:101D80008B2D0E94D004892B41F4015011090115BB
:101D90001105B1F78EEF9FEF52C000E911E08B2DD6
:101DA0000E94D004019731F4015011090115110569
:101DB000B1F7F0CF98E2992E812C20E8A22E00E90D
:101DC00011E08B2D0E94D004892B31F401501109B0
:101DD00001151105B1F7DECF0E9499106B017C014E
:101DE00000E911E08B2D0E94D004019731F40150DD
:101DF000110901151105B1F7CDCF0E9499106C1989
:101E00007D098E099F09693271058105910530F0C0
:101E1000F301E80DF11D80858A298087A69419F4C5
:101E2000839480E8A82E9A9451F661E08B2D0E944D
:101E3000610461E08B2D0E949A0480E090E00F9095
:101E4000DF91CF911F910F91FF90EF90DF90CF9096
:101E5000BF90AF909F908F907F906F9008950F9359
:101E60001F93CF93DF93EC0142E10E94890E00970C
:101E700069F040E050EC69E774EC488359836A8369
:101E80007B834C835D836E837F8321C01885612FA4
:101E900070E080E090E00E941A15688379838A835D
:101EA0009B830A85602F70E080E090E00E941A1505
:101EB0006C837D838E839F83100F81E090E02C855F
:101EC000211302C080E090E0919581959109DF9106
:101ED000CF911F910F910895CF93DF93EC0141E0D3
:101EE0000E94890E009769F040E050EC69E774ECBD
:101EF000488359836A837B834C835D836E837F83AE
:101F000041C0698588850E944F12BC0180E090E045
:101F10000E941A152DEC3CEC4CEC5DE30E94D015B0
:101F2000688379838A839B838A856B858F770E94F8
:101F30004F12BC0180E090E00E941A152DEC3CECA1
:101F40004CEC5DE30E94D0156C837D838E839F8370
:101F50003A8537FF07C0DC01CB01B0588C839D83E5
:101F6000AE83BF832885230F8985280F8B85280F93
:101F700081E090E03C85321302C080E090E09195D2
:101F800081959109DF91CF9108958230E8F4E82F8F
:101F9000F0E0EE0FFF1FE050F94F71836083813056
:101FA00041F0809169008C7F842B80936900E89ACE
:101FB000089580916900440F551F440F551F837F7A
:101FC000842B80936900E99A0895823068F4813007
:101FD00011F0E89801C0E998E82FF0E0EE0FFF1F3C
:101FE000E050F94F1182108208951F920F920FB6A0
:101FF0000F9211242F933F934F935F936F937F938F
:102000008F939F93AF93BF93EF93FF9380910007BC
:1020100090910107892B29F0E0910007F0910107C9
:102020000995FF91EF91BF91AF919F918F917F9112
:102030006F915F914F913F912F910F900FBE0F9035
:102040001F9018951F920F920FB60F9211242F9385
:102050003F934F935F936F937F938F939F93AF9330
:10206000BF93EF93FF938091020790910307892B11
:1020700029F0E0910207F09103070995FF91EF9194
:10208000BF91AF919F918F917F916F915F914F9190
:102090003F912F910F900FBE0F901F9018951F9298
:1020A0000F920FB60F9211242F933F938F939F930C
:1020B000AF93BF938091050790910607A091070702
:1020C000B09108073091040723E0230F2D3720F447
:1020D0000196A11DB11D05C026E8230F0296A11D82
:1020E000B11D209304078093050790930607A093E2
:1020F0000707B09308078091090790910A07A091FC
:102100000B07B0910C070196A11DB11D8093090723
:1021100090930A07A0930B07B0930C07BF91AF9160
:102120009F918F913F912F910F900FBE0F901F9015
:1021300018953FB7F8948091090790910A07A091EC
:102140000B07B0910C0726B5A89B05C02F3F19F0CF
:102150000196A11DB11D3FBF6627782F892F9A2FA9
:10216000620F711D811D911D42E0660F771F881F50
:10217000991F4A95D1F70895CF92DF92EF92FF927F
:10218000CF93DF936B017C010E949910EB01C11486
:10219000D104E104F10479F00E9499106C1B7D0BCD
:1021A000683E7340A0F381E0C81AD108E108F10845
:1021B000C851DC4FECCFDF91CF91FF90EF90DF90D3
:1021C000CF9008950197009739F0880F991F880FD5
:1021D000991F02970197F1F70895789484B582606A
:1021E00084BD84B5816084BD85B5826085BD85B5BB
:1021F000816085BDEEE6F0E0808181608083E1E86A
:10220000F0E01082808182608083808181608083A1
:10221000E0E8F0E0808181608083E1EBF0E08081A4
:1022200084608083E0EBF0E0808181608083EAE776
:10223000F0E08081846080838081826080838081FF
:10224000816080838081806880831092C1000895BE
:10225000CF93DF938230910510F482E090E0E0911B
:102260000F07F091100720E030E0A0E0B0E03097D9
:1022700039F14081518148175907B8F0481759077B
:1022800071F482819381109729F013969C938E9319
:1022900012972CC09093100780930F0727C0211529
:1022A000310531F04217530718F0A901DB0101C0D5
:1022B000EF019A01BD01DF010280F381E02DD7CF4C
:1022C00021153105F9F0281B390B2430310580F434
:1022D0008A819B816115710521F0FB0193838283C3
:1022E00004C09093100780930F07FE01329644C0FC
:1022F000FE01E20FF31F819391932250310939833C
:1023000028833AC020910D0730910E07232B41F40A
:1023100020910B0130910C0130930E0720930D0793
:102320002091090130910A012115310541F42DB7A1
:102330003EB740910D0150910E01241B350BE091E9
:102340000D07F0910E07E217F307A0F42E1B3F0BC9
:102350002817390778F0AC014E5F5F4F2417350717
:1023600048F04E0F5F1F50930E0740930D07819367
:10237000919302C0E0E0F0E0CF01DF91CF910895AA
:10238000CF93DF93009709F487C0FC013297138243
:102390001282C0910F07D0911007209781F42081FD
:1023A0003181280F391F80910D0790910E078217F8
:1023B000930779F5F0930E07E0930D076DC0DE01EA
:1023C00020E030E0AE17BF0750F412964D915C91BB
:1023D00013979D014115510509F1DA01F3CFB3833C
:1023E000A28340815181840F951F8A179B0771F446
:1023F0008D919C911197840F951F029691838083F4
:1024000012968D919C9113979383828321153105A8
:1024100029F4F0931007E0930F073EC0D9011396FB
:10242000FC93EE9312974D915D91A40FB51FEA179F
:10243000FB0779F480819181840F951F0296D90161
:1024400011969C938E938281938113969C938E9385
:102450001297E0E0F0E08A819B81009719F0FE017D
:10246000EC01F9CFCE01029628813981820F931FAA
:1024700020910D0730910E072817390769F430971E
:1024800029F41092100710920F0702C013821282D3
:10249000D0930E07C0930D07DF91CF91089570E0A0
:1024A0009B01382BC90108950F931F93CF93DF939E
:1024B000869F8001879F100D969F100D1124C801E3
:1024C0000E942811EC01009729F0A80160E070E05B
:1024D0000E94B513CE01DF91CF911F910F91089506
:1024E0002F923F925F926F927F928F929F92AF92C4
:1024F000BF92CF92DF92EF92FF920F931F93CF93F1
:10250000DF938B01EA016115710521F0DB018C93EA
:1025100011969C93209739F09E0122503109233265
:10252000310508F0D8C07C016701BFEFCB1ADB0A88
:102530005601F7016080862D90E00E94AD13892B33
:1025400011F07601F1CFFDE26F120AC0570182E06F
:10255000A80EB11CD70111966C90772473940BC010
:10256000BBE26B1207C05701E2E0AE0EB11CD7010F
:1025700011966C90712CCE018F7E892B89F4B0E37B
:102580006B1237C0F50180818F7D8835D1F4618071
:10259000F2E0AF0EB11C872D8260782EC0E1D0E052
:1025A000CA30D10551F1C031D10521F0C830D10573
:1025B00099F409C0CC24CA94DC2CEC2CAFE0FA2EA0
:1025C00022C0209769F7C8E0D0E0CC24CA94DC2C64
:1025D000EC2CFFE1FF2E17C06FEF7FEFCB019E01C8
:1025E000442737FD4095542F0E94551669017A0102
:1025F0000AC02097A9F6CAE0D0E0E9E9CE2EDC2C8B
:10260000EC2CE9E1FE2EF50160E020E030E0A901CC
:102610004E01AA2497FCA094BA2C1F0170ED572EEE
:10262000560CA9E0A51570F48FEB860D8A3118F4CD
:1026300099EC592E06C08FE9860D8A3148F589EA52
:10264000582E560C852D90E08C179D070CF56F3F8A
:10265000D9F0C216D306E406F50698F0C501B40118
:102660000E9445169B01AC01852D90E0A0E0B0E0F2
:10267000280F391F4A1F5B1F281739074A075B07B6
:1026800010F46FEF01C061E03196D1016C90C5CFBD
:102690000115110551F0662311F0319703C071FE49
:1026A00004C03297D801ED93FC9370FE07C050959B
:1026B0004095309521953F4F4F4F5F4F67FF10C0BA
:1026C00082E290E090931207809311076FEF7FEF03
:1026D0008FEF9FEF07C060E070E080E090E002C005
:1026E000B901CA01DF91CF911F910F91FF90EF9037
:1026F000DF90CF90BF90AF909F908F907F906F9022
:102700005F903F902F900895FC0188279927E894C7
:1027100021912032E9F3293010F02E30C8F32B320A
:1027200041F02D3239F4689404C00E941014820FD5
:10273000911D219120532A30C0F31EF4909581956C
:102740009F4F0895F8940C948C16803209F09111E3
:102750008EC280528F55E0F70895911188C2803261
:1027600019F089508550D0F70895DC0101C06D93B0
:1027700041505040E0F70895FB01DC018D9101903C
:1027800080190110D9F3990B0895FB01DC01019028
:102790000D920020E1F70895FB01DC01415050400B
:1027A00030F08D910190801919F40020B9F7881B41
:1027B000990B0895FB01DC014150504048F0019015
:1027C0000D920020C9F701C01D9241505040E0F722
:1027D0000895FA01A191B081009719F41097E1F0E2
:1027E000CD01DC01CD010D90002011F4C00113C01A
:1027F000FB012191222319F02015D9F7F3CFFB011A
:102800002191201519F41E92119606C02223C1F7BA
:102810000D900020A1F7D001FA01A193B083089593
:102820007AE0979F902D879F802D910D1124089518
:102830005058BB27AA270ED075C166D130F06BD196
:1028400020F031F49F3F11F41EF45BC10EF4E095CB
:10285000E7FB51C1E92F77D180F3BA1762077307FD
:102860008407950718F071F49EF58FC10EF4E0957A
:102870000B2EBA2FA02D0B01B90190010C01CA013A
:10288000A0011124FF27591B99F0593F50F4503EE5
:1028900068F11A16F040A22F232F342F4427585FD7
:1028A000F3CF469537952795A795F0405395C9F7EF
:1028B0007EF41F16BA0B620B730B840BBAF09150A7
:1028C000A1F0FF0FBB1F661F771F881FC2F70EC046
:1028D000BA0F621F731F841F48F487957795679519
:1028E000B795F7959E3F08F0B3CF9395880F08F002
:1028F0009927EE0F979587950895D9D008F481E030
:1029000008950CD00FC107D140F0FED030F021F473
:102910005F3F19F0F0C0511139C1F3C014D198F3E1
:102920009923C9F35523B1F3951B550BBB27AA2750
:1029300062177307840738F09F5F5F4F220F331FC2
:10294000441FAA1FA9F333D00E2E3AF0E0E830D08E
:1029500091505040E695001CCAF729D0FE2F27D091
:10296000660F771F881FBB1F261737074807AB075F
:10297000B0E809F0BB0B802DBF01FF2793585F4FD4
:102980002AF09E3F510568F0B6C000C15F3FECF3EE
:10299000983EDCF3869577956795B795F7959F5F99
:1029A000C9F7880F911D9695879597F90895E1E0ED
:1029B000660F771F881FBB1F621773078407BA074C
:1029C00020F0621B730B840BBA0BEE1F88F7E095A7
:1029D000089504D06894B111D9C00895BCD088F08E
:1029E0009F5790F0B92F9927B751A0F0D1F0660FFB
:1029F000771F881F991F1AF0BA95C9F712C0B13016
:102A000081F0C3D0B1E00895C0C0672F782F882728
:102A1000B85F39F0B93FCCF3869577956795B39554
:102A2000D9F73EF490958095709561957F4F8F4FC3
:102A30009F4F0895E89409C097FB3EF490958095C8
:102A4000709561957F4F8F4F9F4F9923A9F0F92F74
:102A500096E9BB279395F695879577956795B795F2
:102A6000F111F8CFFAF4BB0F11F460FF1BC06F5FD8
:102A70007F4F8F4F9F4F16C0882311F096E911C0EA
:102A8000772321F09EE8872F762F05C0662371F00B
:102A900096E8862F70E060E02AF09A95660F771F1F
:102AA000881FDAF7880F9695879597F90895990FFB
:102AB0000008550FAA0BE0E8FEEF16161706E80708
:102AC000F907C0F012161306E407F50798F0621B29
:102AD000730B840B950B39F40A2661F0232B242BFE
:102AE000252B21F408950A2609F4A140A6958FEF1D
:102AF000811D811D089597F99F6780E870E060E06F
:102B000008959FEF80EC089500240A941616170686
:102B100018060906089500240A94121613061406CE
:102B200005060895092E0394000C11F4882352F031
:102B3000BB0F40F4BF2B11F460FF04C06F5F7F4FE9
:102B40008F4F9F4F089557FD9058440F551F59F0D0
:102B50005F3F71F04795880F97FB991F61F09F3F8A
:102B600079F087950895121613061406551FF2CFB3
:102B70004695F1DF08C0161617061806991FF1CF03
:102B800086957105610508940895E894BB2766272A
:102B90007727CB0197F908958ADF08F48FEF08951E
:102BA0000BD0C0CFB1DF28F0B6DF18F0952309F0C5
:102BB000A2CFA7CF1124EACFC6DFA0F3959FD1F310
:102BC000950F50E0551F629FF001729FBB27F00DDB
:102BD000B11D639FAA27F00DB11DAA1F649F662730
:102BE000B00DA11D661F829F2227B00DA11D621F7F
:102BF000739FB00DA11D621F839FA00D611D221F39
:102C0000749F3327A00D611D231F849F600D211D1C
:102C1000822F762F6A2F11249F5750408AF0E1F0BF
:102C200088234AF0EE0FFF1FBB1F661F771F881F08
:102C300091505040A9F79E3F510570F05CCFA6CF50
:102C40005F3FECF3983EDCF3869577956795B795F3
:102C5000F795E7959F5FC1F7FE2B880F911D96951D
:102C6000879597F9089523DF880B990B0895992785
:102C7000882708950E947716A59F900DB49F900D08
:102C8000A49F800D911D11240895DB018F939F93C4
:102C90000E943A16BF91AF91A29F800D911DA39FF4
:102CA000900DB29F900D11240895A1E21A2EAA1B37
:102CB000BB1BFD010DC0AA1FBB1FEE1FFF1FA217EC
:102CC000B307E407F50720F0A21BB30BE40BF50BE9
:102CD000661F771F881F991F1A9469F76095709572
:102CE000809590959B01AC01BD01CF010895A29FF5
:102CF000B001B39FC001A39F700D811D1124911DD0
:102D0000B29F700D811D1124911D0895EE0FFF1FBC
:0C2D10000590F491E02D0994F894FFCF99
:102D1C0001000000FFFF01FFFF00001307800045CA
:102D2C00525220756E6B6E6F776E5F636F6D6D6157
:102D3C006E640D0A007265616479206172642D30D5
:102D4C002E302E310D0A0050494E47002C200052D7
:102D5C0046207265636569766520004452004457CD
:102D6C0000415200415700504D0052460044485417
:102D7C000052455345540045525220617267756D9F
:102D8C00656E745F6572726F720D0A0041434B0D74
:102D9C000A0073656E64007265636569766500721E
:102DAC0061770041434B20004552522063686563B4
:102DBC006B73756D5F6572726F720D0A00455252BE
:102DCC002074696D656F75745F6572726F720D0A30
:102DDC000045525220756E6B6E6F776E5F65727226
:102DEC006F720D0A00000000005305F306F904266B
:102DFC00050B0548056E616E00696E66006F7666A0
:042E0C00002E000094
:00000001FF
