:100000000C9491010C9419140C9446140C947314D0
:100010000C94A0140C94B9010C94B9010C94CD1457
:100020000C94B9010C94B9010C946C0C0C941E0B3B
:100030000C94B9010C94B9010C94B9010C94B90158
:100040000C94B9010C94B9010C94B9010C94B90148
:100050000C94B9010C94B9010C94B9010C94FA14E4
:100060000C94B9010C94B9010C94B9010C94B90128
:100070000C94B9010C94B9010C94B9010C94B90118
:100080000C94B9010C94B9010C94B9010C94B90108
:100090000C94B9010C94B9010C94B9010C94B901F8
:1000A0000C94B9010C94B9010C94B90129052E05E1
:1000B00033053D05870587058705470551055B0520
:1000C0006505720587057A05A405A7059A059E05AD
:1000D000C805C805C805AB05AF05B305B905BD051D
:1000E000C805C305070605040100080A0B0C0D0925
:1000F0000000000200080E0000030401000B0000D5
:1001000000000000000000000000000000000408E3
:10011000020110408040102040804080080204010D
:10012000804020100201108010204040040404048C
:10013000040304050202020204030202020206068C
:100140000606060604040202020400000000230062
:10015000260029002C002F000000000025002800A8
:100160002B002E00310000000000240027002A0090
:100170002D003000080B00020202010009040000FB
:100180000102020000052400100105240101010400
:10019000240206052406000107058103100040091A
:1001A000040100020A0000000705020240000007E7
:1001B00005830240000000C18081C11201000202DB
:1001C00000004041233680000101020001120100BD
:1001D00002000000404123368000010102000118A6
:1001E00003410072006400750069006E006F00201A
:1001F000004C004C00430022034100720064007573
:100200000069006E006F0020004C0065006F006EFA
:10021000006100720064006F000403090400000024
:1002200000000000002A2B28000000000000000051
:10023000000000000000000000000000002C9EB440
:10024000A0A1A2A434A6A7A5AE362D3738271E1F1D
:1002500020212223242526B333B62EB7B89F8485C8
:10026000868788898A8B8C8D8E8F909192939495B6
:10027000969798999A9B9C9D2F3130A3AD35040594
:10028000060708090A0B0C0D0E0F10111213141596
:10029000161718191A1B1C1DAFB1B0B500090402BE
:1002A000000103000000092101010001226500078F
:1002B00005840340000105010902A1010901A10013
:1002C000850105091901290315002501950375010B
:1002D000810295017505810305010930093109384D
:1002E0001581257F750895038106C0C005010906A3
:1002F000A1018502050719E029E71500250175010F
:100300009508810295017508810395067508150009
:1003100025650507190029658100C0007603590786
:100320004B1811241FBECFEFDAE0DEBFCDBF12E0C5
:10033000A0E0B1E0EEE2F9E302C005900D92AE302C
:10034000B107D9F717E0AEE0B2E001C01D92A13DC0
:10035000B107E1F713E0C2E2D3E004C02297FE0147
:100360000E94821CCC31D107C9F70E9470070C94FF
:10037000AB190C94000069E171E08AE293E00C94FF
:10038000BF070E94550E6FE271E08AE293E00C9481
:10039000BF0760E072EC8AE293E00E9458074FE8E2
:1003A00054E061E471E08DE192E00E94F90C46E1D5
:1003B00053E064E471E08DE192E00E94F90C40EFBB
:1003C00052E067E471E08DE192E00E94F90C46E3AF
:1003D00053E06AE471E08DE192E00E94F90C46E599
:1003E00053E06DE471E08DE192E00E94F90C43EC82
:1003F00052E060E571E08DE192E00E94F90C41EB82
:1004000054E063E571E08DE192E00E94F90C4EE268
:1004100054E068E571E08DE192E00E94F90C41EC56
:1004200051E06CE571E08DE192E00E94F90C6BEB1C
:1004300071E08DE192E00E94270D6FE271E08AE2A7
:1004400093E00C94BF0762E671E08AE293E00C94BB
:10045000BF078DE192E00E942B0D009711F40C94E0
:1004600023020E948D190E94080E81E080931C02D5
:1004700067E771E08AE293E00C94BF078DE192E0B8
:100480000E942B0D009711F40C9423020E948D19E9
:1004900090930501809304010E94080E10921C02A3
:1004A00067E771E08AE293E00C94BF078F929F9216
:1004B000AF92BF92CF92DF92EF92FF920F931F9372
:1004C000CF93DF93CDB7DEB7A0970FB6F894DEBF1A
:1004D0000FBECDBF8DE192E00E942B0D009719F465
:1004E0000E9423023DC00E948D197C018DE192E0A3
:1004F0000E942B0D0097A1F30E948D196C018E01B3
:100500000F5F1F4F5E0181E2A80EB11C48018DE113
:1005100092E00E942B0D009719F34AE050E060E052
:1005200070E00E947918F80161937193819391931F
:100530008F01EA15FB0559F78DE192E00E942B0D22
:10054000009771F29601AC01B401C7010E940F122D
:1005500010921C0267E771E08AE293E00E94BF07F5
:10056000A0960FB6F894DEBF0FBECDBFDF91CF913E
:100570001F910F91FF90EF90DF90CF90BF90AF90C1
:100580009F908F900895CF93DF938DE192E00E942A
:100590002B0DEC01009721F4DF91CF910C942302F5
:1005A0006DE771E00E94C519892B21F4DF91CF918D
:1005B0000C94560262E871E0CE010E94C519892BA5
:1005C00021F4DF91CF910C943E026AE871E0CE01F4
:1005D0000E94C519892B01F7DF91CF910C94290254
:1005E000CF93DF938DE192E00E942B0D009721F4D1
:1005F000DF91CF910C9423020E948D190E94D204A6
:10060000EC016EE871E08AE293E00E94BF074AE0E5
:1006100050E0BE018AE293E00E946B086EE371E055
:100620008AE293E0DF91CF910C94BF07CF938DE1E5
:1006300092E00E942B0D009719F4CF910C942302A5
:100640000E948D19C82F8DE192E00E942B0D00971A
:10065000A1F30E948D19682F8C2F0E94020667E774
:1006600071E08AE293E0CF910C94BF07CF938DE1C4
:1006700092E00E942B0D009719F4CF910C94230265
:100680000E948D19C82F8DE192E00E942B0D0097DA
:10069000A1F30E948D19BC018C2F0E94030567E70E
:1006A00071E08AE293E0CF910C94BF07CF938DE184
:1006B00092E00E942B0D009719F4CF910C94230225
:1006C0000E948D19C82F8DE192E00E942B0D00979A
:1006D000A1F30E948D19682F8C2F0E94C90567E72E
:1006E00071E08AE293E0CF910C94BF0760E170E083
:1006F0008DE192E00C94CB0CCF92DF92EF92FF92BF
:100700000F931F93CF93DF93CDB7DEB764970FB6E8
:10071000F894DEBF0FBECDBF80911C02882369F123
:100720000E94B40E882309F484C00E94AD0E8C018F
:100730000E94050E809FB001819F700D909F700DEB
:1007400011244AE050E08AE293E00E94800863E9C5
:1007500071E08AE293E00E94BF0780910E028F5FF2
:1007600080930E02803108F464C010920E026AE099
:100770008AE293E00E94D1065CC00E94680E882342
:1007800009F457C07E0181E1E80EF11CB701CE01EA
:1007900043960E94710E0E94050E6C0149895A8988
:1007A0006B897C89CE0101960E94CE1066E971E0CA
:1007B0008AE293E00E94BF078E010F5F1F4FF8018E
:1007C000819191918F018C9DA0018D9D500D9C9DDB
:1007D000500D112460E070E02AE030E08AE293E0FE
:1007E0000E94730860E28AE293E00E94D1060E152F
:1007F0001F0529F700E010E089899A890817190771
:1008000080F4C801880F991FEB89FC89E80FF91F54
:100810006081605D8AE293E00E94D1060F5F1F4F06
:10082000EBCF6EE371E08AE293E00E94BF070E9483
:10083000A20E64960FB6F894DEBF0FBECDBFDF9157
:10084000CF911F910F91FF90EF90DF90CF9008957F
:100850008DE192E00E94350D0C947C03CF93DF93E1
:100860008DE192E00E942B0D009721F4DF91CF9152
:100870000C9423020E948D19EC018DE192E00E94FC
:100880002B0D009799F30E948D19682F8FE092E04D
:100890002B9719F40E94151302C00E9452138F3F28
:1008A0002FEF920789F1009729F0029681F567EB07
:1008B00071E02FC06EE871E08AE293E00E94BF070A
:1008C000409113025091140260911502709116022A
:1008D00021E030E08AE293E00E94710960E28AE25E
:1008E00093E00E94D10640910F0250911002609156
:1008F00011027091120221E030E08AE293E00E943E
:1009000071096EE371E005C062EA71E002C06BEC50
:1009100071E08AE293E0DF91CF910C94BF07CF930F
:100920008DE192E00E942B0D009719F4CF910C9469
:1009300023020E948D190E943806C82F6EE871E0CC
:100940008AE293E00E94BF0760E36C0F8AE293E0C3
:100950000E94D1066EE371E08AE293E0CF910C949D
:10096000BF07CF93DF9363E571E08AE293E00E94D3
:10097000BF078DE192E00E942B0DEC01009751F032
:1009800060E28AE293E00E94D106BE018AE293E02F
:100990000E94BF076EE371E08AE293E0DF91CF919E
:1009A0000C94BF07823108F08251E82FF0E0EC513F
:1009B000FF4FE49180917B00E3FB222720F930E098
:1009C00095E0220F331F9A95E1F78F7D822B80935C
:1009D0007B00E7708091060120E4829FC001112412
:1009E000E82BE0937C0080917A00806480937A0009
:1009F00080917A0086FDFCCF80917800209179006B
:100A000090E0922B08951F93CF93DF93182FEB0163
:100A100061E00E94C905209711F460E004C0CF3F57
:100A2000D10539F461E0812FDF91CF911F910C94B2
:100A30000206E12FF0E0E051FF4F449150E0FA014F
:100A40003197EE30F10508F062C0EA5AFF4F0C947E
:100A5000801C84B5806884BDC7BD5EC084B58062DB
:100A600084BDC8BD59C0809180008068809380009B
:100A7000D0938900C09388004FC08091800080622D
:100A800080938000D0938B00C0938A0045C08091F2
:100A90009000806880939000D0939900C093980054
:100AA0003BC080919000806280939000D0939B0027
:100AB000C0939A0031C0809190008860809390002C
:100AC000D0939D00C0939C0027C08091C000806897
:100AD0008093C0008091C0008F7B8093C000C09342
:100AE000CF001AC08091C00080628093C000C09384
:100AF000D00012C08091C20088608093C2008091B3
:100B0000C2008B7F8093C200C093D20005C0C03862
:100B1000D1050CF087CF81CFDF91CF911F91089540
:100B200090E0FC013197EE30F10590F5EC59FF4F64
:100B30000C94801C809180008F7703C0809180008E
:100B40008F7D80938000089584B58F7702C084B52F
:100B50008F7D84BD0895809190008F7707C080912C
:100B600090008F7D03C080919000877F80939000DC
:100B700008958091C0008F7703C08091C0008F7D61
:100B80008093C00008958091C200877F8093C20047
:100B90000895CF93DF9390E0FC01E25FFE4F249134
:100BA000FC01E45DFE4F8491882349F190E0880FB9
:100BB000991FFC01EA59FE4FA591B491885A9E4FA6
:100BC000FC01C591D4919FB7611108C0F8948C9134
:100BD000209582238C93888182230AC0623051F44D
:100BE000F8948C91322F309583238C938881822BBB
:100BF000888304C0F8948C91822B8C939FBFDF91E3
:100C0000CF9108950F931F93CF93DF931F92CDB78A
:100C1000DEB7282F30E0F901E051FF4F8491F90150
:100C2000E25FFE4F1491F901E45DFE4F0491002351
:100C3000C9F0882321F069830E9490056981E02F23
:100C4000F0E0EE0FFF1FE85AFE4FA591B4919FB759
:100C5000F8948C91611103C01095812301C0812B00
:100C60008C939FBF0F90DF91CF911F910F910895AB
:100C7000CF93DF93282F30E0F901E051FF4F8491AB
:100C8000F901E25FFE4FD491F901E45DFE4FC4919A
:100C9000CC2391F081110E949005EC2FF0E0EE0F33
:100CA000FF1FE65BFE4FA591B4912C912D2381E0AF
:100CB00090E021F480E002C080E090E0DF91CF91ED
:100CC0000895809178039091790320917A0330916F
:100CD0007B03821B930B8F739927089520917803D0
:100CE0003091790380917A0390917B03281739071B
:100CF00049F0E0917A03F0917B03E85CFC4F80813E
:100D000090E008958FEF9FEF089520917803309140
:100D1000790380917A0390917B0328173907A9F012
:100D2000E0917A03F0917B03E85CFC4F8081209195
:100D30007A0330917B032F5F3F4F2F73332730931C
:100D40007B0320937A0390E008958FEF9FEF08953F
:100D5000CF93DF93C0917803D09179032196CF731D
:100D6000DD2780917A0390917B03C817D90799F00A
:100D700082E00E94E0098F3F2FEF920761F0E0913F
:100D80007803F0917903E85CFC4F8083D09379037A
:100D9000C0937803DFCFDF91CF91089583E00C9467
:100DA000440C0F931F93CF93DF931F92CDB7DEB701
:100DB0008C01698380910E01882359F041E050E055
:100DC000BE016F5F7F4F83E00E94110A181619065B
:100DD0003CF081E090E0F8019383828380E090E032
:100DE0000F90DF91CF911F910F910895FC01208109
:100DF0002E5F208342E450E064E771E080E80C94C9
:100E0000AC0AFC0181819081913A59F4813209F058
:100E10004BC047E050E067E071E080E00E94AC0A20
:100E200045C0913209F040C0803239F467E070E08B
:100E300087E091E00E94F00A39C0823209F034C0A4
:100E4000828180930E018091070190910801A09109
:100E50000901B0910A01803B9440A105B10531F52B
:100E600080910E0180FD12C087E797E790930108FB
:100E7000809300082BE088E190E00FB6F894A895E5
:100E8000809360000FBE2093600010C088E10FB611
:100E9000F89480936000109260000FBEA8951092A5
:100EA00001081092000802C080E0089581E00895D2
:100EB000089510922D0310922C0388EE93E0A0E089
:100EC000B0E080932E0390932F03A0933003B09350
:100ED000310383EE91E090932B0380932A030895CE
:100EE0000E9498158CE793E00E944E0C0E94C90165
:100EF000C0E0D0E00E9428042097E1F30E940000A7
:100F0000F9CFCF92DF92EF92FF920F931F93CF937F
:100F1000DF936C017A01EB01E60EF71E00E010E0B2
:100F2000CE15DF0561F06991D601ED91FC9101903C
:100F3000F081E02DC6010995080F191FF1CFC801F6
:100F4000DF91CF911F910F91FF90EF90DF90CF90A5
:100F500008956115710581F0DB010D900020E9F71E
:100F6000AD0141505109461B570BDC01ED91FC913D
:100F70000280F381E02D099480E090E008950C94C4
:100F8000A907DC01ED91FC910190F081E02D09941D
:100F90008F929F92AF92BF92CF92DF92EF92FF9289
:100FA0000F931F93CF93DF93CDB7DEB7A1970FB603
:100FB000F894DEBF0FBECDBF7C01C42EE52FCB0160
:100FC000D22E19A221E02D1510F02AE0D22E8E018A
:100FD0000F5D1F4F8D2C912CA12CB12C6C2D7E2FD1
:100FE000A50194010E945E1C8C2DD29E80191124B3
:100FF000015011098A3014F4805D01C0895CF80148
:101000008083211531054105510521F0C22EE32FC2
:10101000CA01E4CFB801C7010E94A907A1960FB683
:10102000F894DEBF0FBECDBFDF91CF911F910F911E
:10103000FF90EF90DF90CF90BF90AF909F908F90F8
:101040000895CF92DF92EF92FF920F931F93CF9369
:10105000DF93EC016A017B012115310579F4E88108
:10106000F9810190F081E02D642FDF91CF911F91E4
:101070000F91FF90EF90DF90CF9009942A303105C7
:10108000E9F477FF1AC06DE20E94C1078C01442782
:101090005527BA014C195D096E097F092AE0CE0176
:1010A0000E94C807800F911FDF91CF911F910F9170
:1010B000FF90EF90DF90CF9008952AE0B701A6014E
:1010C000CE01DF91CF911F910F91FF90EF90DF90B4
:1010D000CF900C94C8079A01AB01662757FD609525
:1010E000762F0C9421082115310541F4DC01ED9196
:1010F000FC910190F081E02D642F09940C94C807B5
:101100009A01AB0160E070E00C9473084F925F921B
:101110006F927F928F929F92AF92BF92CF92DF9207
:10112000EF92FF920F931F93CF93DF93EC016A012D
:101130007B01B22E9A01AB01C701B6010E943C1C93
:10114000882319F061EF71E027C026013701E89488
:1011500077F82FEF3FEF4FE75FE7C301B2010E943F
:101160003C1C81110DC02FEF3FEF4FE75FE7C3013C
:10117000B2010E94861A18161CF465EF71E00CC0CB
:101180002FEF3FEF4FE75FE4C701B6010E94D51B89
:101190001816ACF469EF71E0CE01DF91CF911F9189
:1011A0000F91FF90EF90DF90CF90BF90AF909F9006
:1011B0008F907F906F905F904F900C94A9072FEFC6
:1011C0003FEF4FE75FECC701B6010E94861A87FD2B
:1011D000E1CF20E030E0A901C701B6010E94861AE4
:1011E00087FF0AC06DE2CE010E94C1078C01F7FAA9
:1011F000F094F7F8F09402C000E010E0A12C60E059
:1012000070E080E09FE3AB1441F020E030E040E28A
:1012100051E40E948A1AA394F6CF9B01AC01C70146
:10122000B6010E94221A6B017C010E94F71A2B0161
:101230003C010E94231B9B01AC01C701B6010E9427
:10124000211A6B017C012AE0B301A201CE010E94A8
:10125000C807080F191FBB2039F06DEF71E0CE01F0
:101260000E94A907080F191F7B2C772041F120E06D
:1012700030E040E251E4C701B6010E94D91B6B0186
:101280007C010E94F21A4B01AA2497FCA094BA2C6C
:101290002AE030E0B501A401CE010E942108080F28
:1012A000191FC501B4010E94251B9B01AC01C70198
:1012B000B6010E94211A6B017C017A94D6CFC80135
:1012C000DF91CF911F910F91FF90EF90DF90CF9022
:1012D000BF90AF909F908F907F906F905F904F9056
:1012E00008950C948608615030F02091F100FC01C3
:1012F00020830196F8CF289884E68093830308958D
:101300002FB7FC012083F89467706093E90008957B
:10131000CF93DF931F92CDB7DEB7682FCE01019632
:101320000E9480098091F20099819FBF0F90DF9108
:10133000CF910895FF920F931F93CF93DF9300D027
:10134000CDB7DEB7F62E8A0190918203992311F072
:1013500057FF03C08FEF9FEF2BC0682FCE01019680
:101360007A830E9480098091F20090E0A8017A813E
:10137000801791070CF4AC01EF2DF72FF40E84E6E3
:10138000FE1639F02898809383039091F100919391
:10139000F7CF4115510521F08091F200882321F00B
:1013A00089818FBFCA0104C08BE68093E800F8CF23
:1013B0000F900F90DF91CF911F910F91FF900895A3
:1013C000CF93DF931F92CDB7DEB741E050E0BE016F
:1013D0006F5F7F4F0E949A09019719F4898190E00D
:1013E00002C08FEF9FEF0F90DF91CF910895CF93C1
:1013F000DF931F92CDB7DEB7682FCE0101960E9412
:1014000080099091E800892F807295FF04C0909127
:10141000F20080E4891B99819FBF0F90DF91CF91EB
:1014200008954F925F926F927F928F929F92AF92A8
:10143000BF92CF92DF92EF92FF920F931F93CF93C1
:10144000DF931F92CDB7DEB7582E7B01A42E952EC9
:1014500080918203882369F0042F152F8AEFB82E1C
:10146000852D8072782E9AE3892E852D8074682EC2
:1014700011C08FEF9FEF53C0852D0E94F709482EB2
:1014800081110CC0BA94A9F361E070E080E090E0B3
:101490000E9467150115110579F737C0282F30E034
:1014A000021713070CF4402EC42CD12C0C191D0963
:1014B000652DCE0101960E948009772039F04A946B
:1014C0008FEF4816B1F01092F100F9CFF701842D9B
:1014D00057FE07C0815058F094919093F1003196D7
:1014E000F9CF815020F091919093F100FACFEC0C5C
:1014F000FD1C8091E80085FF0FC00115110511F456
:1015000061100AC089818FBFC5CF5D9884E6809342
:1015100084038A2D992D03C08092E800F3CF0F90A9
:10152000DF91CF911F910F91FF90EF90DF90CF90BF
:10153000BF90AF909F908F907F906F905F904F90F3
:1015400008951092E9001092810310928003909305
:101550007F0380937E030895CF93DF93FB0120E008
:1015600030E0DEEF24173507A1F187FF02C0C491F8
:1015700001C0C081A0918003B091810360917E037E
:1015800070917F03A617B707B4F49091E8009570A7
:10159000E1F39091E80092FD1EC0C093F1006091CC
:1015A0008003709181036F5F7F4F6F737727672B85
:1015B00011F4D093E80060918003709181036F5F14
:1015C0007F4F70938103609380032F5F3F4F31966D
:1015D000C9CFC90102C08FEF9FEFDF91CF9108956E
:1015E0001F93CF93DF931F92CDB7DEB7162F2091B5
:1015F000E80022FFFCCF612F79830E9473098BEFF3
:101600008093E800812F7981972F0F90DF91CF9100
:101610001F910895CF93DF931F92CDB7DEB7198244
:10162000CE0101960E94F606CE0101960E94331764
:10163000898190E00F90DF91CF9108951F920F92D2
:101640000FB60F921124EF92FF920F931F932F93D7
:101650003F934F935F936F937F938F939F93AF933A
:10166000BF93EF93FF93CF93DF93CDB7DEB762972E
:10167000DEBFCDBF1092E9008091E80083FFE7C094
:1016800068E0CE010A960E94730982EF8093E80019
:101690009A8597FF05C08091E80080FFFCCF03C0CA
:1016A0008EEF8093E800892F807609F0B5C08B8596
:1016B000811105C01092F1001092F100C1C0282FD5
:1016C0002D7F213009F4BCC0853049F48091E800B9
:1016D00080FFFCCF8C8580688093E300B1C08630AA
:1016E00009F072C02D85E888F988223071F580E014
:1016F00090E02A8B0E94A10A0E940A0B99E08E01B9
:101700000F5F1F4FF801392F11923A95E9F799832E
:101710002A892A8391E09E8390E898879AEF998797
:101720002091800330918103275F3F4F3C832B83BF
:101730008D83C7010E94A10A49E050E0B80180E012
:101740000E94AC0A0E940A0B7BC0C7012A8B0E9430
:10175000A10A2A89223241F482E290E00E943E17D7
:10176000892B09F06DC070C0213069F4888999898E
:10177000089711F420937D0380917D03882389F0DD
:101780006BEB71E016C0233009F05EC08C858823B6
:1017900059F0823061F0813009F056C06FED71E090
:1017A00008C06DEC71E005C069E172E002C067EF4E
:1017B00071E06115710509F447C0FB01449150E0E7
:1017C00080E80E94AC0A3CC0873009F43DC08830F4
:1017D00021F481E08093F10033C0893089F5937062
:1017E00099F5E7EBF1E081E021E096E38093E900F1
:1017F0002093EB0034913093EC009093ED008F5FD9
:101800003196853099F78EE78093EA001092EA00CE
:101810008C858093820314C0888999890E94A10ACB
:101820008E85811105C0CE010A960E94010706C06F
:10183000823051F4CE010A960E946617882321F067
:101840008EEF8093E80003C081E28093EB00629604
:101850000FB6F894DEBF0FBECDBFDF91CF91FF91E1
:10186000EF91BF91AF919F918F917F916F915F9118
:101870004F913F912F911F910F91FF90EF900F90FB
:101880000FBE0F901F9018958093E9008091F20091
:10189000882319F08AE38093E80008951092820368
:1018A00081E08093D70080EA8093D80082E189BDEF
:1018B00009B400FEFDCF61E070E080E090E00E949E
:1018C000671580E98093D8008CE08093E200109245
:1018D000E000559A209A08951F920F920FB60F922A
:1018E00011242F933F934F935F936F937F938F9325
:1018F0009F93AF93BF93EF93FF938091E10010927A
:10190000E10083FF0FC01092E90091E09093EB009B
:101910001092EC0092E39093ED001092820398E015
:101920009093F00082FF26C083E00E94440C82E086
:101930000E948809882321F08AE293E00E94A80689
:1019400080918403882339F08091840381508093AF
:101950008403882369F080918303882359F0809160
:101960008303815080938303811104C0289A02C0AD
:101970005D9AF1CFFF91EF91BF91AF919F918F91C0
:101980007F916F915F914F913F912F910F900FBE7B
:101990000F901F9018950F931F93CF93DF93EC0137
:1019A0008B01198218821A821C821B828AE08F8323
:1019B000FE01E75FFE4F11821082FE01E55FFE4FE0
:1019C0007183608364E971E0CE0105960E94CE19AF
:1019D0001886FE01E85FFE4F10826BE070E0C801E0
:1019E0000E945D1899838883DF91CF911F910F9199
:1019F00008950F931F93CF93DF93EC018A01AA817F
:101A00002A2F30E0FC01E55FFE4F8081918128178D
:101A10003907C4F48881998148E050E02BE0A29F07
:101A2000800D911D11240E94E3198A81E881F981BA
:101A30009BE0899FE00DF11D1124128701878A81A7
:101A40008F5F8A83DF91CF911F910F910895FC01E1
:101A5000748363830895AC01475F5E4FBC016B5F85
:101A60007F4F80E090E00C94F2192F923F924F92BA
:101A70005F926F927F928F929F92AF92BF92CF921E
:101A8000DF92EF92FF920F931F93CF93DF9300D0DB
:101A900000D0CDB7DEB79C838B837C0128EFE21AA0
:101AA0002EEFF20A875F9E4F9A8389832B803C80BA
:101AB00085E0280E311C4B805C8098E0490E511C5B
:101AC0008AE293E00E946106181619060CF067C0BE
:101AD0008AE293E00E948506182FAB81BC8117969D
:101AE0008C91181340C049815A81B101C2010E94F2
:101AF000F2196C01009789F1EB81FC818280912CB5
:101B0000612C712CA12CB12CA814B904E4F4AB8184
:101B1000BC810D911C91060D171D48E050E0B801E5
:101B2000C6010E94D519BBE06B0E711C892B39F4DC
:101B3000D8011996ED91FC911A9709950EC0BFEF47
:101B4000AB1ABB0AE1CFAB81BC811396ED91FC913E
:101B50001497309711F0C6010995EB81FC8110862E
:101B6000D7011C92ADCF812F992787FD90950E94B8
:101B7000B019892B09F4A4CFF70180818F3F09F4B4
:101B80009FCF91E0980F9083EB81FC81E80FF11DCE
:101B90001087EB81FC81E90FF11D108691CF0F902A
:101BA0000F900F900F90DF91CF911F910F91FF90A9
:101BB000EF90DF90CF90BF90AF909F908F907F90ED
:101BC0006F905F904F903F902F900895CF92DF924B
:101BD000EF92FF926B017C0181E8C8168EE3D80674
:101BE000E104F10458F080E89EE30E948D1580E83E
:101BF000C81A8EE3D80AE108F108EECFC601FF90BB
:101C0000EF90DF90CF900C948D1584E090E00895D4
:101C10001F93CF93DF931F92CDB7DEB7182F10928B
:101C2000AA071092A9071092A40310928F03109292
:101C30008E031092910310929003109293031092CE
:101C400092031092950310929403109299031092AC
:101C5000980310929B0310929A0310929D03109286
:101C60009C0310929F0310929E031092880310927F
:101C7000870320910F01309110012F3F8FEF38071C
:101C800029F0822F99830E94FB13998110930F01F1
:101C90009093100141E050E06FE570E1812F0F90CB
:101CA000DF91CF911F910C94AB1380910F01909114
:101CB00010018F3F2FEF920711F00E94FB138FEF5F
:101CC0009FEF9093100180930F011092A403089549
:101CD00080918803811103C080918703089581E07A
:101CE000089520918803222381F029EA33E0FC0142
:101CF0003183208380918E0390918F030196FB01A5
:101D00009183808310928803089520918703222372
:101D1000C1F040919A0350919B039A01220F331F07
:101D200027553C4FFC013183208380919003909193
:101D30009103841B950B0196FB0191838083109284
:101D4000870308958091A403853031F41092A40391
:101D50001092880310928703089510928503809152
:101D6000A2039091A3030895809185030895209183
:101D7000A9073091AA07A901569547955695479509
:101D8000B901641B750B6817790748F4240F351FD8
:101D900041E08217930708F040E0842F089580E027
:101DA00008959093AA078093A90710928F03109229
:101DB0008E0310929103109290031092930310924D
:101DC000920310929503109294031092990310922B
:101DD000980310929B0310929A0310929D03109205
:101DE0009C0310929F0310929E0381E080938B03CB
:101DF0008093890380938C0380938A0380938D035F
:101E000010928803109287038093A40308950F9380
:101E10001F93CF93DF938C01EB010E94B70E8823B1
:101E200009F454C09E01220F331FF901E257FC4F01
:101E300040815181DA01AA0FBB1FA755BC4F0D93FA
:101E40001C93CE0101964F5F5F4F880F991FDC01F5
:101E5000A856BC4F4D935C93DC01A257BC4F4D93E9
:101E60005C93D901A856BC4F2D913C918081918102
:101E7000821B930B809764F08091A403843021F43B
:101E800085E08093A40347C0CE5FC093A40343C002
:101E900031832083C130D10579F01CF4CD2BE9F0DA
:101EA0003AC0C230D10561F02397A9F581E0809353
:101EB0008B03809389032FC081E080938D032BC017
:101EC00081E080938C0380938A0325C08091A907C9
:101ED0009091AA078017910738F4C801DF91CF913C
:101EE0001F910F910C94D10ECC0FDD1FC257DC4F08
:101EF000888199818F3F21E092075CF4FC01EE0F0D
:101F0000FF1FE755FC4F1183008301969983888357
:101F100002C01092A403DF91CF911F910F910895F9
:101F2000EF92FF920F931F93FC0180818823F9F0B9
:101F300017FD1DC0D801AA0FBB1FA755BC4F8D911F
:101F40009C918217930718F04817590708F41082DC
:101F50008091A40390E022E0E20EF11C8E159F0513
:101F600031F48081882319F081E0FB0180831F9187
:101F70000F91FF90EF900895AF92BF92CF92DF92B2
:101F8000EF92FF920F931F93CF93DF939C01220F49
:101F9000331FF901E257FC4FA080B18041E0A41A41
:101FA000B108F501EE0FFF1FE755FC4F408151814D
:101FB000BA0157FF02C0695F7F4FF3E075956795DF
:101FC000FA95E1F7EA0157FD2396D595C795D59582
:101FD000C795C60FD71F6A01CC1ADD0AC40FD51FDB
:101FE000F901E856FC4F20813181A21AB30A8230F0
:101FF000910599F08330910549F1019709F054C09A
:10200000EE24E394F12C85019601AE0168E873E0BB
:102010008DE893E00E94900F47C092E0E92EF12CEA
:1020200085019601AE0168E873E08CE893E00E94B8
:10203000900F9601AE0167E873E08AE893E00E9492
:10204000900F8091A403843079F524C080918C0393
:1020500081110CC083E0E82EF12C85019601AE01C0
:1020600068E873E08BE893E00E94900F80918A0308
:1020700081110CC003E0E02EF12C85019601AE0128
:1020800067E873E089E893E00E94900F8091A403D1
:10209000853051F480918803811106C080918703B7
:1020A000811102C01092A403DF91CF911F910F9173
:1020B000FF90EF90DF90CF90BF90AF9008950F9377
:1020C0001F930E944415AB01BC018091A503909120
:1020D000A603A091A703B091A8038A019B01081B46
:1020E000190B2A0B3B0BD901C80112E0B695A79535
:1020F000979587951A95D1F79093A3038093A203A0
:10210000E0918603EE2319F01092860344C08931D2
:102110009105F0F1E1E0E09385034093A50350932E
:10212000A6036093A7037093A8034091A4034230D1
:10213000F1F050F4442399F0413069F560E070E02B
:102140001F910F910C94070F4330C1F0443019F5E3
:1021500063E070E00E94070F83E090E015C08B36CB
:1021600013E09107C0F01F910F910C94D10E61E024
:1021700070E00E94070F81E090E006C062E070E02E
:102180000E94070F82E090E01F910F910C94BC0F0A
:1021900081E0809386031F910F9108952F923F92C3
:1021A0004F925F926F927F928F929F92AF92BF9267
:1021B000CF92DF92EF92FF920F931F93CF93DF9313
:1021C000CDB7DEB7E0970FB6F894DEBF0FBECDBF38
:1021D0004C012A01FC0188E090E0119211920197D4
:1021E0000097D9F7FE01319680E2DF011D928A95B2
:1021F000E9F73E01B1E26B0E711C80E1D3011D9243
:102200008A95E9F71B01E12CF12CE414F50409F49B
:102210005FC05101D1014D915D911D01940180E09C
:1022200090E08901D9016D917D919D016115710544
:1022300021F4D8014D935C9318C08B01A3E016954F
:102240000795AA95E1F76B01D694C794D694C794E5
:102250000C0D1D1D6B01C01AD10AC416D50688F5D8
:10226000600F711F4617570760F5D5018D939C933A
:102270009C01220F331F220F331F2E0F3F1FD90146
:10228000AD90BD90CD90DC901397A40EB51EC11CEF
:10229000D11CAD92BD92CD92DC921397880F991FFD
:1022A0008E0F9F1FDC0190962D913C9191972F5F8F
:1022B0003F4F91963C932E9390978FEFE81AF80A30
:1022C000A4CF01968830910509F0ABCF80E022C001
:1022D0007F016E01B1E3CB0ED11C8401F30121918A
:1022E00031913F012115310561F040E050E0D70107
:1022F0006D917D918D919C910E945E1CF8013183BE
:102300002083F4E0EF0EF11C0E5F1F4F6C147D0470
:1023100029F781E0E0960FB6F894DEBF0FBECDBF7F
:10232000DF91CF911F910F91FF90EF90DF90CF90B1
:10233000BF90AF909F908F907F906F905F904F90E5
:102340003F902F9008958F929F92AF92BF92CF921D
:10235000DF92EF92FF9280910F0190911001019610
:10236000D9F1812C912C54018091A403823028F45E
:1023700080910F010E94FB132FC08530C9F37501B6
:10238000640185E0C80ED11CE11CF11C63E070E023
:1023900080E090E00E94E60D21E4C2162BE4D20614
:1023A0002CE4E206F10420F78091A403823010F0BF
:1023B000853079F47501640185E4C80E82E4D81E85
:1023C0008FE0E81EF11C60E472E48FE090E00E9470
:1023D000E60D46015701C8CF80918803811104C0E2
:1023E00080918703882319F085E08093A403FF90F0
:1023F000EF90DF90CF90BF90AF909F908F90089517
:1024000080910F01909110018F3F2FEF920731F0D3
:1024100041E050E06FE570E10C94AB1308955F92DA
:102420006F927F928F929F92AF92BF92CF92DF92E4
:10243000EF92FF920F931F93CF93DF93582E4B0190
:102440008A0159010E94A311E80109900020E9F7CF
:102450002197C01BD10B61E0852D0E94C905C12CBD
:10246000D12CC00FD11F60E0852DCA14DB0421F1EF
:102470000E9402067801612C712CEC16FD06C1F059
:1024800081E06826662D852D0E940206F701819164
:102490007F01F40194E08902E00DF11D1124E05C5C
:1024A000F10960817181828193810E94E60DE5CFFF
:1024B000EFEFCE1ADE0AD7CF0E940206DF91CF914E
:1024C0001F910F91FF90EF90DF90CF90BF90AF9052
:1024D0009F908F907F906F905F900C9400126F92FE
:1024E0007F928F929F92AF92BF92CF92DF92EF92A4
:1024F000FF920F931F93CF93DF931F92CDB7DEB759
:102500003C01B62EFC0110861186128613861486B5
:1025100061E08B2D49830E94C90560E08B2D0E94EC
:1025200002064981642F70E080E090E00E94671508
:1025300061E08B2D0E94020688E290E00E948D15DA
:1025400060E08B2D0E94C90500E911E08B2D0E94EF
:102550003806892B41F40150110901151105B1F715
:102560008EEF9FEF52C000E911E08B2D0E943806DC
:10257000019731F40150110901151105B1F7F0CFA0
:1025800098E2992E812C20E8A22E00E911E08B2DF3
:102590000E943806892B31F40150110901151105EB
:1025A000B1F7DECF0E9444156B017C0100E911E018
:1025B0008B2D0E943806019731F401501109011545
:1025C0001105B1F7CDCF0E9444156C197D098E0914
:1025D0009F09693271058105910530F0F301E80D1D
:1025E000F11D80858A298087A69419F4839480E858
:1025F000A82E9A9451F661E08B2D0E94C90561E0E6
:102600008B2D0E94020680E090E00F90DF91CF9129
:102610001F910F91FF90EF90DF90CF90BF90AF9000
:102620009F908F907F906F9008950F931F93CF93FB
:10263000DF93EC0142E10E946F12009769F040E0E5
:1026400050EC69E774EC488359836A837B834C833D
:102650005D836E837F8321C01885612F70E080E0E9
:1026600090E00E94231B688379838A839B830A8579
:10267000602F70E080E090E00E94231B6C837D83DC
:102680008E839F83100F81E090E02C85211302C080
:1026900080E090E0919581959109DF91CF911F9114
:1026A0000F910895CF93DF93EC0141E00E946F12E8
:1026B000009769F040E050EC69E774EC4883598377
:1026C0006A837B834C835D836E837F8341C069858E
:1026D00088850E945818BC0180E090E00E94231B6E
:1026E0002DEC3CEC4CEC5DE30E94D91B68837983B4
:1026F0008A839B838A856B858F770E945818BC01DB
:1027000080E090E00E94231B2DEC3CEC4CEC5DE360
:102710000E94D91B6C837D838E839F833A8537FF0C
:1027200007C0DC01CB01B0588C839D83AE83BF838F
:102730002885230F8985280F8B85280F81E090E05D
:102740003C85321302C080E090E09195819591091B
:10275000DF91CF910895853008F04CC0E82FF0E06C
:10276000EE0FFF1FE555F84F718360838230E1F073
:1027700018F4813069F004C0833019F1843071F1AC
:10278000809169008C7F842B80936900E89A08957A
:1027900080916900440F551F440F551F837F842B80
:1027A00080936900E99A08958091690034E0440FAC
:1027B000551F3A95E1F78F7C842B80936900EA9A44
:1027C00008958091690026E0440F551F2A95E1F78E
:1027D0008F73842B80936900EB9A089580916A002F
:1027E00094E0440F551F9A95E1F78F7C842B8093DA
:1027F0006A00EE9A08958530D8F4823061F018F4BA
:10280000813039F004C0833041F0843041F0E898E1
:1028100007C0E99805C0EA9803C0EB9801C0EE989C
:10282000E82FF0E0EE0FFF1FE555F84F1182108200
:1028300008951F920F920FB60F9211242F933F937A
:102840004F935F936F937F938F939F93AF93BF93B8
:10285000EF93FF938091AB079091AC07892B29F000
:10286000E091AB07F091AC070995FF91EF91BF9113
:10287000AF919F918F917F916F915F914F913F9118
:102880002F910F900FBE0F901F9018951F920F92CF
:102890000FB60F9211242F933F934F935F936F9333
:1028A0007F938F939F93AF93BF93EF93FF93809109
:1028B000AD079091AE07892B29F0E091AD07F0911B
:1028C000AE070995FF91EF91BF91AF919F918F91C5
:1028D0007F916F915F914F913F912F910F900FBE1C
:1028E0000F901F9018951F920F920FB60F92112400
:1028F0002F933F934F935F936F937F938F939F9308
:10290000AF93BF93EF93FF938091AF079091B00780
:10291000892B29F0E091AF07F091B0070995FF915D
:10292000EF91BF91AF919F918F917F916F915F9147
:102930004F913F912F910F900FBE0F901F901895C0
:102940001F920F920FB60F9211242F933F934F9324
:102950005F936F937F938F939F93AF93BF93EF9307
:10296000FF938091B1079091B207892B29F0E091F4
:10297000B107F091B2070995FF91EF91BF91AF9127
:102980009F918F917F916F915F914F913F912F9187
:102990000F900FBE0F901F9018951F920F920FB6B9
:1029A0000F9211242F933F934F935F936F937F93D5
:1029B0008F939F93AF93BF93EF93FF938091B30750
:1029C0009091B407892B29F0E091B307F091B407F7
:1029D0000995FF91EF91BF91AF919F918F917F9159
:1029E0006F915F914F913F912F910F900FBE0F907C
:1029F0001F9018951F920F920FB60F9211242F93CC
:102A00003F938F939F93AF93BF938091B60790911D
:102A1000B707A091B807B091B9073091B50723E087
:102A2000230F2D3720F40196A11DB11D05C026E806
:102A3000230F0296A11DB11D2093B5078093B60701
:102A40009093B707A093B807B093B9078091BA07DE
:102A50009091BB07A091BC07B091BD070196A11D45
:102A6000B11D8093BA079093BB07A093BC07B093A6
:102A7000BD07BF91AF919F918F913F912F910F9083
:102A80000FBE0F901F9018953FB7F8948091BA072A
:102A90009091BB07A091BC07B091BD0726B5A89B3C
:102AA00005C02F3F19F00196A11DB11D3FBF66273C
:102AB000782F892F9A2F620F711D811D911D42E081
:102AC000660F771F881F991F4A95D1F70895CF92F7
:102AD000DF92EF92FF92CF93DF936B017C010E9414
:102AE0004415EB01C114D104E104F10479F00E9412
:102AF00044156C1B7D0B683E7340A0F381E0C81A3F
:102B0000D108E108F108C851DC4FECCFDF91CF913B
:102B1000FF90EF90DF90CF9008950197009739F0E4
:102B2000880F991F880F991F02970197F1F7089551
:102B3000789484B5826084BD84B5816084BD85B598
:102B4000826085BD85B5816085BDEEE6F0E080815F
:102B500081608083E1E8F0E0108280818260808380
:102B6000808181608083E0E8F0E080818160808303
:102B7000E1E9F0E0808182608083808181608083F0
:102B8000E0E9F0E0808181608083E1ECF0E0808129
:102B90008460808380818260808380818160808383
:102BA000E3ECF0E0808181608083E0ECF0E0808104
:102BB00082608083E2ECF0E0808181608083EAE7DC
:102BC000F0E0808184608083808182608083808166
:102BD000816080838081806880830895CF93DF93B4
:102BE0008230910510F482E090E0E091CD07F09101
:102BF000CE0720E030E0A0E0B0E0309739F140812E
:102C0000518148175907B8F04817590771F4828164
:102C10009381109729F013969C938E9312972CC052
:102C20009093CE078093CD0727C02115310531F051
:102C30004217530718F0A901DB0101C0EF019A0107
:102C4000BD01DF010280F381E02DD7CF21153105D1
:102C5000F9F0281B390B2430310580F48A819B81DF
:102C60006115710521F0FB019383828304C0909369
:102C7000CE078093CD07FE01329644C0FE01E20FDD
:102C8000F31F8193919322503109398328833AC0ED
:102C90002091CB073091CC07232B41F420911301D5
:102CA000309114013093CC072093CB072091110170
:102CB000309112012115310541F42DB73EB74091F5
:102CC000150150911601241B350BE091CB07F091B3
:102CD000CC07E217F307A0F42E1B3F0B2817390788
:102CE00078F0AC014E5F5F4F2417350748F04E0F68
:102CF0005F1F5093CC074093CB078193919302C001
:102D0000E0E0F0E0CF01DF91CF910895CF93DF9322
:102D1000009709F487C0FC01329713821282C09198
:102D2000CD07D091CE07209781F420813181280FE3
:102D3000391F8091CB079091CC078217930779F5C3
:102D4000F093CC07E093CB076DC0DE0120E030E0CC
:102D5000AE17BF0750F412964D915C9113979D01E9
:102D60004115510509F1DA01F3CFB383A283408104
:102D70005181840F951F8A179B0771F48D919C9147
:102D80001197840F951F02969183808312968D91DF
:102D90009C911397938382832115310529F4F09335
:102DA000CE07E093CD073EC0D9011396FC93EE9376
:102DB00012974D915D91A40FB51FEA17FB0779F4A7
:102DC00080819181840F951F0296D90111969C9361
:102DD0008E938281938113969C938E931297E0E059
:102DE000F0E08A819B81009719F0FE01EC01F9CF98
:102DF000CE01029628813981820F931F2091CB0743
:102E00003091CC072817390769F4309729F41092CC
:102E1000CE071092CD0702C013821282D093CC0746
:102E2000C093CB07DF91CF910895FF920F931F932B
:102E3000CF93DF93EC01F62EE881F9810480F581D0
:102E4000E02D09958C01E881F9810680F781E02D5C
:102E50006F2DCE010995C8019927DF91CF911F9160
:102E60000F91FF900895FC0120812F5F208349E19D
:102E700050E06DE972E080E80C94AC0A45E650E061
:102E800066EB72E080E80C94AC0AEF92FF920F932D
:102E90001F93CF93DF931F92CDB7DEB789838B014A
:102EA0007A0141E050E0BE016F5F7F4F84E00E94F5
:102EB000110AA701B80184E40E94110A0F90DF9162
:102EC000CF911F910F91FF90EF900895FC01918198
:102ED0008081813A31F481E0913091F0933089F42E
:102EE00011C0813271F49B3021F4828180931801EA
:102EF00005C09A3031F482818093170181E00895F2
:102F0000089580E0089548E050E082E00C94451771
:102F1000CF93DF93DC01683818F0E8E7E60F25C0AF
:102F2000E62FF0E067FF11C0E058F10981E090E082
:102F300001C0880FEA95EAF714969C911497982B94
:102F400014969C931497E0E010C0E35EFD4FE4916B
:102F5000EE2309F440C0E7FF08C014968C91149743
:102F6000826014968C931497EF7716968C9116972F
:102F70008E1741F117968C9117978E1719F11896A5
:102F80008C9118978E17F1F019968C9119978E17CE
:102F9000C9F01A968C911A978E17A1F01B968C91F6
:102FA0001B978E1779F080E090E0ED01C80FD91FD4
:102FB0002E81211102C0EE8305C001968630910555
:102FC000A1F709C0BD016C5F7F4FCD010E9483173F
:102FD00081E090E008C081E090E013969C938E938E
:102FE000129780E090E0DF91CF910895683818F053
:102FF000E8E7E60F25C0E62FF0E067FF12C0E058D3
:10300000F10921E030E001C0220FEA95EAF72095AE
:10301000DC0114963C911497322314963C93E0E023
:103020000FC0E35EFD4FE491EE2329F1E7FF08C0F6
:10303000DC0114962C9114972D7F14962C93EF7726
:1030400020E030E0EE2351F0DC01A20FB31F169612
:103050004C9116974E1302C016961C922F5F3F4F4D
:103060002630310579F7BC016C5F7F4F0E948317D2
:1030700081E090E0089580E090E00895FC011682E0
:10308000178210861186128613861482BC016C5F2B
:103090007F4F0C9483171092CA071092C1071092A9
:1030A000C00783E092E09093BF078093BE07089526
:1030B00070E09B01382BC90108950F931F93CF93A4
:1030C000DF93869F8001879F100D969F100D11241E
:1030D000C8010E94EE15EC01009729F0A80160E0FC
:1030E00070E00E94BE19CE01DF91CF911F910F9128
:1030F00008952F923F925F926F927F928F929F924C
:10310000AF92BF92CF92DF92EF92FF920F931F93F5
:10311000CF93DF938B01EA016115710521F0DB018B
:103120008C9311969C93209739F09E01225031097F
:103130002332310508F0D8C07C016701BFEFCB1AFC
:10314000DB0A5601F7016080862D90E00E94B619D7
:10315000892B11F07601F1CFFDE26F120AC0570101
:1031600082E0A80EB11CD70111966C90772473945D
:103170000BC0BBE26B1207C05701E2E0AE0EB11C00
:10318000D70111966C90712CCE018F7E892B89F41A
:10319000B0E36B1237C0F50180818F7D8835D1F4A3
:1031A0006180F2E0AF0EB11C872D8260782EC0E105
:1031B000D0E0CA30D10551F1C031D10521F0C8307D
:1031C000D10599F409C0CC24CA94DC2CEC2CAFE0D6
:1031D000FA2E22C0209769F7C8E0D0E0CC24CA9428
:1031E000DC2CEC2CFFE1FF2E17C06FEF7FEFCB0143
:1031F0009E01442737FD4095542F0E945E1C6901B3
:103200007A010AC02097A9F6CAE0D0E0E9E9CE2EFB
:10321000DC2CEC2CE9E1FE2EF50160E020E030E052
:10322000A9014E01AA2497FCA094BA2C1F0170EDAD
:10323000572E560CA9E0A51570F48FEB860D8A3138
:1032400018F499EC592E06C08FE9860D8A3148F59D
:1032500089EA582E560C852D90E08C179D070CF5A9
:103260006F3FD9F0C216D306E406F50698F0C50103
:10327000B4010E944E1C9B01AC01852D90E0A0E0A2
:10328000B0E0280F391F4A1F5B1F281739074A076C
:103290005B0710F46FEF01C061E03196D1016C90D3
:1032A000C5CF0115110551F0662311F0319703C008
:1032B00071FE04C03297D801ED93FC9370FE07C0F5
:1032C00050954095309521953F4F4F4F5F4F67FF89
:1032D00010C082E290E09093D0078093CF076FEF09
:1032E0007FEF8FEF9FEF07C060E070E080E090E03D
:1032F00002C0B901CA01DF91CF911F910F91FF90D8
:10330000EF90DF90CF90BF90AF909F908F907F9085
:103310006F905F903F902F900895FC018827992728
:10332000E89421912032E9F3293010F02E30C8F3CF
:103330002B3241F02D3239F4689404C00E94191ADE
:10334000820F911D219120532A30C0F31EF49095D5
:1033500081959F4F0895F8940C94951C803209F044
:1033600091118EC280528F55E0F70895911188C255
:10337000803219F089508550D0F70895DC0101C0E2
:103380006D9341505040E0F70895FB01DC018D91B1
:10339000019080190110D9F3990B0895FB01DC010C
:1033A00001900D920020E1F70895FB01DC014150EE
:1033B000504030F08D910190801919F40020B9F738
:1033C000881B990B0895FB01DC014150504048F0E7
:1033D00001900D920020C9F701C01D92415050404C
:1033E000E0F70895FA01A191B081009719F41097C0
:1033F000E1F0CD01DC01CD010D90002011F4C00100
:1034000013C0FB012191222319F02015D9F7F3CF26
:10341000FB012191201519F41E92119606C022235A
:10342000C1F70D900020A1F7D001FA01A193B0835C
:1034300008957AE0979F902D879F802D910D1124FC
:1034400008955058BB27AA270ED075C166D130F019
:103450006BD120F031F49F3F11F41EF45BC10EF4E8
:10346000E095E7FB51C1E92F77D180F3BA176207E6
:1034700073078407950718F071F49EF58FC10EF459
:10348000E0950B2EBA2FA02D0B01B90190010C0174
:10349000CA01A0011124FF27591B99F0593F50F48C
:1034A000503E68F11A16F040A22F232F342F4427E4
:1034B000585FF3CF469537952795A795F0405395DC
:1034C000C9F77EF41F16BA0B620B730B840BBAF0AC
:1034D0009150A1F0FF0FBB1F661F771F881FC2F717
:1034E0000EC0BA0F621F731F841F48F4879577952B
:1034F0006795B795F7959E3F08F0B3CF9395880FE2
:1035000008F09927EE0F979587950895D9D008F47C
:1035100081E008950CD00FC107D140F0FED030F00B
:1035200021F45F3F19F0F0C0511139C1F3C014D13B
:1035300098F39923C9F35523B1F3951B550BBB277A
:10354000AA2762177307840738F09F5F5F4F220F27
:10355000331F441FAA1FA9F333D00E2E3AF0E0E820
:1035600030D091505040E695001CCAF729D0FE2F6C
:1035700027D0660F771F881FBB1F261737074807FE
:10358000AB07B0E809F0BB0B802DBF01FF279358B4
:103590005F4F2AF09E3F510568F0B6C000C15F3F03
:1035A000ECF3983EDCF3869577956795B795F7959C
:1035B0009F5FC9F7880F911D9695879597F9089594
:1035C000E1E0660F771F881FBB1F62177307840730
:1035D000BA0720F0621B730B840BBA0BEE1F88F73F
:1035E000E095089504D06894B111D9C00895BCD075
:1035F00088F09F5790F0B92F9927B751A0F0D1F0DC
:10360000660F771F881F991F1AF0BA95C9F712C065
:10361000B13081F0C3D0B1E00895C0C0672F782FDA
:103620008827B85F39F0B93FCCF3869577956795D1
:10363000B395D9F73EF490958095709561957F4F3D
:103640008F4F9F4F0895E89409C097FB3EF49095E3
:103650008095709561957F4F8F4F9F4F9923A9F06B
:10366000F92F96E9BB279395F695879577956795FA
:10367000B795F111F8CFFAF4BB0F11F460FF1BC03E
:103680006F5F7F4F8F4F9F4F16C0882311F096E9D1
:1036900011C0772321F09EE8872F762F05C066237F
:1036A00071F096E8862F70E060E02AF09A95660F38
:1036B000771F881FDAF7880F9695879597F90895F1
:1036C000990F0008550FAA0BE0E8FEEF1616170633
:1036D000E807F907C0F012161306E407F50798F09B
:1036E000621B730B840B950B39F40A2661F0232BB4
:1036F000242B252B21F408950A2609F4A140A69530
:103700008FEF811D811D089597F99F6780E870E014
:1037100060E008959FEF80EC089500240A94161647
:10372000170618060906089500240A9412161306AF
:10373000140605060895092E0394000C11F488233D
:1037400052F0BB0F40F4BF2B11F460FF04C06F5F59
:103750007F4F8F4F9F4F089557FD9058440F551F2F
:1037600059F05F3F71F04795880F97FB991F61F003
:103770009F3F79F087950895121613061406551F7A
:10378000F2CF4695F1DF08C0161617061806991FE6
:10379000F1CF86957105610508940895E894BB27DB
:1037A00066277727CB0197F908958ADF08F48FEF12
:1037B00008950BD0C0CFB1DF28F0B6DF18F0952305
:1037C00009F0A2CFA7CF1124EACFC6DFA0F3959FBF
:1037D000D1F3950F50E0551F629FF001729FBB27F8
:1037E000F00DB11D639FAA27F00DB11DAA1F649FA4
:1037F0006627B00DA11D661F829F2227B00DA11D57
:10380000621F739FB00DA11D621F839FA00D611DDC
:10381000221F749F3327A00D611D231F849F600DFD
:10382000211D822F762F6A2F11249F5750408AF036
:10383000E1F088234AF0EE0FFF1FBB1F661F771FC2
:10384000881F91505040A9F79E3F510570F05CCF02
:10385000A6CF5F3FECF3983EDCF3869577956795AE
:10386000B795F795E7959F5FC1F7FE2B880F911DE0
:103870009695879597F9089523DF880B990B0895FE
:103880009927882708950E94861CA59F900DB49FB4
:10389000900DA49F800D911D11240895DB018F933D
:1038A0009F930E94431CBF91AF91A29F800D911DD9
:1038B000A39F900DB29F900D11240895A1E21A2E9E
:1038C000AA1BBB1BFD010DC0AA1FBB1FEE1FFF1FC4
:1038D000A217B307E407F50720F0A21BB30BE40B14
:1038E000F50B661F771F881F991F1A9469F760955B
:1038F0007095809590959B01AC01BD01CF01089515
:10390000EE0FFF1F0590F491E02D0994A29FB001E6
:10391000B39FC001A39F700D811D1124911DB29F03
:0E392000700D811D1124911D0895F894FFCFA4
:10392E0001000000FFFF0100E1000000000000FFA9
:10393E00FF0000D1078000010145525220756E6BC9
:10394E006E6F776E5F636F6D6D616E640D0A0072E0
:10395E0065616479206172642D302E302E310D0A2E
:10396E0000445200445700415200415700504D0050
:10397E0052460050494E4700444854005245534564
:10398E00540045525220617267756D656E745F65A5
:10399E0072726F720D0A0041434B0D0A0073656E11
:1039AE0064007265636569766500726177004143F4
:1039BE004B20002C200052462072656365697665A7
:1039CE00200045525220636865636B73756D5F65A9
:1039DE0072726F720D0A004552522074696D656FD6
:1039EE0075745F6572726F720D0A004552522075C2
:1039FE006E6B6E6F776E5F6572726F720D0A00007E
:103A0E00000000D1068107610685066E06CE06A867
:103A1E00066E616E00696E66006F7666002E00009F
:0E3A2E00000000151781078817F6173E1800D4
:00000001FF
