:100000000C94B8010C94AC140C94DD140C940E15E3
:100010000C943F150C9470150C94A1150C94D215EA
:100020000C9403160C94E9010C94E9010C94E90179
:100030000C94E9010C94E9010C94E9010C94E90198
:100040000C94E9010C94E9010C94E9010C94E90188
:100050000C94E9010C94E9010C94E9010C94341618
:100060000C94E9010C9494070C9484080C94E90115
:100070000C94E9010C94E9010C94E9010C94E90158
:100080000C94E9010C94E9010C94E9010C94E90148
:100090000C94C8070C94C3080C94E9010C94E90172
:1000A0000C94E9010C94E9010C94E9010C94E90128
:1000B0000C94E9010C94E9010C94E9010C94E90118
:1000C0000C94E9010C94E9010C94E9010C94FC07EF
:1000D0000C9402090C94E9010C9430080C94410929
:1000E0000C94E90165056A056F057905F20583053C
:1000F0008B0593059D05A705B105C005CA05F20549
:10010000D405DE05E8051006130606060A064A06AB
:1001100017061B062106250629062F063306370675
:100120004A063D064106450661142B1433143F145C
:100130004C146D147A149E149414961498149A14F2
:10014000A014A2140000090A02080B0C0D070603F4
:10015000040100000000000000000000000000009A
:10016000000000000000000000000000000000008F
:1001700011100F000000000000000000000000004F
:100180000000000000000000000001021020200814
:1001900008102040102040800201020108040201E2
:1001A0000102040810204080804020100804020151
:1001B00080040201804020100804020108040201AA
:1001C0000102040810204080010204081020408031
:1001D00005050505070508080808020202020A0AC3
:1001E00008080404040401010101010101010303E1
:1001F000030303030303040707070C0C0C0C0C0C8C
:100200000C0C0202020206060606060606060B0B88
:100210000B0B0B0B0B0B000020002300260029000A
:100220002C002F003200000100000301060109012B
:1002300000002200250028002B002E003100340091
:1002400002010000050108010B010000210024004B
:1002500027002A002D0030003300010100000401B6
:1002600007010A010C9493050C943D060C94CA10E6
:100270000C9406040C946D140C9498140C9437068A
:100280000C947A140C94CA050C94F5060C9410077F
:100290000C94010A0C9494140C9496140C94E80594
:1002A0000C94440B0C949A140C9421060C9425067F
:1002B0000C949E140C94A2140C949D050C9414059B
:1002C0000C9433140C94C0050C9445060C946505ED
:1002D0000C944A060C9483050C948B050C946F05C2
:1002E0000C942F060C94DE050C9433060C94D90361
:1002F0000C943F140C9441060C94A7050C94B10582
:100300000C94D4050C9463080C94F1010C94F20540
:100310000C94D4040C9410060C9417060C94130639
:100320000C94F4040C94A0140C941B060C94E30697
:100330000C940A060C9468040C9432070C9406067C
:100340000C942B140C94B4040C9461140C946A0552
:100350000C943D070C944C140C9400020C94290648
:100360000C948E040C94EB010C9479051405010A8D
:1003700011241FBECFEFD1E2DEBFCDBF00E00CBF26
:1003800012E0A0E0B2E0ECE3F9E300E00BBF02C052
:1003900007900D92A43FB107D9F71AE0A4EFB2E09D
:1003A00001C01D92AD3FB107E1F713E0C0E7D3E014
:1003B00000E006C022970109FE010BBF0E94981CB5
:1003C000CC36D10780E00807A9F70E94370B0C94C0
:1003D000AE190C9400006FE072E086E794E00C9494
:1003E000820B0E94C00E65E272E086E794E00C94F6
:1003F000820BDC01ED91FC910190F081E02D1994CC
:10040000CF93DF9367E372E086E794E00E94820B6C
:1004100083E093E00E94960DEC01009759F060E2B2
:1004200070E086E794E00E94F901BE0186E794E05F
:100430000E94820B64E372E086E794E0DF91CF9143
:100440000C94820BCF92DF92EF92FF920F931F9347
:10045000CF93DF93CDB7DEB764970FB6F894DEBFC6
:100460000FBECDBF80910203882371F10E941F0F40
:10047000882309F48DC00E94180F8C010E94700E11
:10048000809FB001819F700D909F700D11244AE0F4
:1004900050E086E794E00E94430C6CE372E086E74C
:1004A00094E00E94820B8091F4028F5F8093F402AB
:1004B000803108F46DC01092F4026AE070E086E7C3
:1004C00094E00E94F90164C00E94D30E882309F4CD
:1004D0005FC07E0181E1E80EF11CB701CE014396B9
:1004E0000E94DC0E0E94700E6C0149895A896B894A
:1004F0007C89CE0101960E9439116FE372E086E794
:1005000094E00E94820B8E010F5F1F4FF8018191D2
:1005100091918F018C9DA0018D9D500D9C9D500D42
:10052000112460E070E02AE030E086E794E00E9469
:10053000360C60E270E086E794E00E94F9010E1547
:100540001F0521F700E010E089899A89081719072B
:10055000B8F4A0917604B0917704C801880F991F70
:10056000EB89FC89E80FF91F60817181605D7F4F25
:10057000ED91FC9186E794E019950F5F1F4FE4CF52
:1005800064E372E086E794E00E94820B0E940D0F04
:1005900064960FB6F894DEBF0FBECDBFDF91CF914A
:1005A0001F910F91FF90EF90DF90CF90089540E062
:1005B00052EC61E070E086E794E00E94800948E632
:1005C00054E06BE472E083E093E00E94640D44EB3E
:1005D00054E06EE472E083E093E00E94640D4EE824
:1005E00054E061E572E083E093E00E94640D44ED25
:1005F00054E064E572E083E093E00E94640D44EF10
:1006000054E067E572E083E093E00E94640D49EDF9
:1006100053E06AE572E083E093E00E94640D40E0FD
:1006200052E067E372E083E093E00E94640D46E0ED
:1006300054E06DE572E083E093E00E94640D41EFC9
:1006400051E061E672E083E093E00E94640D6BEE9E
:1006500071E083E093E00E94920D65E272E086E72C
:1006600094E00C94820B83E093E00E94A00D0C9424
:10067000220267E672E086E794E00C94820B83E046
:1006800093E00E94960D009711F40C9439030E9498
:1006900090190E94730E81E0809302036CE772E070
:1006A00086E794E00C94820B83E093E00E94960D21
:1006B000009711F40C9439030E949019909305024D
:1006C000809304020E94730E109202036CE772E0A2
:1006D00086E794E00C94820B8F929F92AF92BF9228
:1006E000CF92DF92EF92FF920F931F93CF93DF93FE
:1006F000CDB7DEB7A0970FB6F894DEBF0FBECDBF63
:1007000083E093E00E94960D009719F40E9439034C
:100710003DC00E9490197C0183E093E00E94960DF9
:100720000097A1F30E9490196C018E010F5F1F4F7B
:100730005E0181E2A80EB11C480183E093E00E94B3
:10074000960D009719F34AE050E060E070E00E94D7
:100750007C18F80161937193819391938F01EA154D
:10076000FB0559F783E093E00E94960D009771F224
:100770009601AC01B401C7010E947A1210920203E3
:100780006CE772E086E794E00E94820BA0960FB6B9
:10079000F894DEBF0FBECDBFDF91CF911F910F91B7
:1007A000FF90EF90DF90CF90BF90AF909F908F9091
:1007B0000895CF93DF9383E093E00E94960DEC01C0
:1007C000009721F4DF91CF910C94390362E872E035
:1007D0000E94C819892B21F4DF91CF910C946C03EE
:1007E00067E872E0CE010E94C819892B21F4DF91DD
:1007F000CF910C9454036FE872E0CE010E94C819A7
:10080000892B01F7DF91CF910C943F03CF93DF93B6
:1008100083E093E00E94960D009721F4DF91CF9141
:100820000C9439030E949019EC0183E093E00E943C
:10083000960D009799F30E949019682F85EF92E02A
:100840002B9719F40E94801302C00E94BD138F3FA2
:100850002FEF920791F1009729F0029689F56DEA42
:1008600072E030C063E972E086E794E00E94820B98
:100870004091F9025091FA026091FB027091FC02E2
:1008800021E030E086E794E00E94340D60E270E001
:1008900086E794E00E94F9014091F5025091F6023A
:1008A0006091F7027091F80221E030E086E794E071
:1008B0000E94340D64E372E005C068E972E002C092
:1008C00061EC72E086E794E0DF91CF910C94820BAB
:1008D000CF93DF9383E093E00E94960D009721F47D
:1008E000DF91CF910C9439030E9490190E94BA06AF
:1008F000EC0163E972E086E794E00E94820BBE019E
:10090000605D7F4F86E794E00E94F90164E372E046
:1009100086E794E0DF91CF910C94820BCF93DF9325
:1009200083E093E00E94960D009721F4DF91CF9130
:100930000C9439030E9490190E941A05EC0163E996
:1009400072E086E794E00E94820B4AE050E0BE012C
:1009500086E794E00E942E0C64E372E086E794E060
:10096000DF91CF910C94820BCF9383E093E00E94B0
:10097000960D009719F4CF910C9439030E949019A9
:10098000C82F83E093E00E94960D0097A1F30E9488
:100990009019682F8C2F0E9484066CE772E086E71E
:1009A00094E0CF910C94820BCF9383E093E00E946C
:1009B000960D009719F4CF910C9439030E94901969
:1009C000C82F83E093E00E94960D0097A1F30E9448
:1009D0009019BC018C2F0E943F056CE772E086E7FE
:1009E00094E0CF910C94820BCF9383E093E00E942C
:1009F000960D009719F4CF910C9439030E94901929
:100A0000C82F83E093E00E94960D0097A1F30E9407
:100A10009019682F8C2F0E944B066CE772E086E7D6
:100A200094E0CF910C94820B60E170E083E093E05E
:100A30000C94360D863308F0865320917B00982F56
:100A40009870277F922B90937B00877020910602ED
:100A500090E4299F90011124822B80937C00809147
:100A60007A00806480937A0080917A0086FDFCCFC2
:100A7000809178002091790090E0922B08951F9347
:100A8000CF93DF93182FEB0161E00E944B06209774
:100A900011F460E004C0CF3FD10539F461E0812F4B
:100AA000DF91CF911F910C948406E12FF0E0EC5B75
:100AB000FE4F449150E0FA013197E131F10508F021
:100AC00091C0EE58FF4F0C94831C84B5806884BDA0
:100AD000C7BD8DC084B5806284BDC8BD88C080910B
:100AE0008000806880938000D0938900C093880044
:100AF0007EC080918000806280938000D0938B00C4
:100B0000C0938A0074C08091B00080688093B00068
:100B1000C093B3006CC08091B00080628093B0003D
:100B2000C093B40064C0809190008068809390006E
:100B3000D0939900C09398005AC080919000806231
:100B400080939000D0939B00C0939A0050C08091F6
:100B50009000886080939000D0939D00C0939C008B
:100B600046C08091A00080688093A0008091A00082
:100B70008F7B8093A000D093A900C093A80037C0BA
:100B80008091A00080628093A000D093AB00C093BE
:100B9000AA002DC08091A00088608093A000D0930F
:100BA000AD00C093AC0023C0809120018068809389
:100BB0002001D0932901C093280119C08091200100
:100BC000806280932001D0932B01C0932A010FC033
:100BD00080912001886080932001D0932D01C093E3
:100BE0002C0105C0C038D1050CF058CF52CFDF9191
:100BF000CF911F91089590E0FC013197E131F1050B
:100C000008F048C0ED57FF4F0C94831C8091800082
:100C10008F7703C0809180008F7D8093800008953E
:100C200084B58F7702C084B58F7D84BD089580918F
:100C3000B0008F7703C08091B0008F7D8093B000AB
:100C40000895809190008F7707C0809190008F7DEC
:100C500003C080919000877F8093900008958091D9
:100C6000A0008F7707C08091A0008F7D03C0809186
:100C7000A000877F8093A0000895809120018F7746
:100C800007C0809120018F7D03C080912001877F64
:100C9000809320010895CF93DF9390E0FC01E65705
:100CA000FE4F2491FC01E053FE4F8491882349F1CB
:100CB00090E0880F991FFC01E65BFD4FA591B49170
:100CC000805D9D4FFC01C591D4919FB7611108C013
:100CD000F8948C91209582238C93888182230AC07A
:100CE000623051F4F8948C91322F309583238C9399
:100CF0008881822B888304C0F8948C91822B8C93FA
:100D00009FBFDF91CF9108950F931F93CF93DF93F0
:100D10001F92CDB7DEB7282F30E0F901EC5BFE4F14
:100D20008491F901E657FE4F1491F901E053FE4F0B
:100D300004910023C9F0882321F069830E94FB05F8
:100D40006981E02FF0E0EE0FFF1FE05DFD4FA59100
:100D5000B4919FB7F8948C91611103C010958123D1
:100D600001C0812B8C939FBF0F90DF91CF911F917A
:100D70000F910895CF93DF93282F30E0F901EC5BBA
:100D8000FE4F8491F901E657FE4FD491F901E053EB
:100D9000FE4FC491CC2391F081110E94FB05EC2FF2
:100DA000F0E0EE0FFF1FEA5EFD4FA591B4912C918C
:100DB0002D2381E090E021F480E002C080E090E00B
:100DC000DF91CF910895FC0124853585F901E05C20
:100DD000FF4F80819181F901EE5BFF4F20813181CE
:100DE000821B930B8F7399270895FC018485958549
:100DF000FC01E05CFF4F40815181FC01EE5BFF4F45
:100E0000208131814217530741F00190F081E02D9C
:100E1000E80FF91F808190E008958FEF9FEF08950C
:100E2000FC0184859585FC01E05CFF4F4081518188
:100E3000FC01EE5BFF4F208131814217530779F0AF
:100E4000A081B181A80FB91F8C91208131812F5FC2
:100E50003F4F2F7333273183208390E008958FEF26
:100E60009FEF0895FC0181A1882329F0A489B58909
:100E70008C9186FFFBCF11A20895CF93DF93FC01E5
:100E800026853785D901A05CBF4F8D919C91119724
:100E900001968F739927E901CE5BDF4F4881598115
:100EA00084179507D9F30D90BC91A02DA20FB31F05
:100EB0006C93A685B785A05CBF4F11969C938E93CB
:100EC000A689B7892C9181E090E0078C02C0880F39
:100ED000991F0A94E2F7282B2C9381E081A30488C0
:100EE000F589E02D80818064808381E090E0DF914E
:100EF000CF910895FB01E05CFF4F208131812F5F8E
:100F00003F4F2F733327DB01AE5BBF4F4D915C9199
:100F10002417350739F0A081B181A60FB71F8C9334
:100F200031832083089508951F920F920FB60F9278
:100F300011240BB60F922F933F934F935F936F93B0
:100F40007F938F939F93AF93BF93EF93FF93809182
:100F5000C00082FD07C08091C60064E776E00E9471
:100F60007A0702C08091C600FF91EF91BF91AF91C7
:100F70009F918F917F916F915F914F913F912F91B1
:100F80000F900BBE0F900FBE0F901F9018950895F5
:100F90001F920F920FB60F9211240BB60F922F9340
:100FA0003F934F935F936F937F938F939F93AF93F1
:100FB000BF93EF93FF938091C80082FD07C080919B
:100FC000CE006CEE75E00E947A0702C08091CE00E0
:100FD000FF91EF91BF91AF919F918F917F916F9111
:100FE0005F914F913F912F910F900BBE0F900FBECD
:100FF0000F901F90189508951F920F920FB60F92A1
:1010000011240BB60F922F933F934F935F936F93DF
:101010007F938F939F93AF93BF93EF93FF938091B1
:10102000D00082FD07C08091D60064E675E00E9482
:101030007A0702C08091D600FF91EF91BF91AF91E6
:101040009F918F917F916F915F914F913F912F91E0
:101050000F900BBE0F900FBE0F901F901895089524
:101060001F920F920FB60F9211240BB60F922F936F
:101070003F934F935F936F937F938F939F93AF9320
:10108000BF93EF93FF938091300182FD07C0809161
:1010900036016CED74E00E947A0702C0809136013F
:1010A000FF91EF91BF91AF919F918F917F916F9140
:1010B0005F914F913F912F910F900BBE0F900FBEFC
:1010C0000F901F90189586E794E00E94E306892B05
:1010D00011F00E94930784E594E00E94E306892BB7
:1010E00011F00E94C70782E394E00E94E306892B77
:1010F00011F00E94FB0780E194E00E94E306892B37
:1011000011F00C942F0808951F920F920FB60F92B2
:1011100011240BB60F922F933F938F939F93EF93CE
:10112000FF93209170063091710680917206909124
:1011300073062817390731F48091C1008F7D8093A1
:10114000C10014C0E0917206F0917306E05DF94FA2
:101150002081809172069091730601968F73992772
:1011600090937306809372062093C600FF91EF91CF
:101170009F918F913F912F910F900BBE0F900FBEBB
:101180000F901F9018951F920F920FB60F92112477
:101190000BB60F922F933F938F939F93EF93FF93F1
:1011A0002091E8053091E9058091EA059091EB05E1
:1011B0002817390731F48091C9008F7D8093C900C9
:1011C00014C0E091EA05F091EB05E855FA4F208153
:1011D0008091EA059091EB0501968F739927909382
:1011E000EB058093EA052093CE00FF91EF919F914C
:1011F0008F913F912F910F900BBE0F900FBE0F90CC
:101200001F9018951F920F920FB60F9211240BB6D4
:101210000F922F933F938F939F93EF93FF93209180
:1012200060053091610580916205909163052817F2
:10123000390731F48091D1008F7D8093D10014C0A3
:10124000E0916205F0916305E05EFA4F20818091A4
:1012500062059091630501968F73992790936305BA
:10126000809362052093D600FF91EF919F918F911B
:101270003F912F910F900BBE0F900FBE0F901F90BC
:1012800018951F920F920FB60F9211240BB60F9262
:101290002F933F938F939F93EF93FF932091D804C5
:1012A0003091D9048091DA049091DB042817390732
:1012B00031F4809131018F7D8093310114C0E09130
:1012C000DA04F091DB04E856FB4F20818091DA04C8
:1012D0009091DB0401968F7399279093DB048093A0
:1012E000DA0420933601FF91EF919F918F913F9106
:1012F0002F910F900BBE0F900FBE0F901F9018955F
:10130000CF92DF92EF92FF92CF93DF93EC016A01CD
:101310007B01411581EE580761057105F9F0EC89F3
:10132000FD8981E090E008A002C0880F991F0A940F
:10133000E2F7808360E079E08DE390E0A701960119
:101340000E94611C21503109410951095695479568
:1013500037952795211580E1380798F0EC89FD89AC
:10136000108260E874E88EE190E0A70196010E9487
:10137000611C21503109410951095695479537950E
:101380002795E889F9893083EA89FB89208319A2A6
:10139000EE89FF89408181E090E09C010C8C02C0C5
:1013A000220F331F0A94E2F7422B4083EE89FF8914
:1013B00040819C010D8C02C0220F331F0A94E2F77A
:1013C000422B4083EE89FF8940819C010E8C02C034
:1013D000220F331F0A94E2F7422B4083EE89FF89E4
:1013E00020810F8C02C0880F991F0A94E2F7809524
:1013F00082238083DF91CF91FF90EF90DF90CF9099
:101400000895CF93109279041092780488EE93E0B7
:10141000A0E0B0E080937A0490937B04A0937C04D6
:10142000B0937D0429ED32E0309377042093760465
:1014300044E756E0509383044093820440E356E02F
:10144000509385044093840445EC50E05093870406
:101450004093860444EC50E0509389044093880400
:1014600040EC50E050938B0440938A0441EC50E0F0
:1014700050938D0440938C0442EC50E050938F04C1
:1014800040938E0446EC50E05093910440939004B6
:10149000C4E0C0939204F3E0F0939304E7E0E09398
:1014A000940475E07093950461E060939604109243
:1014B0005704109256048093580490935904A093B3
:1014C0005A04B0935B0430935504209354044CEEBB
:1014D00055E0509361044093600448EA55E050930E
:1014E0006304409362044DEC50E0509365044093D4
:1014F00064044CEC50E0509367044093660448EC5D
:1015000050E0509369044093680449EC50E05093D4
:101510006B0440936A044AEC50E050936D0440938E
:101520006C044EEC50E050936F0440936E04C093F3
:101530007004F0937104E0937204709373046093E9
:1015400074041092350410923404809336049093FE
:101550003704A0933804B0933904309333042093B4
:10156000320444E655E050933F0440933E0440E289
:1015700055E0509341044093400445ED50E05093B2
:1015800043044093420444ED50E05093450440939B
:10159000440440ED50E0509347044093460441ED2D
:1015A00050E0509349044093480442ED50E050937A
:1015B0004B0440934A0446ED50E050934D04409351
:1015C0004C04C0934E04F0934F04E0935004709386
:1015D00051046093520410921304109212048093E9
:1015E000140490931504A0931604B0931704309339
:1015F0001104209310048CED94E090931D048093CB
:101600001C0488E994E090931F0480931E0485E3F2
:1016100091E0909321048093200484E391E09093DF
:1016200023048093220480E391E090932504809327
:10163000240481E391E0909327048093260482E3BD
:1016400091E0909329048093280486E391E090939D
:101650002B0480932A04C0932C04F0932D04E09370
:101660002E0470932F0460933004CF9108950E944C
:10167000D2160E94D702C3E6D8E00E943303209717
:10168000E1F30E946308F9CFCF92DF92EF92FF92CD
:101690000F931F93CF93DF936C017A01EB01E60E5A
:1016A000F71E00E010E0CE15DF0561F06991D6016C
:1016B000ED91FC910190F081E02DC6011995080F84
:1016C000191FF1CFC801DF91CF911F910F91FF90AA
:1016D000EF90DF90CF9008956115710581F0DB01E7
:1016E0000D900020E9F7AD0141505109461B570B01
:1016F000DC01ED91FC910280F381E02D199480E0F2
:1017000090E008950C946C0BDC01ED91FC9101903C
:10171000F081E02D19948F929F92AF92BF92CF9259
:10172000DF92EF92FF920F931F93CF93DF93CDB78A
:10173000DEB7A1970FB6F894DEBF0FBECDBF7C0118
:10174000C42EE52FCB01D22E19A221E02D1510F0C9
:101750002AE0D22E8E010F5D1F4F8D2C912CA12CD3
:10176000B12C6C2D7E2FA50194010E94611C8C2D43
:10177000D29E80191124015011098A3014F4805D21
:1017800001C0895CF80180832115310541055105AF
:1017900021F0C22EE32FCA01E4CFB801C7010E9495
:1017A0006C0BA1960FB6F894DEBF0FBECDBFDF91D4
:1017B000CF911F910F91FF90EF90DF90CF90BF904E
:1017C000AF909F908F900895CF92DF92EF92FF920B
:1017D0000F931F93CF93DF93EC016A017B012115D7
:1017E000310579F4E881F9810190F081E02D642FD1
:1017F000DF91CF911F910F91FF90EF90DF90CF90ED
:1018000019942A303105E9F477FF1AC06DE20E947D
:10181000840B8C0144275527BA014C195D096E09C8
:101820007F092AE0CE010E948B0B800F911FDF9170
:10183000CF911F910F91FF90EF90DF90CF9008957F
:101840002AE0B701A601CE01DF91CF911F910F9140
:10185000FF90EF90DF90CF900C948B0B9A01AB012F
:10186000662757FD6095762F0C94E40B2115310502
:1018700041F4DC01ED91FC910190F081E02D642FA9
:1018800019940C948B0B9A01AB0160E070E00C94FE
:10189000360C4F925F926F927F928F929F92AF928F
:1018A000BF92CF92DF92EF92FF920F931F93CF934D
:1018B000DF93EC016A017B01B22E9A01AB01C701F3
:1018C000B6010E943F1C882319F065EE72E027C024
:1018D00026013701E89477F82FEF3FEF4FE75FE7F6
:1018E000C301B2010E943F1C81110DC02FEF3FEFD9
:1018F0004FE75FE7C301B2010E94891A18161CF472
:1019000069EE72E00CC02FEF3FEF4FE75FE4C701D5
:10191000B6010E94D81B1816ACF46DEE72E0CE0131
:10192000DF91CF911F910F91FF90EF90DF90CF90BB
:10193000BF90AF909F908F907F906F905F904F90EF
:101940000C946C0B2FEF3FEF4FE75FECC701B60134
:101950000E94891A87FDE1CF20E030E0A901C7018C
:10196000B6010E94891A87FF0AC06DE2CE010E946B
:10197000840B8C01F7FAF094F7F8F09402C000E0C1
:1019800010E0A12C60E070E080E09FE3AB1441F038
:1019900020E030E040E251E40E948D1AA394F6CF9B
:1019A0009B01AC01C701B6010E94251A6B017C01A5
:1019B0000E94FA1A2B013C010E94261B9B01AC01DC
:1019C000C701B6010E94241A6B017C012AE0B30111
:1019D000A201CE010E948B0B080F191FBB2039F00A
:1019E00061EF72E0CE010E946C0B080F191F7B2C77
:1019F000772041F120E030E040E251E4C701B60138
:101A00000E94DC1B6B017C010E94F51A4B01AA2489
:101A100097FCA094BA2C2AE030E0B501A401CE01D5
:101A20000E94E40B080F191FC501B4010E94281B76
:101A30009B01AC01C701B6010E94241A6B017C0115
:101A40007A94D6CFC801DF91CF911F910F91FF906B
:101A5000EF90DF90CF90BF90AF909F908F907F904E
:101A60006F905F904F9008950C94490C0F931F93C3
:101A7000CF93DF93EC018B01198218821A821C82AA
:101A80001B828AE08F83FE01E75FFE4F1182108286
:101A9000FE01E55FFE4F718360836DE372E0CE016E
:101AA00005960E94D1191886FE01E85FFE4F10824C
:101AB0006BE070E0C8010E94601899838883DF9111
:101AC000CF911F910F9108950F931F93CF93DF93A1
:101AD000EC018A01AA812A2F30E0FC01E55FFE4F6C
:101AE0008081918128173907C4F48881998148E061
:101AF00050E02BE0A29F800D911D11240E94E61959
:101B00008A81E881F9819BE0899FE00DF11D112414
:101B1000128701878A818F5F8A83DF91CF911F911E
:101B20000F910895FC01748363830895AC01475FAE
:101B30005E4FBC016B5F7F4F80E090E00C94F51925
:101B40002F923F924F925F926F927F928F929F92CD
:101B5000AF92BF92CF92DF92EF92FF920F931F93BB
:101B6000CF93DF9300D01F92CDB7DEB79C838B83DA
:101B70007C0128EFE21A2EEFF20A875F9E4F9A83CC
:101B800089832B803C8085E0280E311C4B805C8053
:101B900098E0490E511C86E794E00E94E30618166F
:101BA00019060CF067C086E794E00E941007182F12
:101BB000AB81BC8117968C91181340C049815A8122
:101BC000B101C2010E94F5196C01009789F1EB8106
:101BD000FC818280912C612C712CA12CB12CA81439
:101BE000B904E4F4AB81BC810D911C91060D171D65
:101BF00048E050E0B801C6010E94D819BBE06B0E66
:101C0000711C892B39F4D8011996ED91FC911A9722
:101C100019950EC0BFEFAB1ABB0AE1CFAB81BC81F7
:101C20001396ED91FC911497309711F0C601199518
:101C3000EB81FC811086D7011C92ADCF812F9927B3
:101C400087FD90950E94B319892B09F4A4CFF70161
:101C500080818F3F09F49FCF91E0980F9083EB81B3
:101C6000FC81E80FF11D1087EB81FC81E90FF11D6C
:101C7000108691CF0F900F900F900F90DF91CF9122
:101C80001F910F91FF90EF90DF90CF90BF90AF909A
:101C90009F908F907F906F905F904F903F902F908C
:101CA0000895CF92DF92EF92FF926B017C0181E861
:101CB000C8168EE3D806E104F10458F080E89EE3EC
:101CC0000E94C71680E8C81A8EE3D80AE108F10816
:101CD000EECFC601FF90EF90DF90CF900C94C71627
:101CE00084E090E008951F93CF93DF931F92CDB7C8
:101CF000DEB7182F1092DD0A1092DC0A1092D70678
:101D00001092C2061092C1061092C4061092C30629
:101D10001092C6061092C5061092C8061092C70609
:101D20001092CC061092CB061092CE061092CD06E1
:101D30001092D0061092CF061092D2061092D106C1
:101D40001092BB061092BA06209107023091080249
:101D50002F3F8FEF380729F0822F99830E94871435
:101D60009981109307029093080241E050E06AECD9
:101D700070E1812F0F90DF91CF911F910C94161479
:101D800080910702909108028F3F2FEF920711F088
:101D90000E9487148FEF9FEF9093080280930702B1
:101DA0001092D70608958091BB06811103C08091DF
:101DB000BA06089581E008952091BB06222381F0A0
:101DC0002CED36E0FC01318320838091C106909197
:101DD000C2060196FB01918380831092BB06089591
:101DE0002091BA062223C1F04091CD065091CE0633
:101DF0009A01220F331F2452394FFC013183208373
:101E00008091C3069091C406841B950B0196FB013B
:101E1000918380831092BA0608958091D706853009
:101E200031F41092D7061092BB061092BA060895AC
:101E30001092B8068091D5069091D60608958091AB
:101E4000B80608952091DC0A3091DD0AA901569563
:101E5000479556954795B901641B750B6817790727
:101E600048F4240F351F41E08217930708F040E043
:101E7000842F089580E008959093DD0A8093DC0A12
:101E80001092C2061092C1061092C4061092C306A8
:101E90001092C6061092C5061092C8061092C70688
:101EA0001092CC061092CB061092CE061092CD0660
:101EB0001092D0061092CF061092D2061092D10640
:101EC00081E08093BE068093BC068093BF0680931A
:101ED000BD068093C0061092BB061092BA0680938E
:101EE000D70608950F931F93CF93DF938C01EB01D7
:101EF0000E94220F882309F454C09E01220F331F31
:101F0000F901EF53F94F40815181DA01AA0FBB1F4C
:101F1000A452B94F0D931C93CE0101964F5F5F4FB2
:101F2000880F991FDC01A553B94F4D935C93DC01D9
:101F3000AF53B94F4D935C93D901A553B94F2D9130
:101F40003C9180819181821B930B809764F08091FA
:101F5000D706843021F485E08093D70647C0CE5F52
:101F6000C093D70643C031832083C130D10579F0B7
:101F70001CF4CD2BE9F03AC0C230D10561F02397B3
:101F8000A9F581E08093BE068093BC062FC081E056
:101F90008093C0062BC081E08093BF068093BD066E
:101FA00025C08091DC0A9091DD0A8017910738F4F2
:101FB000C801DF91CF911F910F910C943C0FCC0F72
:101FC000DD1FCF53D94F888199818F3F21E0920740
:101FD0005CF4FC01EE0FFF1FE452F94F1183008304
:101FE00001969983888302C01092D706DF91CF9122
:101FF0001F910F910895EF92FF920F931F93FC0191
:1020000080818823F9F017FD1DC0D801AA0FBB1FDE
:10201000A452B94F8D919C918217930718F04817DD
:10202000590708F410828091D70690E022E0E20E72
:10203000F11C8E159F0531F48081882319F081E011
:10204000FB0180831F910F91FF90EF900895AF9255
:10205000BF92CF92DF92EF92FF920F931F93CF9395
:10206000DF939C01220F331FF901EF53F94FA0803A
:10207000B18041E0A41AB108F501EE0FFF1FE45250
:10208000F94F40815181BA0157FF02C0695F7F4F0C
:10209000F3E075956795FA95E1F7EA0157FD239608
:1020A000D595C795D595C795C60FD71F6A01CC1A88
:1020B000DD0AC40FD51FF901E553F94F20813181A5
:1020C000A21AB30A8230910599F08330910549F143
:1020D000019709F054C0EE24E394F12C8501960198
:1020E000AE016BEB76E080EC96E00E94FB0F47C000
:1020F00092E0E92EF12C85019601AE016BEB76E0C2
:102100008FEB96E00E94FB0F9601AE016AEB76E042
:102110008DEB96E00E94FB0F8091D706843079F515
:1021200024C08091BF0681110CC083E0E82EF12C01
:1021300085019601AE016BEB76E08EEB96E00E9496
:10214000FB0F8091BD0681110CC003E0E02EF12C45
:1021500085019601AE016AEB76E08CEB96E00E9479
:10216000FB0F8091D706853051F48091BB06811119
:1021700006C08091BA06811102C01092D706DF9185
:10218000CF911F910F91FF90EF90DF90CF90BF9074
:10219000AF9008950F931F930E947E16AB01BC0170
:1021A0008091D8069091D906A091DA06B091DB060D
:1021B0008A019B01081B190B2A0B3B0BD901C80193
:1021C00012E0B695A795979587951A95D1F79093B4
:1021D000D6068093D506E091B906EE2319F0109249
:1021E000B90644C089319105F0F1E1E0E093B80609
:1021F0004093D8065093D9066093DA067093DB06B5
:102200004091D7064230F1F050F4442399F0413028
:1022100069F560E070E01F910F910C94720F4330EC
:10222000C1F0443019F563E070E00E94720F83E062
:1022300090E015C08B3613E09107C0F01F910F910D
:102240000C943C0F61E070E00E94720F81E090E01E
:1022500006C062E070E00E94720F82E090E01F9181
:102260000F910C94271081E08093B9061F910F9174
:1022700008952F923F924F925F926F927F928F922A
:102280009F92AF92BF92CF92DF92EF92FF920F9305
:102290001F93CF93DF93CDB7DEB7E0970FB6F894D7
:1022A000DEBF0FBECDBF4C012A01FC0188E090E0EB
:1022B0001192119201970097D9F7FE01319680E2B1
:1022C000DF011D928A95E9F73E01B1E26B0E711CA8
:1022D00080E1D3011D928A95E9F71B01E12CF12CD5
:1022E000E414F50409F45FC05101D1014D915D91F1
:1022F0001D01940180E090E08901D9016D917D91EB
:102300009D016115710521F4D8014D935C9318C0AE
:102310008B01A3E016950795AA95E1F76B01D6947A
:10232000C794D694C7940C0D1D1D6B01C01AD10A19
:10233000C416D50688F5600F711F4617570760F55C
:10234000D5018D939C939C01220F331F220F331FC5
:102350002E0F3F1FD901AD90BD90CD90DC9013970B
:10236000A40EB51EC11CD11CAD92BD92CD92DC92C3
:102370001397880F991F8E0F9F1FDC0190962D9148
:102380003C9191972F5F3F4F91963C932E9390975E
:102390008FEFE81AF80AA4CF01968830910509F06A
:1023A000ABCF80E022C07F016E01B1E3CB0ED11C28
:1023B0008401F301219131913F012115310561F033
:1023C00040E050E0D7016D917D918D919C910E94EC
:1023D000611CF80131832083F4E0EF0EF11C0E5FE5
:1023E0001F4F6C147D0429F781E0E0960FB6F89436
:1023F000DEBF0FBECDBFDF91CF911F910F91FF9038
:10240000EF90DF90CF90BF90AF909F908F907F9094
:102410006F905F904F903F902F9008958F929F9272
:10242000AF92BF92CF92DF92EF92FF92809107021C
:10243000909108020196D9F1812C912C5401809140
:10244000D706823028F4809107020E9487142FC09B
:102450008530C9F37501640185E0C80ED11CE11C0B
:10246000F11C63E070E080E090E00E94510E21E4F6
:10247000C2162BE4D2062CE4E206F10420F7809188
:10248000D706823010F0853079F47501640185E457
:10249000C80E82E4D81E8FE0E81EF11C60E472E4EE
:1024A0008FE090E00E94510E46015701C8CF809105
:1024B000BB06811104C08091BA06882319F085E01B
:1024C0008093D706FF90EF90DF90CF90BF90AF90B2
:1024D0009F908F90089580910702909108028F3FFE
:1024E0002FEF920731F041E050E06AEC70E10C947C
:1024F000161408955F926F927F928F929F92AF927F
:10250000BF92CF92DF92EF92FF920F931F93CF93E0
:10251000DF93582E4B018A0159010E940E12E801E7
:1025200009900020E9F72197C01BD10B61E0852DB0
:102530000E944B06C12CD12CC00FD11F60E0852D0D
:10254000CA14DB0421F10E9484067801612C712CED
:10255000EC16FD06C1F081E06826662D852D0E94EF
:102560008406F70181917F01F40194E08902E00D76
:10257000F11D1124E05CF1096081718182819381F8
:102580000E94510EE5CFEFEFCE1ADE0AD7CF0E94A0
:102590008406DF91CF911F910F91FF90EF90DF9014
:1025A000CF90BF90AF909F908F907F906F905F90F3
:1025B0000C946B126F927F928F929F92AF92BF9208
:1025C000CF92DF92EF92FF920F931F93CF93DF93FF
:1025D0001F92CDB7DEB73C01B62EFC0110861186E6
:1025E00012861386148661E08B2D49830E944B0668
:1025F00060E08B2D0E9484064981642F70E080E0AA
:1026000090E00E94A11661E08B2D0E94840688E272
:1026100090E00E94C71660E08B2D0E944B0600E9F7
:1026200011E08B2D0E94BA06892B41F4015011094B
:1026300001151105B1F78EEF9FEF52C000E911E0CF
:102640008B2D0E94BA06019731F401501109011532
:102650001105B1F7F0CF98E2992E812C20E8A22E37
:1026600000E911E08B2D0E94BA06892B31F401504C
:10267000110901151105B1F7DECF0E947E166B011D
:102680007C0100E911E08B2D0E94BA06019731F41C
:102690000150110901151105B1F7CDCF0E947E1629
:1026A0006C197D098E099F096932710581059105B3
:1026B00030F0F301E80DF11D80858A298087A6940A
:1026C00019F4839480E8A82E9A9451F661E08B2D3A
:1026D0000E944B0661E08B2D0E94840680E090E012
:1026E0000F90DF91CF911F910F91FF90EF90DF90AE
:1026F000CF90BF90AF909F908F907F906F900895F4
:102700000F931F93CF93DF93EC0142E10E94DA1203
:10271000009769F040E050EC69E774EC4883598316
:102720006A837B834C835D836E837F8321C018859E
:10273000612F70E080E090E00E94261B688379831F
:102740008A839B830A85602F70E080E090E00E947E
:10275000261B6C837D838E839F83100F81E090E026
:102760002C85211302C080E090E09195819591091C
:10277000DF91CF911F910F910895CF93DF93EC01DB
:1027800041E00E94DA12009769F040E050EC69E7FE
:1027900074EC488359836A837B834C835D836E83A7
:1027A0007F8341C0698588850E945B18BC0180E0F9
:1027B00090E00E94261B2DEC3CEC4CEC5DE30E946B
:1027C000DC1B688379838A839B838A856B858F77FB
:1027D0000E945B18BC0180E090E00E94261B2DEC5B
:1027E0003CEC4CEC5DE30E94DC1B6C837D838E83B0
:1027F0009F833A8537FF07C0DC01CB01B0588C833B
:102800009D83AE83BF832885230F8985280F8B8501
:10281000280F81E090E03C85321302C080E090E018
:10282000919581959109DF91CF910895883008F0B5
:102830006DC0E82FF0E0EE0FFF1FE252F54F7183FD
:10284000608390E0FC013197E730F10590F5EC569C
:10285000FF4F0C94831C809169008C7F842B8093A4
:102860006900E89A089580916900440F551F440F4C
:10287000551F837F842B80936900E99A0895809186
:10288000690074E0440F551F7A95E1F78F7C842B23
:1028900080936900EA9A08958091690066E0440F88
:1028A000551F6A95E1F78F73842B80936900EB9A2B
:1028B000089580916A008C7F842B80936A00EC9A43
:1028C000089580916A00440F551F440F551F837F60
:1028D000842B80936A00ED9A089580916A0024E029
:1028E000440F551F2A95E1F78F7C842B80936A0053
:1028F000EE9A089580916A0096E0440F551F9A95CC
:10290000E1F78F73842B80936A00EF9A08958830E3
:1029100010F5482F50E0FA013197E730F10560F4E7
:10292000E556FF4F0C94831CE8980DC0E9980BC046
:10293000EA9809C0EB9807C0EC9805C0ED9803C071
:10294000EE9801C0EF98E82FF0E0EE0FFF1FE25283
:10295000F54F1182108208951F920F920FB60F92B9
:1029600011240BB60F922F933F934F935F936F9366
:102970007F938F939F93AF93BF93EF93FF93809138
:10298000E20A9091E30A892B29F0E091E20AF091A2
:10299000E30A1995FF91EF91BF91AF919F918F91AC
:1029A0007F916F915F914F913F912F910F900BBE4F
:1029B0000F900FBE0F901F9018951F920F920FB699
:1029C0000F9211240BB60F922F933F934F935F9367
:1029D0006F937F938F939F93AF93BF93EF93FF93E7
:1029E0008091E40A9091E50A892B29F0E091E40AAC
:1029F000F091E50A1995FF91EF91BF91AF919F91E9
:102A00008F917F916F915F914F913F912F910F9097
:102A10000BBE0F900FBE0F901F9018951F920F9234
:102A20000FB60F9211240BB60F922F933F934F9333
:102A30005F936F937F938F939F93AF93BF93EF9326
:102A4000FF938091E60A9091E70A892B29F0E091A3
:102A5000E60AF091E70A1995FF91EF91BF91AF91C6
:102A60009F918F917F916F915F914F913F912F91A6
:102A70000F900BBE0F900FBE0F901F9018951F92D6
:102A80000F920FB60F9211240BB60F922F933F9314
:102A90004F935F936F937F938F939F93AF93BF9366
:102AA000EF93FF938091E80A9091E90A892B29F02E
:102AB000E091E80AF091E90A1995FF91EF91BF9131
:102AC000AF919F918F917F916F915F914F913F91C6
:102AD0002F910F900BBE0F900FBE0F901F90189567
:102AE0001F920F920FB60F9211240BB60F922F93D5
:102AF0003F934F935F936F937F938F939F93AF9386
:102B0000BF93EF93FF938091DE0A9091DF0A892BA8
:102B100029F0E091DE0AF091DF0A1995FF91EF911B
:102B2000BF91AF919F918F917F916F915F914F91E5
:102B30003F912F910F900BBE0F900FBE0F901F90E3
:102B400018951F920F920FB60F9211240BB60F9289
:102B50002F933F934F935F936F937F938F939F93A5
:102B6000AF93BF93EF93FF938091E00A9091E10AB6
:102B7000892B29F0E091E00AF091E10A1995FF9183
:102B8000EF91BF91AF919F918F917F916F915F91E5
:102B90004F913F912F910F900BBE0F900FBE0F9052
:102BA0001F9018951F920F920FB60F9211240BB61B
:102BB0000F922F933F934F935F936F937F938F93D6
:102BC0009F93AF93BF93EF93FF938091EA0A909105
:102BD000EB0A892B29F0E091EA0AF091EB0A1995AA
:102BE000FF91EF91BF91AF919F918F917F916F91E5
:102BF0005F914F913F912F910F900BBE0F900FBEA1
:102C00000F901F9018951F920F920FB60F921124DC
:102C10000BB60F922F933F934F935F936F937F93D6
:102C20008F939F93AF93BF93EF93FF938091EC0AA1
:102C30009091ED0A892B29F0E091EC0AF091ED0AD0
:102C40001995FF91EF91BF91AF919F918F917F91D6
:102C50006F915F914F913F912F910F900BBE0F900D
:102C60000FBE0F901F9018951F920F920FB60F92E4
:102C700011242F933F938F939F93AF93BF93809192
:102C8000EF0A9091F00AA091F10AB091F20A309106
:102C9000EE0A23E0230F2D3720F40196A11DB11D6C
:102CA00005C026E8230F0296A11DB11D2093EE0A50
:102CB0008093EF0A9093F00AA093F10AB093F20A7E
:102CC0008091F30A9091F40AA091F50AB091F60A66
:102CD0000196A11DB11D8093F30A9093F40AA0936D
:102CE000F50AB093F60ABF91AF919F918F913F91F2
:102CF0002F910F900FBE0F901F9018953FB7F8942B
:102D00008091F30A9091F40AA091F50AB091F60A25
:102D100026B5A89B05C02F3F19F00196A11DB11D36
:102D20003FBF6627782F892F9A2F620F711D811D53
:102D3000911D42E0660F771F881F991F4A95D1F7B2
:102D40000895CF92DF92EF92FF92CF93DF936B01C2
:102D50007C010E947E16EB01C114D104E104F10450
:102D600079F00E947E166C1B7D0B683E7340A0F3C9
:102D700081E0C81AD108E108F108C851DC4FECCF56
:102D8000DF91CF91FF90EF90DF90CF900895019762
:102D9000009739F0880F991F880F991F02970197A4
:102DA000F1F70895789484B5826084BD84B581601C
:102DB00084BD85B5826085BD85B5816085BDEEE643
:102DC000F0E0808181608083E1E8F0E01082808122
:102DD00082608083808181608083E0E8F0E0808190
:102DE00081608083E1EBF0E0808184608083E0EBB0
:102DF000F0E0808181608083E1E9F0E080818260A1
:102E00008083808181608083E0E9F0E0808181605F
:102E10008083E1EAF0E0808182608083808181604C
:102E20008083E0EAF0E0808181608083E1E2F1E08C
:102E3000808182608083808181608083E0E2F1E034
:102E4000808181608083EAE7F0E080818460808314
:102E500080818260808380818160808380818068BE
:102E600080831092C1000895CF93DF938230910543
:102E700010F482E090E0E091F90AF091FA0A20E083
:102E800030E0A0E0B0E0309739F14081518148173F
:102E90005907B8F04817590771F482819381109748
:102EA00029F013969C938E9312972CC09093FA0A54
:102EB0008093F90A27C02115310531F042175307D5
:102EC00018F0A901DB0101C0EF019A01BD01DF018A
:102ED0000280F381E02DD7CF21153105F9F0281BB1
:102EE000390B2430310580F48A819B81611571058D
:102EF00021F0FB019383828304C09093FA0A8093AC
:102F0000F90AFE01329644C0FE01E20FF31F8193DD
:102F1000919322503109398328833AC02091F70ACE
:102F20003091F80A232B41F420910B0230910C02CE
:102F30003093F80A2093F70A2091090230910A028F
:102F40002115310541F42DB73EB740910D02509146
:102F50000E02241B350BE091F70AF091F80AE217F4
:102F6000F307A0F42E1B3F0B2817390778F0AC01AC
:102F70004E5F5F4F2417350748F04E0F5F1F509389
:102F8000F80A4093F70A8193919302C0E0E0F0E0E1
:102F9000CF01DF91CF910895CF93DF93009709F48C
:102FA00087C0FC01329713821282C091F90AD09136
:102FB000FA0A209781F420813181280F391F8091EE
:102FC000F70A9091F80A8217930779F5F093F80AB7
:102FD000E093F70A6DC0DE0120E030E0AE17BF07D6
:102FE00050F412964D915C9113979D014115510536
:102FF00009F1DA01F3CFB383A28340815181840FB9
:10300000951F8A179B0771F48D919C911197840FDE
:10301000951F02969183808312968D919C911397B0
:10302000938382832115310529F4F093FA0AE09302
:10303000F90A3EC0D9011396FC93EE9312974D9175
:103040005D91A40FB51FEA17FB0779F48081918188
:10305000840F951F0296D90111969C938E938281BD
:10306000938113969C938E931297E0E0F0E08A810F
:103070009B81009719F0FE01EC01F9CFCE01029679
:1030800028813981820F931F2091F70A3091F80A25
:103090002817390769F4309729F41092FA0A109228
:1030A000F90A02C013821282D093F80AC093F70A79
:1030B000DF91CF91089570E09B01382BC9010895ED
:1030C0000F931F93CF93DF93869F8001879F100DEF
:1030D000969F100D1124C8010E943417EC0100972F
:1030E00029F0A80160E070E00E94C119CE01DF91D3
:1030F000CF911F910F9108952F923F925F926F92FF
:103100007F928F929F92AF92BF92CF92DF92EF9277
:10311000FF920F931F93CF93DF938B01EA01611509
:10312000710521F0DB018C9311969C93209739F067
:103130009E01225031092332310508F0D8C07C01AC
:103140006701BFEFCB1ADB0A5601F7016080862DBD
:1031500090E00E94B919892B11F07601F1CFFDE2C0
:103160006F120AC0570182E0A80EB11CD701119658
:103170006C90772473940BC0BBE26B1207C05701AD
:10318000E2E0AE0EB11CD70111966C90712CCE010D
:103190008F7E892B89F4B0E36B1237C0F5018081F3
:1031A0008F7D8835D1F46180F2E0AF0EB11C872DA0
:1031B0008260782EC0E1D0E0CA30D10551F1C03133
:1031C000D10521F0C830D10599F409C0CC24CA94A6
:1031D000DC2CEC2CAFE0FA2E22C0209769F7C8E077
:1031E000D0E0CC24CA94DC2CEC2CFFE1FF2E17C0DD
:1031F0006FEF7FEFCB019E01442737FD4095542FA1
:103200000E94611C69017A010AC02097A9F6CAE0F0
:10321000D0E0E9E9CE2EDC2CEC2CE9E1FE2EF50124
:1032200060E020E030E0A9014E01AA2497FCA094C0
:10323000BA2C1F0170ED572E560CA9E0A51570F49D
:103240008FEB860D8A3118F499EC592E06C08FE960
:10325000860D8A3148F589EA582E560C852D90E066
:103260008C179D070CF56F3FD9F0C216D306E40604
:10327000F50698F0C501B4010E94511C9B01AC01F8
:10328000852D90E0A0E0B0E0280F391F4A1F5B1F9A
:10329000281739074A075B0710F46FEF01C061E098
:1032A0003196D1016C90C5CF0115110551F06623FF
:1032B00011F0319703C071FE04C03297D801ED932D
:1032C000FC9370FE07C050954095309521953F4F77
:1032D0004F4F5F4F67FF10C082E290E09093FC0A6F
:1032E0008093FB0A6FEF7FEF8FEF9FEF07C060E0E7
:1032F00070E080E090E002C0B901CA01DF91CF9197
:103300001F910F91FF90EF90DF90CF90BF90AF9003
:103310009F908F907F906F905F903F902F90089537
:10332000FC0188279927E89421912032E9F329307C
:1033300010F02E30C8F32B3241F02D3239F468945E
:1033400004C00E941C1A820F911D219120532A3023
:10335000C0F31EF4909581959F4F0895F8940C94B6
:103360009C1C803209F091118EC280528F55E0F77B
:103370000895911188C2803219F089508550D0F794
:103380000895DC0101C06D9341505040E0F708956D
:10339000FB01DC018D91019080190110D9F3990B8B
:1033A0000895FB01DC0101900D920020E1F70895E2
:1033B000FB01DC014150504030F08D9101908019AB
:1033C00019F40020B9F7881B990B0895FB01DC0163
:1033D0004150504048F001900D920020C9F701C0C3
:1033E0001D9241505040E0F70895FA01A191B0813B
:1033F000009719F41097E1F0CD01DC01CD010D909B
:10340000002011F4C00113C0FB012191222319F007
:103410002015D9F7F3CFFB012191201519F41E9245
:10342000119606C02223C1F70D900020A1F7D0010C
:10343000FA01A193B08308957AE0979F902D879F1A
:10344000802D910D112408955058BB27AA270ED026
:1034500075C166D130F06BD120F031F49F3F11F48B
:103460001EF45BC10EF4E095E7FB51C1E92F77D163
:1034700080F3BA17620773078407950718F071F491
:103480009EF58FC10EF4E0950B2EBA2FA02D0B01E7
:10349000B90190010C01CA01A0011124FF27591B99
:1034A00099F0593F50F4503E68F11A16F040A22F9F
:1034B000232F342F4427585FF3CF46953795279510
:1034C000A795F0405395C9F77EF41F16BA0B620B0F
:1034D000730B840BBAF09150A1F0FF0FBB1F661F56
:1034E000771F881FC2F70EC0BA0F621F731F841F99
:1034F00048F4879577956795B795F7959E3F08F0BF
:10350000B3CF9395880F08F09927EE0F979587957D
:103510000895D9D008F481E008950CD00FC107D1E7
:1035200040F0FED030F021F45F3F19F0F0C05111AF
:1035300039C1F3C014D198F39923C9F35523B1F3DA
:10354000951B550BBB27AA2762177307840738F012
:103550009F5F5F4F220F331F441FAA1FA9F333D071
:103560000E2E3AF0E0E830D091505040E695001C25
:10357000CAF729D0FE2F27D0660F771F881FBB1FE1
:10358000261737074807AB07B0E809F0BB0B802DBB
:10359000BF01FF2793585F4F2AF09E3F510568F007
:1035A000B6C000C15F3FECF3983EDCF3869577959B
:1035B0006795B795F7959F5FC9F7880F911D969509
:1035C000879597F90895E1E0660F771F881FBB1F65
:1035D000621773078407BA0720F0621B730B840B12
:1035E000BA0BEE1F88F7E095089504D06894B111E6
:1035F000D9C00895BCD088F09F5790F0B92F992773
:10360000B751A0F0D1F0660F771F881F991F1AF0ED
:10361000BA95C9F712C0B13081F0C3D0B1E00895B6
:10362000C0C0672F782F8827B85F39F0B93FCCF337
:10363000869577956795B395D9F73EF490958095E3
:10364000709561957F4F8F4F9F4F0895E89409C003
:1036500097FB3EF490958095709561957F4F8F4FC5
:103660009F4F9923A9F0F92F96E9BB279395F695DB
:10367000879577956795B795F111F8CFFAF4BB0F59
:1036800011F460FF1BC06F5F7F4F8F4F9F4F16C0BD
:10369000882311F096E911C0772321F09EE8872F47
:1036A000762F05C0662371F096E8862F70E060E003
:1036B0002AF09A95660F771F881FDAF7880F96957C
:1036C000879597F90895990F0008550FAA0BE0E820
:1036D000FEEF16161706E807F907C0F012161306D4
:1036E000E407F50798F0621B730B840B950B39F414
:1036F0000A2661F0232B242B252B21F408950A267A
:1037000009F4A140A6958FEF811D811D089597F9B9
:103710009F6780E870E060E008959FEF80EC089577
:1037200000240A94161617061806090608950024A0
:103730000A9412161306140605060895092E03941A
:10374000000C11F4882352F0BB0F40F4BF2B11F48E
:1037500060FF04C06F5F7F4F8F4F9F4F089557FDED
:103760009058440F551F59F05F3F71F04795880FEF
:1037700097FB991F61F09F3F79F087950895121686
:1037800013061406551FF2CF4695F1DF08C0161632
:1037900017061806991FF1CF8695710561050894E3
:1037A0000895E894BB2766277727CB0197F90895FA
:1037B0008ADF08F48FEF08950BD0C0CFB1DF28F077
:1037C000B6DF18F0952309F0A2CFA7CF1124EACFD6
:1037D000C6DFA0F3959FD1F3950F50E0551F629F70
:1037E000F001729FBB27F00DB11D639FAA27F00D5A
:1037F000B11DAA1F649F6627B00DA11D661F829F81
:103800002227B00DA11D621F739FB00DA11D621F65
:10381000839FA00D611D221F749F3327A00D611D82
:10382000231F849F600D211D822F762F6A2F112464
:103830009F5750408AF0E1F088234AF0EE0FFF1FB7
:10384000BB1F661F771F881F91505040A9F79E3FEE
:10385000510570F05CCFA6CF5F3FECF3983EDCF3F0
:10386000869577956795B795F795E7959F5FC1F72B
:10387000FE2B880F911D9695879597F9089523DF64
:10388000880B990B08959927882708950E94891C11
:10389000A59F900DB49F900DA49F800D911D1124A4
:1038A0000895DB018F939F930E94461CBF91AF91B7
:1038B000A29F800D911DA39F900DB29F900D11248A
:1038C0000895A1E21A2EAA1BBB1BFD010DC0AA1F61
:1038D000BB1FEE1FFF1FA217B307E407F50720F079
:1038E000A21BB30BE40BF50B661F771F881F991FF4
:1038F0001A9469F760957095809590959B01AC013D
:10390000BD01CF010895EE0FFF1F0590F491E02D4A
:103910001994A29FB001B39FC001A39F700D811D98
:103920001124911DB29F700D811D1124911D0895C8
:0C3930000790F691E02D1994F894FFCF59
:10393C0001000000FFFF01FFFF0000FD0A800045B1
:10394C00525220756E6B6E6F776E5F636F6D6D612B
:10395C006E640D0A007265616479206172642D30A9
:10396C002E302E310D0A0050494E47002C200052AB
:10397C0046207265636569766520004452004457A1
:10398C0000415200415700504D00524600444854EB
:10399C000052455345540045525220617267756D73
:1039AC00656E745F6572726F720D0A0041434B0D48
:1039BC000A0073656E6400726563656976650072F2
:1039CC0061770041434B2000455252206368656388
:1039DC006B73756D5F6572726F720D0A0045525292
:1039EC002074696D656F75745F6572726F720D0A04
:1039FC000045525220756E6B6E6F776E5F657272FA
:103A0C006F720D0A00000000003D07440BE3061026
:103A1C0007F50632076E616E00696E66006F76669A
:043A2C00002E000068
:00000001FF
