:100000000C9463000C94EF0F0C941C100C948B0058
:100010000C948B000C948B000C948B000C948B0034
:100020000C948B000C948B000C948B000C948B0024
:100030000C948B000C948B000C948B000C948B0014
:100040000C9449100C948B000C9491050C94D405DD
:100050000C948B000C948B000C948B000C948B00F4
:100060000C948B000C948B00000000070002010030
:100070000003040600000000000000000102040864
:100080001020408001020408102001020408102002
:10009000040404040404040402020202020203032E
:1000A00003030303000000002300260029000000D2
:1000B0000000250028002B0000000000240027007D
:1000C0002A00B6038A0611241FBECFEFD8E0DEBF98
:1000D000CDBF11E0A0E0B1E0E2E1FDE202C0059099
:1000E0000D92AA3EB107D9F717E0AAEEB1E001C020
:1000F0001D92A930B107E1F710E0C6ECD0E004C0D2
:100100002297FE010E948316C23CD107C9F70E94C4
:10011000E0060C949D130C9400006FE071E086E003
:1001200093E00C942B070E94690A65E271E086E077
:1001300093E00C942B07DC01ED91FC910190F08190
:10014000E02D0994CF93DF936DE271E086E093E0B8
:100150000E942B0789EF91E00E943F09EC01009774
:1001600059F060E270E086E093E00E949B00BE01DF
:1001700086E093E00E942B0765E771E086E093E05C
:10018000DF91CF910C942B07CF92DF92EF92FF92E9
:100190000F931F93CF93DF93CDB7DEB764970FB65E
:1001A000F894DEBF0FBECDBF8091F801882371F1B6
:1001B0000E94C80A882309F48DC00E94C10A8C01DC
:1001C0000E94190A809FB001819F700D909F700D51
:1001D00011244AE050E086E093E00E94EC0762E3DD
:1001E00071E086E093E00E942B078091EA018F5F27
:1001F0008093EA01803108F46DC01092EA016AE050
:1002000070E086E093E00E949B0064C00E947C0A3C
:10021000882309F45FC07E0181E1E80EF11CB7017B
:10022000CE0143960E94850A0E94190A6C014989F1
:100230005A896B897C89CE0101960E94E20C65E3A4
:1002400071E086E093E00E942B078E010F5F1F4F45
:10025000F801819191918F018C9DA0018D9D500D90
:100260009C9D500D112460E070E02AE030E086E0B3
:1002700093E00E94DF0760E270E086E093E00E9476
:100280009B000E151F0521F700E010E089899A896F
:1002900008171907B8F4A0910603B0910703C80125
:1002A000880F991FEB89FC89E80FF91F6081718124
:1002B000605D7F4FED91FC9186E093E009950F5FC3
:1002C0001F4FE4CF65E771E086E093E00E942B07C3
:1002D0000E94B60A64960FB6F894DEBF0FBECDBF7B
:1002E000DF91CF911F910F91FF90EF90DF90CF9012
:1002F000089540E052EC61E070E086E093E00E94F7
:100300000F064AE053E061E471E089EF91E00E945A
:100310000D0946E553E064E471E089EF91E00E9445
:100320000D0940E353E067E471E089EF91E00E943A
:100330000D0946E753E06AE471E089EF91E00E941D
:100340000D0946E953E06DE471E089EF91E00E9408
:100350000D094BE752E060E571E089EF91E00E9402
:100360000D0942EA50E06DE271E089EF91E00E94F0
:100370000D0948EA52E063E571E089EF91E00E94DF
:100380000D0943E950E067E571E089EF91E00E94D3
:100390000D096DE870E089EF91E00E943B0965E28C
:1003A00071E086E093E00C942B0789EF91E00E94C6
:1003B00049090C94C4006DE571E086E093E00C946B
:1003C0002B0789EF91E00E943F09009711F40C94EC
:1003D000DB010E947F130E941C0A81E08093F801D8
:1003E00062E771E086E093E00C942B0789EF91E0DF
:1003F0000E943F09009711F40C94DB010E947F13C7
:1004000090930501809304010E941C0A1092F80148
:1004100062E771E086E093E00C942B078F929F9245
:10042000AF92BF92CF92DF92EF92FF920F931F9302
:10043000CF93DF93CDB7DEB7A0970FB6F894DEBFAA
:100440000FBECDBF89EF91E00E943F09009719F4DC
:100450000E94DB013DC00E947F137C0189EF91E087
:100460000E943F090097A1F30E947F136C018E0147
:100470000F5F1F4F5E0181E2A80EB11C480189EF9A
:1004800091E00E943F09009719F34AE050E060E0D4
:1004900070E00E946B12F8016193719381939193C4
:1004A0008F01EA15FB0559F789EF91E00E943F099A
:1004B000009771F29601AC01B401C7010E94230EAE
:1004C0001092F80162E771E086E093E00E942B074A
:1004D000A0960FB6F894DEBF0FBECDBFDF91CF91CF
:1004E0001F910F91FF90EF90DF90CF90BF90AF9052
:1004F0009F908F900895CF93DF9389EF91E00E94B2
:100500003F09EC01009721F4DF91CF910C94DB01BE
:1005100068E771E00E94B713892B21F4DF91CF9136
:100520000C940E026DE771E0CE010E94B713892B87
:1005300021F4DF91CF910C94F60165E871E0CE01D2
:100540000E94B713892B01F7DF91CF910C94E10141
:10055000CF93DF9389EF91E00E943F09009721F448
:10056000DF91CF910C94DB010E947F13EC0189EFA6
:1005700091E00E943F09009799F30E947F13682F32
:100580008BEE91E02B9719F40E94290F02C00E9474
:10059000660F8F3F2FEF920791F1009729F0029697
:1005A00089F563EA71E030C069E871E086E093E0C4
:1005B0000E942B074091EF015091F0016091F101F1
:1005C0007091F20121E030E086E093E00E94DD08C6
:1005D00060E270E086E093E00E949B004091EB01B6
:1005E0005091EC016091ED017091EE0121E030E05D
:1005F00086E093E00E94DD0865E771E005C06EE8E3
:1006000071E002C067EB71E086E093E0DF91CF918B
:100610000C942B07CF93DF9389EF91E00E943F0961
:10062000009721F4DF91CF910C94DB010E947F139E
:100630000E94D004EC0169E871E086E093E00E943A
:100640002B07BE01605D7F4F86E093E00E949B0018
:1006500065E771E086E093E0DF91CF910C942B0782
:10066000CF93DF9389EF91E00E943F09009721F437
:10067000DF91CF910C94DB010E947F130E94BC0399
:10068000EC0169E871E086E093E00E942B074AE004
:1006900050E0BE0186E093E00E94D70765E771E075
:1006A00086E093E0DF91CF910C942B07CF9389EFF5
:1006B00091E00E943F09009719F4CF910C94DB015F
:1006C0000E947F13C82F89EF91E00E943F09009795
:1006D000A1F30E947F13682F8C2F0E949A0462E777
:1006E00071E086E093E0CF910C942B07CF9389EFD4
:1006F00091E00E943F09009719F4CF910C94DB011F
:100700000E947F13C82F89EF91E00E943F09009754
:10071000A1F30E947F13BC018C2F0E94D90362E7D2
:1007200071E086E093E0CF910C942B07CF9389EF93
:1007300091E00E943F09009719F4CF910C94DB01DE
:100740000E947F13C82F89EF91E00E943F09009714
:10075000A1F30E947F13682F8C2F0E94610462E72F
:1007600071E086E093E0CF910C942B0760E170E09C
:1007700089EF91E00C94DF088E3008F08E5087707E
:100780002091060190E4299F90011124822B8093EF
:100790007C0080917A00806480937A0080917A0056
:1007A00086FDFCCF809178002091790090E0922B1B
:1007B00008951F93CF93DF93182FEB0161E00E9400
:1007C0006104209711F460E004C0CF3FD10539F4F3
:1007D00061E0812FDF91CF911F910C949A04E12F5A
:1007E000F0E0E859FF4FE491E330F9F048F4E130EC
:1007F000B9F0E230A1F584B5806284BDC8BD34C0D3
:10080000E630E9F0E73019F1E43049F580918000F5
:10081000806280938000D0938B00C0938A0024C0B4
:1008200084B5806884BDC7BD1FC08091800080688A
:1008300080938000D0938900C093880015C0809178
:10084000B00080688093B000C093B3000DC0809169
:10085000B00080628093B000C093B40005C0C0387F
:10086000D1050CF0B5CFAFCFDF91CF911F91089597
:10087000833081F028F4813099F08230A1F008951E
:100880008630A9F08730B9F08430D1F480918000AF
:100890008F7D03C0809180008F77809380000895C2
:1008A00084B58F7702C084B58F7D84BD0895809113
:1008B000B0008F7703C08091B0008F7D8093B0002F
:1008C0000895CF93DF9390E0FC01E458FF4F24910B
:1008D000FC01E057FF4F8491882349F190E0880F95
:1008E000991FFC01E854FF4FA591B49182559F4F89
:1008F000FC01C591D4919FB7611108C0F8948C9107
:10090000209582238C93888182230AC0623051F41F
:10091000F8948C91322F309583238C938881822B8D
:10092000888304C0F8948C91822B8C939FBFDF91B5
:10093000CF9108950F931F93CF93DF931F92CDB75D
:10094000DEB7282F30E0F901E859FF4F8491F90113
:10095000E458FF4F1491F901E057FF4F0491002331
:10096000C9F0882321F069830E9438046981E02F4F
:10097000F0E0EE0FFF1FE255FF4FA591B4919FB736
:10098000F8948C91611103C01095812301C0812BD3
:100990008C939FBF0F90DF91CF911F910F9108957E
:1009A000CF93DF93282F30E0F901E859FF4F84916E
:1009B000F901E458FF4FD491F901E057FF4FC4917A
:1009C000CC2391F081110E943804EC2FF0E0EE0F5F
:1009D000FF1FEC55FF4FA591B4912C912D2381E081
:1009E00090E021F480E002C080E090E0DF91CF91C0
:1009F0000895FC0124853585F901E05CFF4F808175
:100A00009181F901EE5BFF4F20813181821B930BB5
:100A10008F7399270895FC0184859585FC01E05C1E
:100A2000FF4F40815181FC01EE5BFF4F20813181FE
:100A30004217530741F00190F081E02DE80FF91FB4
:100A4000808190E008958FEF9FEF0895FC018485E9
:100A50009585FC01E05CFF4F40815181FC01EE5B1C
:100A6000FF4F208131814217530779F0A081B18176
:100A7000A80FB91F8C91208131812F5F3F4F2F73B9
:100A800033273183208390E008958FEF9FEF0895FF
:100A9000FC0181A1882329F0A489B5898C9186FF66
:100AA000FBCF11A20895CF93DF93FC0126853785F4
:100AB000D901A05CBF4F8D919C91119701968F73C6
:100AC0009927E901CE5BDF4F48815981841795074B
:100AD000D9F30D90BC91A02DA20FB31F6C93A685E6
:100AE000B785A05CBF4F11969C938E93A689B7895A
:100AF0002C9181E090E0078C02C0880F991F0A9426
:100B0000E2F7282B2C9381E081A30488F589E02D5E
:100B100080818064808381E090E0DF91CF910895AF
:100B200008951F920F920FB60F9211242F933F93A7
:100B30004F938F939F93EF93FF938091C00082FD1B
:100B40001CC04091C6008091AC039091AD0301960A
:100B50008F7399272091AE033091AF0382179307CB
:100B600071F0E091AC03F091AD03E459FC4F408388
:100B70009093AD038093AC0302C08091C600FF91B7
:100B8000EF919F918F914F913F912F910F900FBEB9
:100B90000F901F90189586E093E00E94F904892B2E
:100BA00011F00C94900508951F920F920FB60F92BA
:100BB00011242F933F938F939F93EF93FF93209153
:100BC00068033091690380916A0390916B03281741
:100BD000390731F48091C1008F7D8093C10014C02A
:100BE000E0916A03F0916B03E85DFC4F20818091F6
:100BF0006A0390916B0301968F73992790936B030F
:100C000080936A032093C600FF91EF919F918F918B
:100C10003F912F910F900FBE0F901F901895CF927C
:100C2000DF92EF92FF92CF93DF93EC016A017B0199
:100C3000EC89FD8981E090E008A002C0880F991F2F
:100C40000A94E2F7808360E874E88EE190E0A701FF
:100C500096010E94501621503109410951095695BB
:100C6000479537952795211580E1380798F0EC894D
:100C7000FD89108260E472E48FE090E0A7019601A4
:100C80000E94501621503109410951095695479546
:100C900037952795E889F9893083EA89FB8920838C
:100CA00019A2EE89FF89408181E090E09C010C8CC3
:100CB00002C0220F331F0A94E2F7422B4083EE89D1
:100CC000FF8940819C010D8C02C0220F331F0A94C2
:100CD000E2F7422B4083EE89FF8940819C010E8C14
:100CE00002C0220F331F0A94E2F7422B4083EE89A1
:100CF000FF8920810F8C02C0880F991F0A94E2F7A8
:100D0000809582238083DF91CF91FF90EF90DF90D9
:100D1000CF900895109209031092080388EE93E093
:100D2000A0E0B0E080930A0390930B03A0930C0320
:100D3000B0930D038FEC91E090930703809306032B
:100D40008CE693E0909313038093120388E293E080
:100D5000909315038093140385EC90E09093170310
:100D60008093160384EC90E090931903809318030A
:100D700080EC90E090931B0380931A0381EC90E049
:100D800090931D0380931C0382EC90E090931F03CB
:100D900080931E0386EC90E09093210380932003C0
:100DA00084E08093220383E08093230387E0809391
:100DB000240385E08093250381E080932603089532
:100DC0000E94E8100E947901CBECD5E00E94D50189
:100DD0002097E1F30E94CB05F9CFCF92DF92EF92FB
:100DE000FF920F931F93CF93DF936C017A01EB0176
:100DF000E60EF71E00E010E0CE15DF0561F0699108
:100E0000D601ED91FC910190F081E02DC60109958C
:100E1000080F191FF1CFC801DF91CF911F910F91DA
:100E2000FF90EF90DF90CF9008956115710581F0EC
:100E3000DB010D900020E9F7AD0141505109461B3F
:100E4000570BDC01ED91FC910280F381E02D0994B8
:100E500080E090E008950C941507DC01ED91FC9181
:100E60000190F081E02D09948F929F92AF92BF92F2
:100E7000CF92DF92EF92FF920F931F93CF93DF9366
:100E8000CDB7DEB7A1970FB6F894DEBF0FBECDBFCA
:100E90007C01C42EE52FCB01D22E19A221E02D1505
:100EA00010F02AE0D22E8E010F5D1F4F8D2C912C59
:100EB000A12CB12C6C2D7E2FA50194010E945016FF
:100EC0008C2DD29E80191124015011098A3014F4FE
:100ED000805D01C0895CF8018083211531054105E1
:100EE000510521F0C22EE32FCA01E4CFB801C7019A
:100EF0000E941507A1960FB6F894DEBF0FBECDBFB6
:100F0000DF91CF911F910F91FF90EF90DF90CF90E5
:100F1000BF90AF909F908F900895CF92DF92EF9205
:100F2000FF920F931F93CF93DF93EC016A017B0134
:100F30002115310579F4E881F9810190F081E02DE6
:100F4000642FDF91CF911F910F91FF90EF90DF9071
:100F5000CF9009942A303105E9F477FF1AC06DE289
:100F60000E942D078C0144275527BA014C195D09B1
:100F70006E097F092AE0CE010E943407800F911F7D
:100F8000DF91CF911F910F91FF90EF90DF90CF9065
:100F900008952AE0B701A601CE01DF91CF911F91FC
:100FA0000F91FF90EF90DF90CF900C9434079A014F
:100FB000AB01662757FD6095762F0C948D072115A0
:100FC000310541F4DC01ED91FC910190F081E02DBF
:100FD000642F09940C9434079A01AB0160E070E02F
:100FE0000C94DF074F925F926F927F928F929F9245
:100FF000AF92BF92CF92DF92EF92FF920F931F9327
:10100000CF93DF93EC016A017B01B22E9A01AB0111
:10101000C701B6010E942E16882319F06BED71E00E
:1010200027C026013701E89477F82FEF3FEF4FE70D
:101030005FE7C301B2010E942E1681110DC02FEF90
:101040003FEF4FE75FE7C301B2010E947814181623
:101050001CF46FED71E00CC02FEF3FEF4FE75FE442
:10106000C701B6010E94C7151816ACF463EE71E013
:10107000CE01DF91CF911F910F91FF90EF90DF9004
:10108000CF90BF90AF909F908F907F906F905F9028
:101090004F900C9415072FEF3FEF4FE75FECC70120
:1010A000B6010E94781487FDE1CF20E030E0A9016D
:1010B000C701B6010E94781487FF0AC06DE2CE0115
:1010C0000E942D078C01F7FAF094F7F8F09402C013
:1010D00000E010E0A12C60E070E080E09FE3AB1442
:1010E00041F020E030E040E251E40E947C14A394FF
:1010F000F6CF9B01AC01C701B6010E9414146B012D
:101100007C010E94E9142B013C010E9415159B01F2
:10111000AC01C701B6010E9413146B017C012AE0E7
:10112000B301A201CE010E943407080F191FBB2092
:1011300039F067EE71E0CE010E941507080F191F04
:101140007B2C772041F120E030E040E251E4C70100
:10115000B6010E94CB156B017C010E94E4144B0187
:10116000AA2497FCA094BA2C2AE030E0B501A4018F
:10117000CE010E948D07080F191FC501B4010E94FE
:1011800017159B01AC01C701B6010E9413146B0136
:101190007C017A94D6CFC801DF91CF911F910F9136
:1011A000FF90EF90DF90CF90BF90AF909F908F9087
:1011B0007F906F905F904F9008950C94F2070F937B
:1011C0001F93CF93DF93EC018B01198218821A824F
:1011D0001C821B828AE08F83FE01E75FFE4F118233
:1011E0001082FE01E55FFE4F7183608363E371E06F
:1011F000CE0105960E94C0131886FE01E85FFE4FDF
:1012000010826BE070E0C8010E944F1299838883BE
:10121000DF91CF911F910F9108950F931F93CF935B
:10122000DF93EC018A01AA812A2F30E0FC01E55FFF
:10123000FE4F8081918128173907C4F488819981F4
:1012400048E050E02BE0A29F800D911D11240E94E8
:10125000D5138A81E881F9819BE0899FE00DF11D1A
:101260001124128701878A818F5F8A83DF91CF9152
:101270001F910F910895FC01748363830895AC015D
:10128000475F5E4FBC016B5F7F4F80E090E00C9446
:10129000E4132F923F924F925F926F927F928F92C0
:1012A0009F92AF92BF92CF92DF92EF92FF920F93F5
:1012B0001F93CF93DF9300D000D0CDB7DEB79C83D0
:1012C0008B837C0128EFE21A2EEFF20A875F9E4F94
:1012D0009A8389832B803C8085E0280E311C4B80CB
:1012E0005C8098E0490E511C86E093E00E94F9046E
:1012F000181619060CF067C086E093E00E942605D8
:10130000182FAB81BC8117968C91181340C049816E
:101310005A81B101C2010E94E4136C01009789F166
:10132000EB81FC818280912C612C712CA12CB12C41
:10133000A814B904E4F4AB81BC810D911C91060D95
:10134000171D48E050E0B801C6010E94C713BBE07A
:101350006B0E711C892B39F4D8011996ED91FC9113
:101360001A9709950EC0BFEFAB1ABB0AE1CFAB814C
:10137000BC811396ED91FC911497309711F0C60142
:101380000995EB81FC811086D7011C92ADCF812F8E
:10139000992787FD90950E94A213892B09F4A4CF69
:1013A000F70180818F3F09F49FCF91E0980F9083E0
:1013B000EB81FC81E80FF11D1087EB81FC81E90FC7
:1013C000F11D108691CF0F900F900F900F90DF912D
:1013D000CF911F910F91FF90EF90DF90CF90BF9032
:1013E000AF909F908F907F906F905F904F903F90C5
:1013F0002F900895CF92DF92EF92FF926B017C01C4
:1014000081E8C8168EE3D806E104F10458F080E8BC
:101410009EE30E94DC1080E8C81A8EE3D80AE10837
:10142000F108EECFC601FF90EF90DF90CF900C94C3
:10143000DC1084E090E008951F93CF93DF931F9218
:10144000CDB7DEB7182F1092F5061092F406109261
:10145000CF031092BA031092B9031092BC031092FA
:10146000BB031092BE031092BD031092C0031092F2
:10147000BF031092C4031092C3031092C6031092CC
:10148000C5031092C8031092C7031092CA031092AA
:10149000C9031092B3031092B20320910701309157
:1014A00008012F3F8FEF380729F0822F99830E9480
:1014B000DF0F9981109307019093080141E050E0FC
:1014C00063E77CE0812F0F90DF91CF911F910C9407
:1014D000BF0F80910701909108018F3F2FEF920776
:1014E00011F00E94DF0F8FEF9FEF90930801809320
:1014F00007011092CF0308958091B303811103C0B7
:101500008091B203089581E008952091B3032223CE
:1015100081F024ED33E0FC01318320838091B90315
:101520009091BA030196FB01918380831092B303DB
:1015300008952091B2032223C1F04091C503509138
:10154000C6039A01220F331F2C523C4FFC013183FA
:1015500020838091BB039091BC03841B950B019663
:10156000FB01918380831092B20308958091CF0391
:10157000853031F41092CF031092B3031092B2036E
:1015800008951092B0038091CD039091CE030895F9
:101590008091B00308952091F4063091F506A901D9
:1015A0005695479556954795B901641B750B681775
:1015B000790748F4240F351F41E08217930708F09C
:1015C00040E0842F089580E008959093F50680937D
:1015D000F4061092BA031092B9031092BC03109251
:1015E000BB031092BE031092BD031092C003109271
:1015F000BF031092C4031092C3031092C60310924B
:10160000C5031092C8031092C7031092CA03109228
:10161000C90381E08093B6038093B4038093B7033A
:101620008093B5038093B8031092B3031092B20372
:101630008093CF0308950F931F93CF93DF938C0173
:10164000EB010E94CB0A882309F454C09E01220FAB
:10165000331FF901E754FC4F40815181DA01AA0F91
:10166000BB1FAC52BC4F0D931C93CE0101964F5F34
:101670005F4F880F991FDC01AD53BC4F4D935C93B6
:10168000DC01A754BC4F4D935C93D901AD53BC4FC3
:101690002D913C9180819181821B930B809764F006
:1016A0008091CF03843021F485E08093CF0347C03D
:1016B000CE5FC093CF0343C031832083C130D105B7
:1016C00079F01CF4CD2BE9F03AC0C230D10561F0BD
:1016D0002397A9F581E08093B6038093B4032FC0CC
:1016E00081E08093B8032BC081E08093B70380939F
:1016F000B50325C08091F4069091F50680179107F7
:1017000038F4C801DF91CF911F910F910C94E50A35
:10171000CC0FDD1FC754DC4F888199818F3821E0C1
:1017200092075CF4FC01EE0FFF1FEC52FC4F11839B
:10173000008301969983888302C01092CF03DF91C2
:10174000CF911F910F910895EF92FF920F931F93E6
:10175000FC0180818823F9F017FD1DC0D801AA0F74
:10176000BB1FAC52BC4F8D919C918217930718F010
:101770004817590708F410828091CF0390E022E0C7
:10178000E20EF11C8E159F0531F48081882319F03B
:1017900081E0FB0180831F910F91FF90EF900895EE
:1017A000AF92BF92CF92DF92EF92FF920F931F936F
:1017B000CF93DF939C01220F331FF901E754FC4FB5
:1017C000A080B18041E0A41AB108F501EE0FFF1F1F
:1017D000EC52FC4F40815181BA0157FF02C0695F52
:1017E0007F4FF3E075956795FA95E1F7EA0157FDAC
:1017F0002396D595C795D595C795C60FD71F6A016E
:10180000CC1ADD0AC40FD51FF901ED53FC4F20811E
:101810003181A21AB30A8230910599F08330910583
:1018200049F1019709F054C0EE24E394F12C8501AD
:101830009601AE0163EB73E088EB93E00E94A40B8A
:1018400047C092E0E92EF12C85019601AE0163EBD1
:1018500073E087EB93E00E94A40B9601AE0162EB6C
:1018600073E085EB93E00E94A40B8091CF0384305A
:1018700079F524C08091B70381110CC083E0E82E74
:10188000F12C85019601AE0163EB73E086EB93E0EA
:101890000E94A40B8091B50381110CC003E0E02EDF
:1018A000F12C85019601AE0162EB73E084EB93E0CD
:1018B0000E94A40B8091CF03853051F48091B30333
:1018C000811106C08091B203811102C01092CF0332
:1018D000DF91CF911F910F91FF90EF90DF90CF900C
:1018E000BF90AF9008950F931F930E949310AB0188
:1018F000BC018091D0039091D103A091D203B0910B
:10190000D3038A019B01081B190B2A0B3B0BD9013E
:10191000C80112E0B695A795979587951A95D1F7C6
:101920009093CE038093CD03E091B103EE2319F0A1
:101930001092B10344C089319105F0F1E1E0E093E8
:10194000B0034093D0035093D1036093D2037093BC
:10195000D3034091CF034230F1F050F4442399F087
:10196000413069F560E070E01F910F910C941B0B02
:101970004330C1F0443019F563E070E00E941B0B66
:1019800083E090E015C08B3613E09107C0F01F9103
:101990000F910C94E50A61E070E00E941B0B81E05E
:1019A00090E006C062E070E00E941B0B82E090E0D5
:1019B0001F910F910C94D00B81E08093B1031F9184
:1019C0000F9108952F923F924F925F926F927F9264
:1019D0008F929F92AF92BF92CF92DF92EF92FF923F
:1019E0000F931F93CF93DF93CDB7DEB7E0970FB67A
:1019F000F894DEBF0FBECDBF4C012A01FC0188E088
:101A000090E01192119201970097D9F7FE0131965B
:101A100080E2DF011D928A95E9F73E01B1E26B0E8B
:101A2000711C80E1D3011D928A95E9F71B01E12C1D
:101A3000F12CE414F50409F45FC05101D1014D917A
:101A40005D911D01940180E090E08901D9016D91C3
:101A50007D919D016115710521F4D8014D935C9331
:101A600018C08B01A3E016950795AA95E1F76B01C5
:101A7000D694C794D694C7940C0D1D1D6B01C01A43
:101A8000D10AC416D50688F5600F711F461757078F
:101A900060F5D5018D939C939C01220F331F220F7B
:101AA000331F2E0F3F1FD901AD90BD90CD90DC901C
:101AB0001397A40EB51EC11CD11CAD92BD92CD9240
:101AC000DC921397880F991F8E0F9F1FDC01909651
:101AD0002D913C9191972F5F3F4F91963C932E9380
:101AE00090978FEFE81AF80AA4CF019688309105F5
:101AF00009F0ABCF80E022C07F016E01B1E3CB0ED5
:101B0000D11C8401F301219131913F01211531054F
:101B100061F040E050E0D7016D917D918D919C91F5
:101B20000E945016F80131832083F4E0EF0EF11C7F
:101B30000E5F1F4F6C147D0429F781E0E0960FB60D
:101B4000F894DEBF0FBECDBFDF91CF911F910F91F3
:101B5000FF90EF90DF90CF90BF90AF909F908F90CD
:101B60007F906F905F904F903F902F9008958F924D
:101B70009F92AF92BF92CF92DF92EF92FF928091AD
:101B80000701909108010196D9F1812C912C540103
:101B90008091CF03823028F4809107010E94DF0FEB
:101BA0002FC08530C9F37501640185E0C80ED11CD2
:101BB000E11CF11C63E070E080E090E00E94FA0913
:101BC00021E4C2162BE4D2062CE4E206F10420F74D
:101BD0008091CF03823010F0853079F47501640173
:101BE00085E4C80E82E4D81E8FE0E81EF11C60E494
:101BF00072E48FE090E00E94FA0946015701C8CFD5
:101C00008091B303811104C08091B203882319F03D
:101C100085E08093CF03FF90EF90DF90CF90BF904F
:101C2000AF909F908F900895809107019091080147
:101C30008F3F2FEF920731F041E050E063E77CE007
:101C40000C94BF0F08955F926F927F928F929F9234
:101C5000AF92BF92CF92DF92EF92FF920F931F93BA
:101C6000CF93DF93582E4B018A0159010E94B70D83
:101C7000E80109900020E9F72197C01BD10B61E032
:101C8000852D0E946104C12CD12CC00FD11F60E0B2
:101C9000852DCA14DB0421F10E949A047801612C7D
:101CA000712CEC16FD06C1F081E06826662D852DAD
:101CB0000E949A04F70181917F01F40194E0890266
:101CC000E00DF11D1124E05CF109608171818281D8
:101CD00093810E94FA09E5CFEFEFCE1ADE0AD7CF43
:101CE0000E949A04DF91CF911F910F91FF90EF9086
:101CF000DF90CF90BF90AF909F908F907F906F902C
:101D00005F900C94140E6F927F928F929F92AF927D
:101D1000BF92CF92DF92EF92FF920F931F93CF93D8
:101D2000DF931F92CDB7DEB73C01B62EFC011086C3
:101D3000118612861386148661E08B2D49830E94DA
:101D4000610460E08B2D0E949A044981642F70E049
:101D500080E090E00E94B61061E08B2D0E949A0412
:101D600088E290E00E94DC1060E08B2D0E9461040C
:101D700008EC10E08B2D0E94D004892B41F4015017
:101D8000110901151105B1F78EEF9FEF52C008EC54
:101D900010E08B2D0E94D004019731F401501109FD
:101DA00001151105B1F7F0CF98E2992E812C20E8AA
:101DB000A22E08EC10E08B2D0E94D004892B31F468
:101DC0000150110901151105B1F7DECF0E949310E2
:101DD0006B017C0108EC10E08B2D0E94D004019770
:101DE00031F40150110901151105B1F7CDCF0E9451
:101DF00093106C197D098E099F096932710581055F
:101E0000910530F0F301E80DF11D80858A29808766
:101E1000A69419F4839480E8A82E9A9451F661E070
:101E20008B2D0E94610461E08B2D0E949A0480E05A
:101E300090E00F90DF91CF911F910F91FF90EF9065
:101E4000DF90CF90BF90AF909F908F907F906F90DA
:101E500008950F931F93CF93DF93EC0142E10E940B
:101E6000830E009769F040E050EC69E774EC48831A
:101E700059836A837B834C835D836E837F8321C018
:101E80001885612F70E080E090E00E94151568834E
:101E900079838A839B830A85602F70E080E090E0DD
:101EA0000E9415156C837D838E839F83100F81E0C4
:101EB00090E02C85211302C080E090E091958195FF
:101EC0009109DF91CF911F910F910895CF93DF93E7
:101ED000EC0141E00E94830E009769F040E050EC75
:101EE00069E774EC488359836A837B834C835D8301
:101EF0006E837F8341C0698588850E944A12BC0138
:101F000080E090E00E9415152DEC3CEC4CEC5DE37C
:101F10000E94CB15688379838A839B838A856B852E
:101F20008F770E944A12BC0180E090E00E94151554
:101F30002DEC3CEC4CEC5DE30E94CB156C837D8377
:101F40008E839F833A8537FF07C0DC01CB01B058F1
:101F50008C839D83AE83BF832885230F8985280FBB
:101F60008B85280F81E090E03C85321302C080E031
:101F700090E0919581959109DF91CF9108958230FC
:101F8000E8F4E82FF0E0EE0FFF1FEA50F94F7183FD
:101F90006083813041F0809169008C7F842B809335
:101FA0006900E89A089580916900440F551F440F15
:101FB000551F837F842B80936900E99A08958230AE
:101FC00068F4813011F0E89801C0E998E82FF0E05A
:101FD000EE0FFF1FEA50F94F1182108208951F92F1
:101FE0000F920FB60F9211242F933F934F935F934D
:101FF0006F937F938F939F93AF93BF93EF93FF93D1
:102000008091F6069091F706892B29F0E091F6066B
:10201000F091F7060995FF91EF91BF91AF919F91D4
:102020008F917F916F915F914F913F912F910F9081
:102030000FBE0F901F9018951F920F920FB60F9220
:1020400011242F933F934F935F936F937F938F93BD
:102050009F93AF93BF93EF93FF938091F806909176
:10206000F906892B29F0E091F806F091F906099517
:10207000FF91EF91BF91AF919F918F917F916F9160
:102080005F914F913F912F910F900FBE0F901F9036
:1020900018951F920F920FB60F9211242F933F9312
:1020A0008F939F93AF93BF938091FB069091FC0613
:1020B000A091FD06B091FE063091FA0626E0230FAE
:1020C0002D3720F40296A11DB11D05C029E8230F6C
:1020D0000396A11DB11D2093FA068093FB069093F1
:1020E000FC06A093FD06B093FE068091FF0690913A
:1020F0000007A0910107B09102070196A11DB11D33
:102100008093FF0690930007A0930107B093020706
:10211000BF91AF919F918F913F912F910F900FBEE3
:102120000F901F9018953FB7F8948091FF069091FB
:102130000007A0910107B091020726B5A89B05C032
:102140002F3F19F00196A11DB11D3FBF6627782FC3
:10215000892F9A2F620F711D811D911D43E0660F1B
:10216000771F881F991F4A95D1F70895CF92DF9264
:10217000EF92FF92CF93DF936B017C010E9493104B
:10218000EB01C114D104E104F10479F00E94931031
:102190006C1B7D0B683E7340A0F381E0C81AD10828
:1021A000E108F108C851DC4FECCFDF91CF91FF90EF
:1021B000EF90DF90CF9008958130910541F0029724
:1021C000009729F0880F991F01970197F1F708955B
:1021D000789484B5826084BD84B5816084BD85B502
:1021E000826085BD85B5816085BDEEE6F0E08081C9
:1021F00081608083E1E8F0E01082808182608083EA
:10220000808181608083E0E8F0E08081816080836C
:10221000E1EBF0E0808184608083E0EBF0E080819E
:1022200081608083EAE7F0E0808184608083808140
:1022300082608083808181608083808180688083E8
:102240001092C1000895CF93DF938230910510F46E
:1022500082E090E0E0910507F091060720E030E091
:10226000A0E0B0E0309739F140815181481759071B
:10227000B8F04817590771F482819381109729F0BB
:1022800013969C938E9312972CC09093060780937D
:10229000050727C02115310531F04217530718F003
:1022A000A901DB0101C0EF019A01BD01DF0102803C
:1022B000F381E02DD7CF21153105F9F0281B390B1B
:1022C0002430310580F48A819B816115710521F0EC
:1022D000FB019383828304C09093060780930507D4
:1022E000FE01329644C0FE01E20FF31F81939193E9
:1022F00022503109398328833AC020910307309155
:102300000407232B41F420910B0130910C013093F1
:102310000407209303072091090130910A01211538
:10232000310541F42DB73EB740910D0150910E019A
:10233000241B350BE0910307F0910407E217F30724
:10234000A0F42E1B3F0B2817390778F0AC014E5F25
:102350005F4F2417350748F04E0F5F1F5093040757
:10236000409303078193919302C0E0E0F0E0CF0136
:10237000DF91CF910895CF93DF93009709F487C041
:10238000FC01329713821282C0910507D091060793
:10239000209781F420813181280F391F8091030714
:1023A000909104078217930779F5F0930407E0935F
:1023B00003076DC0DE0120E030E0AE17BF0750F428
:1023C00012964D915C9113979D014115510509F1AC
:1023D000DA01F3CFB383A28340815181840F951F2B
:1023E0008A179B0771F48D919C911197840F951F0B
:1023F00002969183808312968D919C91139793837B
:1024000082832115310529F4F0930607E09305072F
:102410003EC0D9011396FC93EE9312974D915D91B6
:10242000A40FB51FEA17FB0779F480819181840F0F
:10243000951F0296D90111969C938E938281938168
:1024400013969C938E931297E0E0F0E08A819B8133
:10245000009719F0FE01EC01F9CFCE010296288118
:102460003981820F931F20910307309104072817A9
:10247000390769F4309729F410920607109205077E
:1024800002C013821282D0930407C0930307DF9126
:10249000CF91089570E09B01382BC90108950F93E7
:1024A0001F93CF93DF93869F8001879F100D969F88
:1024B000100D1124C8010E942311EC01009729F08E
:1024C000A80160E070E00E94B013CE01DF91CF91CF
:1024D0001F910F9108952F923F925F926F927F927A
:1024E0008F929F92AF92BF92CF92DF92EF92FF9224
:1024F0000F931F93CF93DF938B01EA016115710551
:1025000021F0DB018C9311969C93209739F09E016A
:10251000225031092332310508F0D8C07C0167010F
:10252000BFEFCB1ADB0A5601F7016080862D90E0E1
:102530000E94A813892B11F07601F1CFFDE26F12F2
:102540000AC0570182E0A80EB11CD70111966C9009
:10255000772473940BC0BBE26B1207C05701E2E013
:10256000AE0EB11CD70111966C90712CCE018F7EEE
:10257000892B89F4B0E36B1237C0F50180818F7D20
:102580008835D1F46180F2E0AF0EB11C872D8260F6
:10259000782EC0E1D0E0CA30D10551F1C031D1056B
:1025A00021F0C830D10599F409C0CC24CA94DC2CA0
:1025B000EC2CAFE0FA2E22C0209769F7C8E0D0E0FB
:1025C000CC24CA94DC2CEC2CFFE1FF2E17C06FEF5B
:1025D0007FEFCB019E01442737FD4095542F0E9489
:1025E000501669017A010AC02097A9F6CAE0D0E026
:1025F000E9E9CE2EDC2CEC2CE9E1FE2EF50160E0C1
:1026000020E030E0A9014E01AA2497FCA094BA2C46
:102610001F0170ED572E560CA9E0A51570F48FEB35
:10262000860D8A3118F499EC592E06C08FE9860D73
:102630008A3148F589EA582E560C852D90E08C1782
:102640009D070CF56F3FD9F0C216D306E406F506D8
:1026500098F0C501B4010E9440169B01AC01852D84
:1026600090E0A0E0B0E0280F391F4A1F5B1F281739
:1026700039074A075B0710F46FEF01C061E031963C
:10268000D1016C90C5CF0115110551F0662311F0F1
:10269000319703C071FE04C03297D801ED93FC93CB
:1026A00070FE07C050954095309521953F4F4F4F94
:1026B0005F4F67FF10C082E290E09093080780931D
:1026C00007076FEF7FEF8FEF9FEF07C060E070E0CD
:1026D00080E090E002C0B901CA01DF91CF911F9163
:1026E0000F91FF90EF90DF90CF90BF90AF909F90B1
:1026F0008F907F906F905F903F902F900895FC0196
:1027000088279927E89421912032E9F3293010F0A5
:102710002E30C8F32B3241F02D3239F4689404C0C6
:102720000E940B14820F911D219120532A30C0F377
:102730001EF4909581959F4F0895F8940C948716F8
:10274000803209F091118EC280528F55E0F70895C2
:10275000911188C2803219F089508550D0F70895C0
:10276000DC0101C06D9341505040E0F70895FB013A
:10277000DC018D91019080190110D9F3990B089516
:10278000FB01DC0101900D920020E1F70895FB01AF
:10279000DC014150504030F08D910190801919F4C6
:1027A0000020B9F7881B990B0895FB01DC0141500B
:1027B000504048F001900D920020C9F701C01D92D1
:1027C00041505040E0F70895FA01A191B08100977F
:1027D00019F41097E1F0CD01DC01CD010D9000203E
:1027E00011F4C00113C0FB012191222319F020151F
:1027F000D9F7F3CFFB012191201519F41E92119600
:1028000006C02223C1F70D900020A1F7D001FA01E4
:10281000A193B08308957AE0979F902D879F802D94
:10282000910D112408955058BB27AA270ED075C1C9
:1028300066D130F06BD120F031F49F3F11F41EF4DB
:102840005BC10EF4E095E7FB51C1E92F77D180F32E
:10285000BA17620773078407950718F071F49EF59D
:102860008FC10EF4E0950B2EBA2FA02D0B01B901EC
:1028700090010C01CA01A0011124FF27591B99F0F6
:10288000593F50F4503E68F11A16F040A22F232F02
:10289000342F4427585FF3CF469537952795A79552
:1028A000F0405395C9F77EF41F16BA0B620B730BF9
:1028B000840BBAF09150A1F0FF0FBB1F661F771F6A
:1028C000881FC2F70EC0BA0F621F731F841F48F41F
:1028D000879577956795B795F7959E3F08F0B3CFA5
:1028E0009395880F08F09927EE0F9795879508958F
:1028F000D9D008F481E008950CD00FC107D140F081
:10290000FED030F021F45F3F19F0F0C0511139C111
:10291000F3C014D198F39923C9F35523B1F3951B50
:10292000550BBB27AA2762177307840738F09F5FF0
:102930005F4F220F331F441FAA1FA9F333D00E2E5F
:102940003AF0E0E830D091505040E695001CCAF7CC
:1029500029D0FE2F27D0660F771F881FBB1F261791
:1029600037074807AB07B0E809F0BB0B802DBF0164
:10297000FF2793585F4F2AF09E3F510568F0B6C07D
:1029800000C15F3FECF3983EDCF386957795679541
:10299000B795F7959F5FC9F7880F911D9695879515
:1029A00097F90895E1E0660F771F881FBB1F621734
:1029B00073078407BA0720F0621B730B840BBA0BF2
:1029C000EE1F88F7E095089504D06894B111D9C03E
:1029D0000895BCD088F09F5790F0B92F9927B75130
:1029E000A0F0D1F0660F771F881F991F1AF0BA95D3
:1029F000C9F712C0B13081F0C3D0B1E00895C0C0B2
:102A0000672F782F8827B85F39F0B93FCCF38695C8
:102A100077956795B395D9F73EF490958095709525
:102A200061957F4F8F4F9F4F0895E89409C097FBA2
:102A30003EF490958095709561957F4F8F4F9F4F95
:102A40009923A9F0F92F96E9BB279395F6958795D9
:102A500077956795B795F111F8CFFAF4BB0F11F49C
:102A600060FF1BC06F5F7F4F8F4F9F4F16C0882343
:102A700011F096E911C0772321F09EE8872F762F79
:102A800005C0662371F096E8862F70E060E02AF0BA
:102A90009A95660F771F881FDAF7880F96958795A6
:102AA00097F90895990F0008550FAA0BE0E8FEEF7B
:102AB00016161706E807F907C0F012161306E40702
:102AC000F50798F0621B730B840B950B39F40A26FB
:102AD00061F0232B242B252B21F408950A2609F4D9
:102AE000A140A6958FEF811D811D089597F99F67DD
:102AF00080E870E060E008959FEF80EC0895002486
:102B00000A941616170618060906089500240A9452
:102B100012161306140605060895092E0394000CD8
:102B200011F4882352F0BB0F40F4BF2B11F460FF67
:102B300004C06F5F7F4F8F4F9F4F089557FD905890
:102B4000440F551F59F05F3F71F04795880F97FB71
:102B5000991F61F09F3F79F087950895121613062B
:102B60001406551FF2CF4695F1DF08C0161617065A
:102B70001806991FF1CF869571056105089408958F
:102B8000E894BB2766277727CB0197F908958ADF5A
:102B900008F48FEF08950BD0C0CFB1DF28F0B6DF77
:102BA00018F0952309F0A2CFA7CF1124EACFC6DFF2
:102BB000A0F3959FD1F3950F50E0551F629FF00150
:102BC000729FBB27F00DB11D639FAA27F00DB11DA9
:102BD000AA1F649F6627B00DA11D661F829F222732
:102BE000B00DA11D621F739FB00DA11D621F839FB9
:102BF000A00D611D221F749F3327A00D611D231F8F
:102C0000849F600D211D822F762F6A2F11249F57DC
:102C100050408AF0E1F088234AF0EE0FFF1FBB1FFF
:102C2000661F771F881F91505040A9F79E3F51059E
:102C300070F05CCFA6CF5F3FECF3983EDCF3869557
:102C400077956795B795F795E7959F5FC1F7FE2B49
:102C5000880F911D9695879597F9089523DF880B26
:102C6000990B08959927882708950E947216A59FA9
:102C7000900DB49F900DA49F800D911D1124089577
:102C8000DB018F939F930E943516BF91AF91A29F56
:102C9000800D911DA39F900DB29F900D112408955A
:102CA000A1E21A2EAA1BBB1BFD010DC0AA1FBB1F50
:102CB000EE1FFF1FA217B307E407F50720F0A21BC2
:102CC000B30BE40BF50B661F771F881F991F1A942F
:102CD00069F760957095809590959B01AC01BD0159
:102CE000CF010895A29FB001B39FC001A39F700DB3
:102CF000811D1124911DB29F700D811D1124911D04
:102D00000895EE0FFF1F0590F491E02D0994F894BB
:022D1000FFCFF3
:102D120001000000FFFF01FFFF00000907800045DE
:102D2200525220756E6B6E6F776E5F636F6D6D6161
:102D32006E640D0A0072656164790D0A0050494E95
:102D420047002C2000524620726563656976652033
:102D520000445200445700415200415700504D0078
:102D6200524600444854005245534554004552527D
:102D720020617267756D656E745F6572726F720D38
:102D82000A0041434B0D0A0073656E64007265636D
:102D920065697665007261770041434B20004552B8
:102DA2005220636865636B73756D5F6572726F72D3
:102DB2000D0A004552522074696D656F75745F6526
:102DC20072726F720D0A0045525220756E6B6E6FF1
:102DD200776E5F6572726F720D0A00000000005319
:102DE20005ED06F90426050B0548056E616E0069BE
:0A2DF2006E66006F7666002E00008A
:00000001FF
